{
  "contractName": "Governance",
  "abi": [
    {
      "inputs": [
        {
          "internalType": "contract ERC20Votes",
          "name": "_token",
          "type": "address"
        },
        {
          "internalType": "contract TimelockController",
          "name": "_timelock",
          "type": "address"
        },
        {
          "internalType": "uint256",
          "name": "_quorum",
          "type": "uint256"
        },
        {
          "internalType": "uint256",
          "name": "_votingDelay",
          "type": "uint256"
        },
        {
          "internalType": "uint256",
          "name": "_votingPeriod",
          "type": "uint256"
        }
      ],
      "stateMutability": "nonpayable",
      "type": "constructor"
    },
    {
      "anonymous": false,
      "inputs": [
        {
          "indexed": false,
          "internalType": "uint256",
          "name": "proposalId",
          "type": "uint256"
        }
      ],
      "name": "ProposalCanceled",
      "type": "event"
    },
    {
      "anonymous": false,
      "inputs": [
        {
          "indexed": false,
          "internalType": "uint256",
          "name": "proposalId",
          "type": "uint256"
        },
        {
          "indexed": false,
          "internalType": "address",
          "name": "proposer",
          "type": "address"
        },
        {
          "indexed": false,
          "internalType": "address[]",
          "name": "targets",
          "type": "address[]"
        },
        {
          "indexed": false,
          "internalType": "uint256[]",
          "name": "values",
          "type": "uint256[]"
        },
        {
          "indexed": false,
          "internalType": "string[]",
          "name": "signatures",
          "type": "string[]"
        },
        {
          "indexed": false,
          "internalType": "bytes[]",
          "name": "calldatas",
          "type": "bytes[]"
        },
        {
          "indexed": false,
          "internalType": "uint256",
          "name": "startBlock",
          "type": "uint256"
        },
        {
          "indexed": false,
          "internalType": "uint256",
          "name": "endBlock",
          "type": "uint256"
        },
        {
          "indexed": false,
          "internalType": "string",
          "name": "description",
          "type": "string"
        }
      ],
      "name": "ProposalCreated",
      "type": "event"
    },
    {
      "anonymous": false,
      "inputs": [
        {
          "indexed": false,
          "internalType": "uint256",
          "name": "proposalId",
          "type": "uint256"
        }
      ],
      "name": "ProposalExecuted",
      "type": "event"
    },
    {
      "anonymous": false,
      "inputs": [
        {
          "indexed": false,
          "internalType": "uint256",
          "name": "proposalId",
          "type": "uint256"
        },
        {
          "indexed": false,
          "internalType": "uint256",
          "name": "eta",
          "type": "uint256"
        }
      ],
      "name": "ProposalQueued",
      "type": "event"
    },
    {
      "anonymous": false,
      "inputs": [
        {
          "indexed": false,
          "internalType": "uint256",
          "name": "oldQuorumNumerator",
          "type": "uint256"
        },
        {
          "indexed": false,
          "internalType": "uint256",
          "name": "newQuorumNumerator",
          "type": "uint256"
        }
      ],
      "name": "QuorumNumeratorUpdated",
      "type": "event"
    },
    {
      "anonymous": false,
      "inputs": [
        {
          "indexed": false,
          "internalType": "address",
          "name": "oldTimelock",
          "type": "address"
        },
        {
          "indexed": false,
          "internalType": "address",
          "name": "newTimelock",
          "type": "address"
        }
      ],
      "name": "TimelockChange",
      "type": "event"
    },
    {
      "anonymous": false,
      "inputs": [
        {
          "indexed": true,
          "internalType": "address",
          "name": "voter",
          "type": "address"
        },
        {
          "indexed": false,
          "internalType": "uint256",
          "name": "proposalId",
          "type": "uint256"
        },
        {
          "indexed": false,
          "internalType": "uint8",
          "name": "support",
          "type": "uint8"
        },
        {
          "indexed": false,
          "internalType": "uint256",
          "name": "weight",
          "type": "uint256"
        },
        {
          "indexed": false,
          "internalType": "string",
          "name": "reason",
          "type": "string"
        }
      ],
      "name": "VoteCast",
      "type": "event"
    },
    {
      "inputs": [],
      "name": "BALLOT_TYPEHASH",
      "outputs": [
        {
          "internalType": "bytes32",
          "name": "",
          "type": "bytes32"
        }
      ],
      "stateMutability": "view",
      "type": "function",
      "constant": true
    },
    {
      "inputs": [],
      "name": "COUNTING_MODE",
      "outputs": [
        {
          "internalType": "string",
          "name": "",
          "type": "string"
        }
      ],
      "stateMutability": "pure",
      "type": "function",
      "constant": true
    },
    {
      "inputs": [
        {
          "internalType": "uint256",
          "name": "proposalId",
          "type": "uint256"
        },
        {
          "internalType": "uint8",
          "name": "support",
          "type": "uint8"
        }
      ],
      "name": "castVote",
      "outputs": [
        {
          "internalType": "uint256",
          "name": "",
          "type": "uint256"
        }
      ],
      "stateMutability": "nonpayable",
      "type": "function"
    },
    {
      "inputs": [
        {
          "internalType": "uint256",
          "name": "proposalId",
          "type": "uint256"
        },
        {
          "internalType": "uint8",
          "name": "support",
          "type": "uint8"
        },
        {
          "internalType": "uint8",
          "name": "v",
          "type": "uint8"
        },
        {
          "internalType": "bytes32",
          "name": "r",
          "type": "bytes32"
        },
        {
          "internalType": "bytes32",
          "name": "s",
          "type": "bytes32"
        }
      ],
      "name": "castVoteBySig",
      "outputs": [
        {
          "internalType": "uint256",
          "name": "",
          "type": "uint256"
        }
      ],
      "stateMutability": "nonpayable",
      "type": "function"
    },
    {
      "inputs": [
        {
          "internalType": "uint256",
          "name": "proposalId",
          "type": "uint256"
        },
        {
          "internalType": "uint8",
          "name": "support",
          "type": "uint8"
        },
        {
          "internalType": "string",
          "name": "reason",
          "type": "string"
        }
      ],
      "name": "castVoteWithReason",
      "outputs": [
        {
          "internalType": "uint256",
          "name": "",
          "type": "uint256"
        }
      ],
      "stateMutability": "nonpayable",
      "type": "function"
    },
    {
      "inputs": [
        {
          "internalType": "address[]",
          "name": "targets",
          "type": "address[]"
        },
        {
          "internalType": "uint256[]",
          "name": "values",
          "type": "uint256[]"
        },
        {
          "internalType": "bytes[]",
          "name": "calldatas",
          "type": "bytes[]"
        },
        {
          "internalType": "bytes32",
          "name": "descriptionHash",
          "type": "bytes32"
        }
      ],
      "name": "execute",
      "outputs": [
        {
          "internalType": "uint256",
          "name": "",
          "type": "uint256"
        }
      ],
      "stateMutability": "payable",
      "type": "function",
      "payable": true
    },
    {
      "inputs": [
        {
          "internalType": "uint256",
          "name": "proposalId",
          "type": "uint256"
        },
        {
          "internalType": "address",
          "name": "account",
          "type": "address"
        }
      ],
      "name": "hasVoted",
      "outputs": [
        {
          "internalType": "bool",
          "name": "",
          "type": "bool"
        }
      ],
      "stateMutability": "view",
      "type": "function",
      "constant": true
    },
    {
      "inputs": [
        {
          "internalType": "address[]",
          "name": "targets",
          "type": "address[]"
        },
        {
          "internalType": "uint256[]",
          "name": "values",
          "type": "uint256[]"
        },
        {
          "internalType": "bytes[]",
          "name": "calldatas",
          "type": "bytes[]"
        },
        {
          "internalType": "bytes32",
          "name": "descriptionHash",
          "type": "bytes32"
        }
      ],
      "name": "hashProposal",
      "outputs": [
        {
          "internalType": "uint256",
          "name": "",
          "type": "uint256"
        }
      ],
      "stateMutability": "pure",
      "type": "function",
      "constant": true
    },
    {
      "inputs": [
        {
          "internalType": "uint256",
          "name": "",
          "type": "uint256"
        }
      ],
      "name": "members",
      "outputs": [
        {
          "internalType": "address",
          "name": "",
          "type": "address"
        }
      ],
      "stateMutability": "view",
      "type": "function",
      "constant": true
    },
    {
      "inputs": [],
      "name": "name",
      "outputs": [
        {
          "internalType": "string",
          "name": "",
          "type": "string"
        }
      ],
      "stateMutability": "view",
      "type": "function",
      "constant": true
    },
    {
      "inputs": [
        {
          "internalType": "uint256",
          "name": "proposalId",
          "type": "uint256"
        }
      ],
      "name": "proposalDeadline",
      "outputs": [
        {
          "internalType": "uint256",
          "name": "",
          "type": "uint256"
        }
      ],
      "stateMutability": "view",
      "type": "function",
      "constant": true
    },
    {
      "inputs": [
        {
          "internalType": "uint256",
          "name": "proposalId",
          "type": "uint256"
        }
      ],
      "name": "proposalEta",
      "outputs": [
        {
          "internalType": "uint256",
          "name": "",
          "type": "uint256"
        }
      ],
      "stateMutability": "view",
      "type": "function",
      "constant": true
    },
    {
      "inputs": [
        {
          "internalType": "uint256",
          "name": "proposalId",
          "type": "uint256"
        }
      ],
      "name": "proposalSnapshot",
      "outputs": [
        {
          "internalType": "uint256",
          "name": "",
          "type": "uint256"
        }
      ],
      "stateMutability": "view",
      "type": "function",
      "constant": true
    },
    {
      "inputs": [],
      "name": "proposalThreshold",
      "outputs": [
        {
          "internalType": "uint256",
          "name": "",
          "type": "uint256"
        }
      ],
      "stateMutability": "view",
      "type": "function",
      "constant": true
    },
    {
      "inputs": [
        {
          "internalType": "uint256",
          "name": "proposalId",
          "type": "uint256"
        }
      ],
      "name": "proposalVotes",
      "outputs": [
        {
          "internalType": "uint256",
          "name": "againstVotes",
          "type": "uint256"
        },
        {
          "internalType": "uint256",
          "name": "forVotes",
          "type": "uint256"
        },
        {
          "internalType": "uint256",
          "name": "abstainVotes",
          "type": "uint256"
        }
      ],
      "stateMutability": "view",
      "type": "function",
      "constant": true
    },
    {
      "inputs": [
        {
          "internalType": "uint256",
          "name": "",
          "type": "uint256"
        }
      ],
      "name": "proposals",
      "outputs": [
        {
          "internalType": "uint256",
          "name": "id",
          "type": "uint256"
        },
        {
          "internalType": "string",
          "name": "description",
          "type": "string"
        },
        {
          "internalType": "address",
          "name": "creatorAddress",
          "type": "address"
        }
      ],
      "stateMutability": "view",
      "type": "function",
      "constant": true
    },
    {
      "inputs": [
        {
          "internalType": "address[]",
          "name": "targets",
          "type": "address[]"
        },
        {
          "internalType": "uint256[]",
          "name": "values",
          "type": "uint256[]"
        },
        {
          "internalType": "bytes[]",
          "name": "calldatas",
          "type": "bytes[]"
        },
        {
          "internalType": "bytes32",
          "name": "descriptionHash",
          "type": "bytes32"
        }
      ],
      "name": "queue",
      "outputs": [
        {
          "internalType": "uint256",
          "name": "",
          "type": "uint256"
        }
      ],
      "stateMutability": "nonpayable",
      "type": "function"
    },
    {
      "inputs": [],
      "name": "quorumDenominator",
      "outputs": [
        {
          "internalType": "uint256",
          "name": "",
          "type": "uint256"
        }
      ],
      "stateMutability": "view",
      "type": "function",
      "constant": true
    },
    {
      "inputs": [],
      "name": "quorumNumerator",
      "outputs": [
        {
          "internalType": "uint256",
          "name": "",
          "type": "uint256"
        }
      ],
      "stateMutability": "view",
      "type": "function",
      "constant": true
    },
    {
      "inputs": [],
      "name": "timelock",
      "outputs": [
        {
          "internalType": "address",
          "name": "",
          "type": "address"
        }
      ],
      "stateMutability": "view",
      "type": "function",
      "constant": true
    },
    {
      "inputs": [],
      "name": "token",
      "outputs": [
        {
          "internalType": "contract ERC20Votes",
          "name": "",
          "type": "address"
        }
      ],
      "stateMutability": "view",
      "type": "function",
      "constant": true
    },
    {
      "inputs": [],
      "name": "totalMembers",
      "outputs": [
        {
          "internalType": "uint256",
          "name": "",
          "type": "uint256"
        }
      ],
      "stateMutability": "view",
      "type": "function",
      "constant": true
    },
    {
      "inputs": [],
      "name": "totalProposals",
      "outputs": [
        {
          "internalType": "uint256",
          "name": "",
          "type": "uint256"
        }
      ],
      "stateMutability": "view",
      "type": "function",
      "constant": true
    },
    {
      "inputs": [
        {
          "internalType": "uint256",
          "name": "newQuorumNumerator",
          "type": "uint256"
        }
      ],
      "name": "updateQuorumNumerator",
      "outputs": [],
      "stateMutability": "nonpayable",
      "type": "function"
    },
    {
      "inputs": [
        {
          "internalType": "contract TimelockController",
          "name": "newTimelock",
          "type": "address"
        }
      ],
      "name": "updateTimelock",
      "outputs": [],
      "stateMutability": "nonpayable",
      "type": "function"
    },
    {
      "inputs": [],
      "name": "version",
      "outputs": [
        {
          "internalType": "string",
          "name": "",
          "type": "string"
        }
      ],
      "stateMutability": "view",
      "type": "function",
      "constant": true
    },
    {
      "inputs": [],
      "name": "votingDelay_",
      "outputs": [
        {
          "internalType": "uint256",
          "name": "",
          "type": "uint256"
        }
      ],
      "stateMutability": "view",
      "type": "function",
      "constant": true
    },
    {
      "inputs": [],
      "name": "votingPeriod_",
      "outputs": [
        {
          "internalType": "uint256",
          "name": "",
          "type": "uint256"
        }
      ],
      "stateMutability": "view",
      "type": "function",
      "constant": true
    },
    {
      "stateMutability": "payable",
      "type": "receive",
      "payable": true
    },
    {
      "inputs": [],
      "name": "votingDelay",
      "outputs": [
        {
          "internalType": "uint256",
          "name": "",
          "type": "uint256"
        }
      ],
      "stateMutability": "view",
      "type": "function",
      "constant": true
    },
    {
      "inputs": [],
      "name": "votingPeriod",
      "outputs": [
        {
          "internalType": "uint256",
          "name": "",
          "type": "uint256"
        }
      ],
      "stateMutability": "view",
      "type": "function",
      "constant": true
    },
    {
      "inputs": [
        {
          "internalType": "uint256",
          "name": "blockNumber",
          "type": "uint256"
        }
      ],
      "name": "quorum",
      "outputs": [
        {
          "internalType": "uint256",
          "name": "",
          "type": "uint256"
        }
      ],
      "stateMutability": "view",
      "type": "function",
      "constant": true
    },
    {
      "inputs": [
        {
          "internalType": "address",
          "name": "account",
          "type": "address"
        },
        {
          "internalType": "uint256",
          "name": "blockNumber",
          "type": "uint256"
        }
      ],
      "name": "getVotes",
      "outputs": [
        {
          "internalType": "uint256",
          "name": "",
          "type": "uint256"
        }
      ],
      "stateMutability": "view",
      "type": "function",
      "constant": true
    },
    {
      "inputs": [
        {
          "internalType": "uint256",
          "name": "proposalId",
          "type": "uint256"
        }
      ],
      "name": "state",
      "outputs": [
        {
          "internalType": "enum IGovernor.ProposalState",
          "name": "",
          "type": "uint8"
        }
      ],
      "stateMutability": "view",
      "type": "function",
      "constant": true
    },
    {
      "inputs": [
        {
          "internalType": "address[]",
          "name": "targets",
          "type": "address[]"
        },
        {
          "internalType": "uint256[]",
          "name": "values",
          "type": "uint256[]"
        },
        {
          "internalType": "bytes[]",
          "name": "calldatas",
          "type": "bytes[]"
        },
        {
          "internalType": "string",
          "name": "description",
          "type": "string"
        }
      ],
      "name": "propose",
      "outputs": [
        {
          "internalType": "uint256",
          "name": "",
          "type": "uint256"
        }
      ],
      "stateMutability": "nonpayable",
      "type": "function"
    },
    {
      "inputs": [
        {
          "internalType": "address[]",
          "name": "targets",
          "type": "address[]"
        },
        {
          "internalType": "uint256[]",
          "name": "values",
          "type": "uint256[]"
        },
        {
          "internalType": "bytes[]",
          "name": "calldatas",
          "type": "bytes[]"
        },
        {
          "internalType": "string",
          "name": "description",
          "type": "string"
        }
      ],
      "name": "createProposal",
      "outputs": [
        {
          "internalType": "uint256",
          "name": "",
          "type": "uint256"
        }
      ],
      "stateMutability": "nonpayable",
      "type": "function"
    },
    {
      "inputs": [
        {
          "internalType": "bytes4",
          "name": "interfaceId",
          "type": "bytes4"
        }
      ],
      "name": "supportsInterface",
      "outputs": [
        {
          "internalType": "bool",
          "name": "",
          "type": "bool"
        }
      ],
      "stateMutability": "view",
      "type": "function",
      "constant": true
    },
    {
      "inputs": [
        {
          "internalType": "address",
          "name": "_member",
          "type": "address"
        }
      ],
      "name": "addMember",
      "outputs": [],
      "stateMutability": "nonpayable",
      "type": "function"
    }
  ],
  "bytecode": "0x61016060405260006009556000600a553480156200001c57600080fd5b506040516200589a3803806200589a833981810160405281019062000042919062000670565b8383866040518060400160405280600b81526020017f4275696c6465722044414f000000000000000000000000000000000000000000815250806200008c6200021d60201b60201c565b60008280519060200120905060008280519060200120905060007f8b73c3c69bb8fe3d512ecc4cf759cc79239f7b179b0ffacaa9a75d522b39400f90508260e081815250508161010081815250504660a08181525050620000f58184846200025a60201b60201c565b608081815250503073ffffffffffffffffffffffffffffffffffffffff1660c08173ffffffffffffffffffffffffffffffffffffffff16815250508061012081815250505050505050806000908051906020019062000156929190620004ae565b50508073ffffffffffffffffffffffffffffffffffffffff166101408173ffffffffffffffffffffffffffffffffffffffff1681525050506200019f816200029660201b60201c565b50620001b1816200033860201b60201c565b50816007819055508060088190555033600660006101000a81548173ffffffffffffffffffffffffffffffffffffffff021916908373ffffffffffffffffffffffffffffffffffffffff1602179055506200021233620003d960201b60201c565b50505050506200099d565b60606040518060400160405280600181526020017f3100000000000000000000000000000000000000000000000000000000000000815250905090565b600083838346306040516020016200027795949392919062000735565b6040516020818303038152906040528051906020012090509392505050565b620002a6620004a560201b60201c565b811115620002eb576040517f08c379a0000000000000000000000000000000000000000000000000000000008152600401620002e2906200083f565b60405180910390fd5b60006003549050816003819055507f0553476bf02ef2726e8ce5ced78d63e26e602e4a2257b1f559418e24b463399781836040516200032c92919062000861565b60405180910390a15050565b7f08f74ea46ef7894f65eabfb5e6e695de773a000b47c529ab559178069b226401600460009054906101000a900473ffffffffffffffffffffffffffffffffffffffff16826040516200038d9291906200088e565b60405180910390a180600460006101000a81548173ffffffffffffffffffffffffffffffffffffffff021916908373ffffffffffffffffffffffffffffffffffffffff16021790555050565b3373ffffffffffffffffffffffffffffffffffffffff16600660009054906101000a900473ffffffffffffffffffffffffffffffffffffffff1673ffffffffffffffffffffffffffffffffffffffff16146200043457600080fd5b600960008154809291906200044990620008ea565b919050555080600b6000600954815260200190815260200160002060006101000a81548173ffffffffffffffffffffffffffffffffffffffff021916908373ffffffffffffffffffffffffffffffffffffffff16021790555050565b60006064905090565b828054620004bc9062000967565b90600052602060002090601f016020900481019282620004e057600085556200052c565b82601f10620004fb57805160ff19168380011785556200052c565b828001600101855582156200052c579182015b828111156200052b5782518255916020019190600101906200050e565b5b5090506200053b91906200053f565b5090565b5b808211156200055a57600081600090555060010162000540565b5090565b600080fd5b600073ffffffffffffffffffffffffffffffffffffffff82169050919050565b6000620005908262000563565b9050919050565b6000620005a48262000583565b9050919050565b620005b68162000597565b8114620005c257600080fd5b50565b600081519050620005d681620005ab565b92915050565b6000620005e98262000563565b9050919050565b6000620005fd82620005dc565b9050919050565b6200060f81620005f0565b81146200061b57600080fd5b50565b6000815190506200062f8162000604565b92915050565b6000819050919050565b6200064a8162000635565b81146200065657600080fd5b50565b6000815190506200066a816200063f565b92915050565b600080600080600060a086880312156200068f576200068e6200055e565b5b60006200069f88828901620005c5565b9550506020620006b2888289016200061e565b9450506040620006c58882890162000659565b9350506060620006d88882890162000659565b9250506080620006eb8882890162000659565b9150509295509295909350565b6000819050919050565b6200070d81620006f8565b82525050565b6200071e8162000635565b82525050565b6200072f8162000583565b82525050565b600060a0820190506200074c600083018862000702565b6200075b602083018762000702565b6200076a604083018662000702565b62000779606083018562000713565b62000788608083018462000724565b9695505050505050565b600082825260208201905092915050565b7f476f7665726e6f72566f74657351756f72756d4672616374696f6e3a2071756f60008201527f72756d4e756d657261746f72206f7665722071756f72756d44656e6f6d696e6160208201527f746f720000000000000000000000000000000000000000000000000000000000604082015250565b60006200082760438362000792565b91506200083482620007a3565b606082019050919050565b600060208201905081810360008301526200085a8162000818565b9050919050565b600060408201905062000878600083018562000713565b62000887602083018462000713565b9392505050565b6000604082019050620008a5600083018562000724565b620008b4602083018462000724565b9392505050565b7f4e487b7100000000000000000000000000000000000000000000000000000000600052601160045260246000fd5b6000620008f78262000635565b91507fffffffffffffffffffffffffffffffffffffffffffffffffffffffffffffffff8214156200092d576200092c620008bb565b5b600182019050919050565b7f4e487b7100000000000000000000000000000000000000000000000000000000600052602260045260246000fd5b600060028204905060018216806200098057607f821691505b6020821081141562000997576200099662000938565b5b50919050565b60805160a05160c05160e051610100516101205161014051614e9462000a066000396000818161178701528181611f7f0152612044015260006122cc0152600061230e015260006122ed0152600061222201526000612278015260006122a10152614e946000f3fe60806040526004361061021e5760003560e01c806376e9255911610123578063b58131b0116100ab578063dd4e2ba51161006f578063dd4e2ba5146108ec578063deaaa7cc14610917578063eb9019d414610942578063f8ce560a1461097f578063fc0c546a146109bc57610264565b8063b58131b0146107f3578063c01f9e371461081e578063c59057e41461085b578063ca6d56dc14610898578063d33219b4146108c157610264565b806397c3d334116100f257806397c3d3341461070c578063a7713a7014610737578063a78d80fc14610762578063a890c9101461078d578063ab58fb8e146107b657610264565b806376e925591461063c5780637b3c71d3146106675780637d5e81e2146106a45780638b02dbde146106e157610264565b80633932abb1116101a65780634385963211610175578063438596321461051b578063544ffc9c1461055857806354fd4d501461059757806356781388146105c25780635daf08ca146105ff57610264565b80633932abb11461044b5780633bccf4fd146104765780633e4f49e6146104b357806342024c2b146104f057610264565b806306fdde03116101ed57806306fdde0314610339578063160cbed7146103645780632656227d146103a1578063280e25fa146103d15780632d63f6931461040e57610264565b8063013cf08b1461026957806301ffc9a7146102a857806302a251a3146102e557806306f3f9e61461031057610264565b36610264573073ffffffffffffffffffffffffffffffffffffffff166102426109e7565b73ffffffffffffffffffffffffffffffffffffffff161461026257600080fd5b005b600080fd5b34801561027557600080fd5b50610290600480360381019061028b9190612d19565b6109f6565b60405161029f93929190612e2f565b60405180910390f35b3480156102b457600080fd5b506102cf60048036038101906102ca9190612ec5565b610ac8565b6040516102dc9190612f0d565b60405180910390f35b3480156102f157600080fd5b506102fa610ada565b6040516103079190612f28565b60405180910390f35b34801561031c57600080fd5b5061033760048036038101906103329190612d19565b610ae4565b005b34801561034557600080fd5b5061034e610b6c565b60405161035b9190612f43565b60405180910390f35b34801561037057600080fd5b5061038b60048036038101906103869190613368565b610bfe565b6040516103989190612f28565b60405180910390f35b6103bb60048036038101906103b69190613368565b610ed6565b6040516103c89190612f28565b60405180910390f35b3480156103dd57600080fd5b506103f860048036038101906103f391906134c4565b611009565b6040516104059190612f28565b60405180910390f35b34801561041a57600080fd5b5061043560048036038101906104309190612d19565b6110f5565b6040516104429190612f28565b60405180910390f35b34801561045757600080fd5b50610460611163565b60405161046d9190612f28565b60405180910390f35b34801561048257600080fd5b5061049d600480360381019061049891906135d4565b61116d565b6040516104aa9190612f28565b60405180910390f35b3480156104bf57600080fd5b506104da60048036038101906104d59190612d19565b6111f7565b6040516104e791906136c6565b60405180910390f35b3480156104fc57600080fd5b50610505611209565b6040516105129190612f28565b60405180910390f35b34801561052757600080fd5b50610542600480360381019061053d91906136e1565b61120f565b60405161054f9190612f0d565b60405180910390f35b34801561056457600080fd5b5061057f600480360381019061057a9190612d19565b61127a565b60405161058e93929190613721565b60405180910390f35b3480156105a357600080fd5b506105ac6112b2565b6040516105b99190612f43565b60405180910390f35b3480156105ce57600080fd5b506105e960048036038101906105e49190613758565b6112ef565b6040516105f69190612f28565b60405180910390f35b34801561060b57600080fd5b5061062660048036038101906106219190612d19565b611320565b6040516106339190613798565b60405180910390f35b34801561064857600080fd5b50610651611353565b60405161065e9190612f28565b60405180910390f35b34801561067357600080fd5b5061068e6004803603810190610689919061380e565b611359565b60405161069b9190612f28565b60405180910390f35b3480156106b057600080fd5b506106cb60048036038101906106c691906134c4565b6113c1565b6040516106d89190612f28565b60405180910390f35b3480156106ed57600080fd5b506106f66113d9565b6040516107039190612f28565b60405180910390f35b34801561071857600080fd5b506107216113df565b60405161072e9190612f28565b60405180910390f35b34801561074357600080fd5b5061074c6113e8565b6040516107599190612f28565b60405180910390f35b34801561076e57600080fd5b506107776113f2565b6040516107849190612f28565b60405180910390f35b34801561079957600080fd5b506107b460048036038101906107af91906138d2565b6113f8565b005b3480156107c257600080fd5b506107dd60048036038101906107d89190612d19565b611480565b6040516107ea9190612f28565b60405180910390f35b3480156107ff57600080fd5b5061080861155c565b6040516108159190612f28565b60405180910390f35b34801561082a57600080fd5b5061084560048036038101906108409190612d19565b611561565b6040516108529190612f28565b60405180910390f35b34801561086757600080fd5b50610882600480360381019061087d9190613368565b6115cf565b60405161088f9190612f28565b60405180910390f35b3480156108a457600080fd5b506108bf60048036038101906108ba91906138ff565b61160b565b005b3480156108cd57600080fd5b506108d66116d4565b6040516108e39190613798565b60405180910390f35b3480156108f857600080fd5b506109016116fe565b60405161090e9190612f43565b60405180910390f35b34801561092357600080fd5b5061092c61173b565b604051610939919061393b565b60405180910390f35b34801561094e57600080fd5b5061096960048036038101906109649190613956565b61175f565b6040516109769190612f28565b60405180910390f35b34801561098b57600080fd5b506109a660048036038101906109a19190612d19565b611773565b6040516109b39190612f28565b60405180910390f35b3480156109c857600080fd5b506109d1611785565b6040516109de91906139f5565b60405180910390f35b60006109f16117a9565b905090565b600c602052806000526040600020600091509050806000015490806001018054610a1f90613a3f565b80601f0160208091040260200160405190810160405280929190818152602001828054610a4b90613a3f565b8015610a985780601f10610a6d57610100808354040283529160200191610a98565b820191906000526020600020905b815481529060010190602001808311610a7b57829003601f168201915b5050505050908060020160009054906101000a900473ffffffffffffffffffffffffffffffffffffffff16905083565b6000610ad3826117d3565b9050919050565b6000600854905090565b610aec6109e7565b73ffffffffffffffffffffffffffffffffffffffff16610b0a61184d565b73ffffffffffffffffffffffffffffffffffffffff1614610b60576040517f08c379a0000000000000000000000000000000000000000000000000000000008152600401610b5790613abd565b60405180910390fd5b610b6981611855565b50565b606060008054610b7b90613a3f565b80601f0160208091040260200160405190810160405280929190818152602001828054610ba790613a3f565b8015610bf45780601f10610bc957610100808354040283529160200191610bf4565b820191906000526020600020905b815481529060010190602001808311610bd757829003601f168201915b5050505050905090565b600080610c0d868686866115cf565b905060046007811115610c2357610c2261364f565b5b610c2c826111f7565b6007811115610c3e57610c3d61364f565b5b14610c7e576040517f08c379a0000000000000000000000000000000000000000000000000000000008152600401610c7590613b4f565b60405180910390fd5b6000600460009054906101000a900473ffffffffffffffffffffffffffffffffffffffff1673ffffffffffffffffffffffffffffffffffffffff1663f27a0c926040518163ffffffff1660e01b815260040160206040518083038186803b158015610ce857600080fd5b505afa158015610cfc573d6000803e3d6000fd5b505050506040513d601f19601f82011682018060405250810190610d209190613b84565b9050600460009054906101000a900473ffffffffffffffffffffffffffffffffffffffff1673ffffffffffffffffffffffffffffffffffffffff1663b1c5f4278888886000896040518663ffffffff1660e01b8152600401610d86959493929190613e8c565b60206040518083038186803b158015610d9e57600080fd5b505afa158015610db2573d6000803e3d6000fd5b505050506040513d601f19601f82011682018060405250810190610dd69190613f09565b6005600084815260200190815260200160002081905550600460009054906101000a900473ffffffffffffffffffffffffffffffffffffffff1673ffffffffffffffffffffffffffffffffffffffff16638f2a0bb0888888600089876040518763ffffffff1660e01b8152600401610e5396959493929190613f36565b600060405180830381600087803b158015610e6d57600080fd5b505af1158015610e81573d6000803e3d6000fd5b505050507f9a2e42fd6722813d69113e7d0079d3d940171428df7373df9c7f7617cfda2892828242610eb39190613fdb565b604051610ec1929190614031565b60405180910390a18192505050949350505050565b600080610ee5868686866115cf565b90506000610ef2826111f7565b905060046007811115610f0857610f0761364f565b5b816007811115610f1b57610f1a61364f565b5b1480610f4b575060056007811115610f3657610f3561364f565b5b816007811115610f4957610f4861364f565b5b145b610f8a576040517f08c379a0000000000000000000000000000000000000000000000000000000008152600401610f8190613b4f565b60405180910390fd5b600180600084815260200190815260200160002060020160006101000a81548160ff0219169083151502179055507f712ae1383f79ac853f8d882153778e0260ef8f03b504e2866e0593e04d2b291f82604051610fe79190612f28565b60405180910390a1610ffc82888888886118ea565b8192505050949350505050565b600080611018868686866113c1565b9050600a600081548092919061102d9061405a565b919050555060405180606001604052808281526020018481526020013373ffffffffffffffffffffffffffffffffffffffff16815250600c6000600a54815260200190815260200160002060008201518160000155602082015181600101908051906020019061109e929190612c2c565b5060408201518160020160006101000a81548173ffffffffffffffffffffffffffffffffffffffff021916908373ffffffffffffffffffffffffffffffffffffffff16021790555090505080915050949350505050565b6000611152600160008481526020019081526020016000206000016040518060200160405290816000820160009054906101000a900467ffffffffffffffff1667ffffffffffffffff1667ffffffffffffffff16815250506118fe565b67ffffffffffffffff169050919050565b6000600754905090565b6000806111ce6111c67f150214d74d59b7d1e90c73fc22ef3d991dd0a76b046543d4d80ab92d2a50328f89896040516020016111ab939291906140b2565b6040516020818303038152906040528051906020012061190c565b868686611926565b90506111eb87828860405180602001604052806000815250611951565b91505095945050505050565b600061120282611aa5565b9050919050565b60085481565b60006002600084815260200190815260200160002060030160008373ffffffffffffffffffffffffffffffffffffffff1673ffffffffffffffffffffffffffffffffffffffff16815260200190815260200160002060009054906101000a900460ff16905092915050565b600080600080600260008681526020019081526020016000209050806000015481600101548260020154935093509350509193909250565b60606040518060400160405280600181526020017f3100000000000000000000000000000000000000000000000000000000000000815250905090565b6000806112fa61184d565b905061131784828560405180602001604052806000815250611951565b91505092915050565b600b6020528060005260406000206000915054906101000a900473ffffffffffffffffffffffffffffffffffffffff1681565b60095481565b60008061136461184d565b90506113b686828787878080601f016020809104026020016040519081016040528093929190818152602001838380828437600081840152601f19601f82011690508083019250505050505050611951565b915050949350505050565b60006113cf85858585611bdc565b9050949350505050565b60075481565b60006064905090565b6000600354905090565b600a5481565b6114006109e7565b73ffffffffffffffffffffffffffffffffffffffff1661141e61184d565b73ffffffffffffffffffffffffffffffffffffffff1614611474576040517f08c379a000000000000000000000000000000000000000000000000000000000815260040161146b90613abd565b60405180910390fd5b61147d81611edc565b50565b600080600460009054906101000a900473ffffffffffffffffffffffffffffffffffffffff1673ffffffffffffffffffffffffffffffffffffffff1663d45c443560056000868152602001908152602001600020546040518263ffffffff1660e01b81526004016114f1919061393b565b60206040518083038186803b15801561150957600080fd5b505afa15801561151d573d6000803e3d6000fd5b505050506040513d601f19601f820116820180604052508101906115419190613b84565b9050600181146115515780611554565b60005b915050919050565b600090565b60006115be600160008481526020019081526020016000206001016040518060200160405290816000820160009054906101000a900467ffffffffffffffff1667ffffffffffffffff1667ffffffffffffffff16815250506118fe565b67ffffffffffffffff169050919050565b6000848484846040516020016115e894939291906140e9565b6040516020818303038152906040528051906020012060001c9050949350505050565b3373ffffffffffffffffffffffffffffffffffffffff16600660009054906101000a900473ffffffffffffffffffffffffffffffffffffffff1673ffffffffffffffffffffffffffffffffffffffff161461166557600080fd5b600960008154809291906116789061405a565b919050555080600b6000600954815260200190815260200160002060006101000a81548173ffffffffffffffffffffffffffffffffffffffff021916908373ffffffffffffffffffffffffffffffffffffffff16021790555050565b6000600460009054906101000a900473ffffffffffffffffffffffffffffffffffffffff16905090565b60606040518060400160405280602081526020017f737570706f72743d627261766f2671756f72756d3d666f722c6162737461696e815250905090565b7f150214d74d59b7d1e90c73fc22ef3d991dd0a76b046543d4d80ab92d2a50328f81565b600061176b8383611f7b565b905092915050565b600061177e82612030565b9050919050565b7f000000000000000000000000000000000000000000000000000000000000000081565b6000600460009054906101000a900473ffffffffffffffffffffffffffffffffffffffff16905090565b60007f6e665ced000000000000000000000000000000000000000000000000000000007bffffffffffffffffffffffffffffffffffffffffffffffffffffffff1916827bffffffffffffffffffffffffffffffffffffffffffffffffffffffff19161480611846575061184582612106565b5b9050919050565b600033905090565b61185d6113df565b81111561189f576040517f08c379a0000000000000000000000000000000000000000000000000000000008152600401611896906141db565b60405180910390fd5b60006003549050816003819055507f0553476bf02ef2726e8ce5ced78d63e26e602e4a2257b1f559418e24b463399781836040516118de929190614031565b60405180910390a15050565b6118f78585858585612180565b5050505050565b600081600001519050919050565b600061191f61191961221e565b83612338565b9050919050565b60008060006119378787878761236b565b9150915061194481612478565b8192505050949350505050565b6000806001600087815260200190815260200160002090506001600781111561197d5761197c61364f565b5b611986876111f7565b60078111156119985761199761364f565b5b146119d8576040517f08c379a00000000000000000000000000000000000000000000000000000000081526004016119cf9061426d565b60405180910390fd5b6000611a3686611a27846000016040518060200160405290816000820160009054906101000a900467ffffffffffffffff1667ffffffffffffffff1667ffffffffffffffff16815250506118fe565b67ffffffffffffffff1661175f565b9050611a448787878461264d565b8573ffffffffffffffffffffffffffffffffffffffff167fb8e138887d0aa13bab447e82de9d5c1777041ecd21ca36ba824ff1e6c07ddda488878488604051611a90949392919061428d565b60405180910390a28092505050949350505050565b600080611ab183612853565b905060046007811115611ac757611ac661364f565b5b816007811115611ada57611ad961364f565b5b14611ae85780915050611bd7565b6000600560008581526020019081526020016000205490506000801b811415611b15578192505050611bd7565b600460009054906101000a900473ffffffffffffffffffffffffffffffffffffffff1673ffffffffffffffffffffffffffffffffffffffff16632ab0f529826040518263ffffffff1660e01b8152600401611b70919061393b565b60206040518083038186803b158015611b8857600080fd5b505afa158015611b9c573d6000803e3d6000fd5b505050506040513d601f19601f82011682018060405250810190611bc09190614305565b15611bd057600792505050611bd7565b6005925050505b919050565b6000611be661155c565b611bfc33600143611bf79190614332565b61175f565b1015611c3d576040517f08c379a0000000000000000000000000000000000000000000000000000000008152600401611c34906143fe565b60405180910390fd5b6000611c5286868686805190602001206115cf565b90508451865114611c98576040517f08c379a0000000000000000000000000000000000000000000000000000000008152600401611c8f90614490565b60405180910390fd5b8351865114611cdc576040517f08c379a0000000000000000000000000000000000000000000000000000000008152600401611cd390614490565b60405180910390fd5b6000865111611d20576040517f08c379a0000000000000000000000000000000000000000000000000000000008152600401611d17906144fc565b60405180910390fd5b6000600160008381526020019081526020016000209050611d80816000016040518060200160405290816000820160009054906101000a900467ffffffffffffffff1667ffffffffffffffff1667ffffffffffffffff1681525050612a30565b611dbf576040517f08c379a0000000000000000000000000000000000000000000000000000000008152600401611db69061458e565b60405180910390fd5b6000611dd1611dcc611163565b612a4a565b611dda43612a4a565b611de491906145c2565b90506000611df8611df3610ada565b612a4a565b82611e0391906145c2565b9050611e1b8284600001612aa190919063ffffffff16565b611e318184600101612aa190919063ffffffff16565b7f7d84a6263ae0d98d3329bd7b46bb4e8d6f98cd35a7adb45c274c8b7fd5ebd5e084611e5b61184d565b8b8b8d5167ffffffffffffffff811115611e7857611e77612f6a565b5b604051908082528060200260200182016040528015611eab57816020015b6060815260200190600190039081611e965790505b508c88888e604051611ec59998979695949392919061473d565b60405180910390a183945050505050949350505050565b7f08f74ea46ef7894f65eabfb5e6e695de773a000b47c529ab559178069b226401600460009054906101000a900473ffffffffffffffffffffffffffffffffffffffff1682604051611f2f9291906147ed565b60405180910390a180600460006101000a81548173ffffffffffffffffffffffffffffffffffffffff021916908373ffffffffffffffffffffffffffffffffffffffff16021790555050565b60007f000000000000000000000000000000000000000000000000000000000000000073ffffffffffffffffffffffffffffffffffffffff16633a46b1a884846040518363ffffffff1660e01b8152600401611fd8929190614816565b60206040518083038186803b158015611ff057600080fd5b505afa158015612004573d6000803e3d6000fd5b505050506040513d601f19601f820116820180604052508101906120289190613b84565b905092915050565b600061203a6113df565b6120426113e8565b7f000000000000000000000000000000000000000000000000000000000000000073ffffffffffffffffffffffffffffffffffffffff16638e539e8c856040518263ffffffff1660e01b815260040161209b9190612f28565b60206040518083038186803b1580156120b357600080fd5b505afa1580156120c7573d6000803e3d6000fd5b505050506040513d601f19601f820116820180604052508101906120eb9190613b84565b6120f5919061483f565b6120ff91906148c8565b9050919050565b60007fbf26d897000000000000000000000000000000000000000000000000000000007bffffffffffffffffffffffffffffffffffffffffffffffffffffffff1916827bffffffffffffffffffffffffffffffffffffffffffffffffffffffff19161480612179575061217882612ad0565b5b9050919050565b600460009054906101000a900473ffffffffffffffffffffffffffffffffffffffff1673ffffffffffffffffffffffffffffffffffffffff1663e38335e5348686866000876040518763ffffffff1660e01b81526004016121e5959493929190613e8c565b6000604051808303818588803b1580156121fe57600080fd5b505af1158015612212573d6000803e3d6000fd5b50505050505050505050565b60007f000000000000000000000000000000000000000000000000000000000000000073ffffffffffffffffffffffffffffffffffffffff163073ffffffffffffffffffffffffffffffffffffffff1614801561229a57507f000000000000000000000000000000000000000000000000000000000000000046145b156122c7577f00000000000000000000000000000000000000000000000000000000000000009050612335565b6123327f00000000000000000000000000000000000000000000000000000000000000007f00000000000000000000000000000000000000000000000000000000000000007f0000000000000000000000000000000000000000000000000000000000000000612b3a565b90505b90565b6000828260405160200161234d929190614971565b60405160208183030381529060405280519060200120905092915050565b6000807f7fffffffffffffffffffffffffffffff5d576e7357a4501ddfe92f46681b20a08360001c11156123a657600060039150915061246f565b601b8560ff16141580156123be5750601c8560ff1614155b156123d057600060049150915061246f565b6000600187878787604051600081526020016040526040516123f594939291906149a8565b6020604051602081039080840390855afa158015612417573d6000803e3d6000fd5b505050602060405103519050600073ffffffffffffffffffffffffffffffffffffffff168173ffffffffffffffffffffffffffffffffffffffff1614156124665760006001925092505061246f565b80600092509250505b94509492505050565b6000600481111561248c5761248b61364f565b5b81600481111561249f5761249e61364f565b5b14156124aa5761264a565b600160048111156124be576124bd61364f565b5b8160048111156124d1576124d061364f565b5b1415612512576040517f08c379a000000000000000000000000000000000000000000000000000000000815260040161250990614a39565b60405180910390fd5b600260048111156125265761252561364f565b5b8160048111156125395761253861364f565b5b141561257a576040517f08c379a000000000000000000000000000000000000000000000000000000000815260040161257190614aa5565b60405180910390fd5b6003600481111561258e5761258d61364f565b5b8160048111156125a1576125a061364f565b5b14156125e2576040517f08c379a00000000000000000000000000000000000000000000000000000000081526004016125d990614b37565b60405180910390fd5b6004808111156125f5576125f461364f565b5b8160048111156126085761260761364f565b5b1415612649576040517f08c379a000000000000000000000000000000000000000000000000000000000815260040161264090614bc9565b60405180910390fd5b5b50565b60006002600086815260200190815260200160002090508060030160008573ffffffffffffffffffffffffffffffffffffffff1673ffffffffffffffffffffffffffffffffffffffff16815260200190815260200160002060009054906101000a900460ff16156126f3576040517f08c379a00000000000000000000000000000000000000000000000000000000081526004016126ea90614c5b565b60405180910390fd5b60018160030160008673ffffffffffffffffffffffffffffffffffffffff1673ffffffffffffffffffffffffffffffffffffffff16815260200190815260200160002060006101000a81548160ff021916908315150217905550600060028111156127615761276061364f565b5b60ff168360ff16141561278e57818160000160008282546127829190613fdb565b9250508190555061284c565b600160028111156127a2576127a161364f565b5b60ff168360ff1614156127cf57818160010160008282546127c39190613fdb565b9250508190555061284b565b6002808111156127e2576127e161364f565b5b60ff168360ff16141561280f57818160020160008282546128039190613fdb565b9250508190555061284a565b6040517f08c379a000000000000000000000000000000000000000000000000000000000815260040161284190614ced565b60405180910390fd5b5b5b5050505050565b60008060016000848152602001908152602001600020604051806080016040529081600082016040518060200160405290816000820160009054906101000a900467ffffffffffffffff1667ffffffffffffffff1667ffffffffffffffff16815250508152602001600182016040518060200160405290816000820160009054906101000a900467ffffffffffffffff1667ffffffffffffffff1667ffffffffffffffff168152505081526020016002820160009054906101000a900460ff161515151581526020016002820160019054906101000a900460ff161515151581525050905080604001511561294c576007915050612a2b565b806060015115612960576002915050612a2b565b4361296e82600001516118fe565b67ffffffffffffffff1610612987576000915050612a2b565b4361299582602001516118fe565b67ffffffffffffffff16106129ae576001915050612a2b565b6129bb8160200151612b74565b156129f0576129c983612ba0565b80156129da57506129d983612be7565b5b6129e55760036129e8565b60045b915050612a2b565b6040517f08c379a0000000000000000000000000000000000000000000000000000000008152600401612a2290614d59565b60405180910390fd5b919050565b600080826000015167ffffffffffffffff16149050919050565b600067ffffffffffffffff8016821115612a99576040517f08c379a0000000000000000000000000000000000000000000000000000000008152600401612a9090614deb565b60405180910390fd5b819050919050565b808260000160006101000a81548167ffffffffffffffff021916908367ffffffffffffffff1602179055505050565b60007f01ffc9a7000000000000000000000000000000000000000000000000000000007bffffffffffffffffffffffffffffffffffffffffffffffffffffffff1916827bffffffffffffffffffffffffffffffffffffffffffffffffffffffff1916149050919050565b60008383834630604051602001612b55959493929190614e0b565b6040516020818303038152906040528051906020012090509392505050565b6000612b7f82612c12565b8015612b99575043826000015167ffffffffffffffff1611155b9050919050565b60008060026000848152602001908152602001600020905080600201548160010154612bcc9190613fdb565b612bdd612bd8856110f5565b611773565b1115915050919050565b6000806002600084815260200190815260200160002090508060000154816001015411915050919050565b600080826000015167ffffffffffffffff16119050919050565b828054612c3890613a3f565b90600052602060002090601f016020900481019282612c5a5760008555612ca1565b82601f10612c7357805160ff1916838001178555612ca1565b82800160010185558215612ca1579182015b82811115612ca0578251825591602001919060010190612c85565b5b509050612cae9190612cb2565b5090565b5b80821115612ccb576000816000905550600101612cb3565b5090565b6000604051905090565b600080fd5b600080fd5b6000819050919050565b612cf681612ce3565b8114612d0157600080fd5b50565b600081359050612d1381612ced565b92915050565b600060208284031215612d2f57612d2e612cd9565b5b6000612d3d84828501612d04565b91505092915050565b612d4f81612ce3565b82525050565b600081519050919050565b600082825260208201905092915050565b60005b83811015612d8f578082015181840152602081019050612d74565b83811115612d9e576000848401525b50505050565b6000601f19601f8301169050919050565b6000612dc082612d55565b612dca8185612d60565b9350612dda818560208601612d71565b612de381612da4565b840191505092915050565b600073ffffffffffffffffffffffffffffffffffffffff82169050919050565b6000612e1982612dee565b9050919050565b612e2981612e0e565b82525050565b6000606082019050612e446000830186612d46565b8181036020830152612e568185612db5565b9050612e656040830184612e20565b949350505050565b60007fffffffff0000000000000000000000000000000000000000000000000000000082169050919050565b612ea281612e6d565b8114612ead57600080fd5b50565b600081359050612ebf81612e99565b92915050565b600060208284031215612edb57612eda612cd9565b5b6000612ee984828501612eb0565b91505092915050565b60008115159050919050565b612f0781612ef2565b82525050565b6000602082019050612f226000830184612efe565b92915050565b6000602082019050612f3d6000830184612d46565b92915050565b60006020820190508181036000830152612f5d8184612db5565b905092915050565b600080fd5b7f4e487b7100000000000000000000000000000000000000000000000000000000600052604160045260246000fd5b612fa282612da4565b810181811067ffffffffffffffff82111715612fc157612fc0612f6a565b5b80604052505050565b6000612fd4612ccf565b9050612fe08282612f99565b919050565b600067ffffffffffffffff82111561300057612fff612f6a565b5b602082029050602081019050919050565b600080fd5b61301f81612e0e565b811461302a57600080fd5b50565b60008135905061303c81613016565b92915050565b600061305561305084612fe5565b612fca565b9050808382526020820190506020840283018581111561307857613077613011565b5b835b818110156130a1578061308d888261302d565b84526020840193505060208101905061307a565b5050509392505050565b600082601f8301126130c0576130bf612f65565b5b81356130d0848260208601613042565b91505092915050565b600067ffffffffffffffff8211156130f4576130f3612f6a565b5b602082029050602081019050919050565b6000613118613113846130d9565b612fca565b9050808382526020820190506020840283018581111561313b5761313a613011565b5b835b8181101561316457806131508882612d04565b84526020840193505060208101905061313d565b5050509392505050565b600082601f83011261318357613182612f65565b5b8135613193848260208601613105565b91505092915050565b600067ffffffffffffffff8211156131b7576131b6612f6a565b5b602082029050602081019050919050565b600080fd5b600067ffffffffffffffff8211156131e8576131e7612f6a565b5b6131f182612da4565b9050602081019050919050565b82818337600083830152505050565b600061322061321b846131cd565b612fca565b90508281526020810184848401111561323c5761323b6131c8565b5b6132478482856131fe565b509392505050565b600082601f83011261326457613263612f65565b5b813561327484826020860161320d565b91505092915050565b600061329061328b8461319c565b612fca565b905080838252602082019050602084028301858111156132b3576132b2613011565b5b835b818110156132fa57803567ffffffffffffffff8111156132d8576132d7612f65565b5b8086016132e5898261324f565b855260208501945050506020810190506132b5565b5050509392505050565b600082601f83011261331957613318612f65565b5b813561332984826020860161327d565b91505092915050565b6000819050919050565b61334581613332565b811461335057600080fd5b50565b6000813590506133628161333c565b92915050565b6000806000806080858703121561338257613381612cd9565b5b600085013567ffffffffffffffff8111156133a05761339f612cde565b5b6133ac878288016130ab565b945050602085013567ffffffffffffffff8111156133cd576133cc612cde565b5b6133d98782880161316e565b935050604085013567ffffffffffffffff8111156133fa576133f9612cde565b5b61340687828801613304565b925050606061341787828801613353565b91505092959194509250565b600067ffffffffffffffff82111561343e5761343d612f6a565b5b61344782612da4565b9050602081019050919050565b600061346761346284613423565b612fca565b905082815260208101848484011115613483576134826131c8565b5b61348e8482856131fe565b509392505050565b600082601f8301126134ab576134aa612f65565b5b81356134bb848260208601613454565b91505092915050565b600080600080608085870312156134de576134dd612cd9565b5b600085013567ffffffffffffffff8111156134fc576134fb612cde565b5b613508878288016130ab565b945050602085013567ffffffffffffffff81111561352957613528612cde565b5b6135358782880161316e565b935050604085013567ffffffffffffffff81111561355657613555612cde565b5b61356287828801613304565b925050606085013567ffffffffffffffff81111561358357613582612cde565b5b61358f87828801613496565b91505092959194509250565b600060ff82169050919050565b6135b18161359b565b81146135bc57600080fd5b50565b6000813590506135ce816135a8565b92915050565b600080600080600060a086880312156135f0576135ef612cd9565b5b60006135fe88828901612d04565b955050602061360f888289016135bf565b9450506040613620888289016135bf565b935050606061363188828901613353565b925050608061364288828901613353565b9150509295509295909350565b7f4e487b7100000000000000000000000000000000000000000000000000000000600052602160045260246000fd5b6008811061368f5761368e61364f565b5b50565b60008190506136a08261367e565b919050565b60006136b082613692565b9050919050565b6136c0816136a5565b82525050565b60006020820190506136db60008301846136b7565b92915050565b600080604083850312156136f8576136f7612cd9565b5b600061370685828601612d04565b92505060206137178582860161302d565b9150509250929050565b60006060820190506137366000830186612d46565b6137436020830185612d46565b6137506040830184612d46565b949350505050565b6000806040838503121561376f5761376e612cd9565b5b600061377d85828601612d04565b925050602061378e858286016135bf565b9150509250929050565b60006020820190506137ad6000830184612e20565b92915050565b600080fd5b60008083601f8401126137ce576137cd612f65565b5b8235905067ffffffffffffffff8111156137eb576137ea6137b3565b5b60208301915083600182028301111561380757613806613011565b5b9250929050565b6000806000806060858703121561382857613827612cd9565b5b600061383687828801612d04565b9450506020613847878288016135bf565b935050604085013567ffffffffffffffff81111561386857613867612cde565b5b613874878288016137b8565b925092505092959194509250565b600061388d82612dee565b9050919050565b600061389f82613882565b9050919050565b6138af81613894565b81146138ba57600080fd5b50565b6000813590506138cc816138a6565b92915050565b6000602082840312156138e8576138e7612cd9565b5b60006138f6848285016138bd565b91505092915050565b60006020828403121561391557613914612cd9565b5b60006139238482850161302d565b91505092915050565b61393581613332565b82525050565b6000602082019050613950600083018461392c565b92915050565b6000806040838503121561396d5761396c612cd9565b5b600061397b8582860161302d565b925050602061398c85828601612d04565b9150509250929050565b6000819050919050565b60006139bb6139b66139b184612dee565b613996565b612dee565b9050919050565b60006139cd826139a0565b9050919050565b60006139df826139c2565b9050919050565b6139ef816139d4565b82525050565b6000602082019050613a0a60008301846139e6565b92915050565b7f4e487b7100000000000000000000000000000000000000000000000000000000600052602260045260246000fd5b60006002820490506001821680613a5757607f821691505b60208210811415613a6b57613a6a613a10565b5b50919050565b7f476f7665726e6f723a206f6e6c79476f7665726e616e63650000000000000000600082015250565b6000613aa7601883612d60565b9150613ab282613a71565b602082019050919050565b60006020820190508181036000830152613ad681613a9a565b9050919050565b7f476f7665726e6f723a2070726f706f73616c206e6f742073756363657373667560008201527f6c00000000000000000000000000000000000000000000000000000000000000602082015250565b6000613b39602183612d60565b9150613b4482613add565b604082019050919050565b60006020820190508181036000830152613b6881613b2c565b9050919050565b600081519050613b7e81612ced565b92915050565b600060208284031215613b9a57613b99612cd9565b5b6000613ba884828501613b6f565b91505092915050565b600081519050919050565b600082825260208201905092915050565b6000819050602082019050919050565b613be681612e0e565b82525050565b6000613bf88383613bdd565b60208301905092915050565b6000602082019050919050565b6000613c1c82613bb1565b613c268185613bbc565b9350613c3183613bcd565b8060005b83811015613c62578151613c498882613bec565b9750613c5483613c04565b925050600181019050613c35565b5085935050505092915050565b600081519050919050565b600082825260208201905092915050565b6000819050602082019050919050565b613ca481612ce3565b82525050565b6000613cb68383613c9b565b60208301905092915050565b6000602082019050919050565b6000613cda82613c6f565b613ce48185613c7a565b9350613cef83613c8b565b8060005b83811015613d20578151613d078882613caa565b9750613d1283613cc2565b925050600181019050613cf3565b5085935050505092915050565b600081519050919050565b600082825260208201905092915050565b6000819050602082019050919050565b600081519050919050565b600082825260208201905092915050565b6000613d8082613d59565b613d8a8185613d64565b9350613d9a818560208601612d71565b613da381612da4565b840191505092915050565b6000613dba8383613d75565b905092915050565b6000602082019050919050565b6000613dda82613d2d565b613de48185613d38565b935083602082028501613df685613d49565b8060005b85811015613e325784840389528151613e138582613dae565b9450613e1e83613dc2565b925060208a01995050600181019050613dfa565b50829750879550505050505092915050565b6000819050919050565b60008160001b9050919050565b6000613e76613e71613e6c84613e44565b613e4e565b613332565b9050919050565b613e8681613e5b565b82525050565b600060a0820190508181036000830152613ea68188613c11565b90508181036020830152613eba8187613ccf565b90508181036040830152613ece8186613dcf565b9050613edd6060830185613e7d565b613eea608083018461392c565b9695505050505050565b600081519050613f038161333c565b92915050565b600060208284031215613f1f57613f1e612cd9565b5b6000613f2d84828501613ef4565b91505092915050565b600060c0820190508181036000830152613f508189613c11565b90508181036020830152613f648188613ccf565b90508181036040830152613f788187613dcf565b9050613f876060830186613e7d565b613f94608083018561392c565b613fa160a0830184612d46565b979650505050505050565b7f4e487b7100000000000000000000000000000000000000000000000000000000600052601160045260246000fd5b6000613fe682612ce3565b9150613ff183612ce3565b9250827fffffffffffffffffffffffffffffffffffffffffffffffffffffffffffffffff0382111561402657614025613fac565b5b828201905092915050565b60006040820190506140466000830185612d46565b6140536020830184612d46565b9392505050565b600061406582612ce3565b91507fffffffffffffffffffffffffffffffffffffffffffffffffffffffffffffffff82141561409857614097613fac565b5b600182019050919050565b6140ac8161359b565b82525050565b60006060820190506140c7600083018661392c565b6140d46020830185612d46565b6140e160408301846140a3565b949350505050565b600060808201905081810360008301526141038187613c11565b905081810360208301526141178186613ccf565b9050818103604083015261412b8185613dcf565b905061413a606083018461392c565b95945050505050565b7f476f7665726e6f72566f74657351756f72756d4672616374696f6e3a2071756f60008201527f72756d4e756d657261746f72206f7665722071756f72756d44656e6f6d696e6160208201527f746f720000000000000000000000000000000000000000000000000000000000604082015250565b60006141c5604383612d60565b91506141d082614143565b606082019050919050565b600060208201905081810360008301526141f4816141b8565b9050919050565b7f476f7665726e6f723a20766f7465206e6f742063757272656e746c792061637460008201527f6976650000000000000000000000000000000000000000000000000000000000602082015250565b6000614257602383612d60565b9150614262826141fb565b604082019050919050565b600060208201905081810360008301526142868161424a565b9050919050565b60006080820190506142a26000830187612d46565b6142af60208301866140a3565b6142bc6040830185612d46565b81810360608301526142ce8184612db5565b905095945050505050565b6142e281612ef2565b81146142ed57600080fd5b50565b6000815190506142ff816142d9565b92915050565b60006020828403121561431b5761431a612cd9565b5b6000614329848285016142f0565b91505092915050565b600061433d82612ce3565b915061434883612ce3565b92508282101561435b5761435a613fac565b5b828203905092915050565b7f476f7665726e6f72436f6d7061746962696c697479427261766f3a2070726f7060008201527f6f73657220766f7465732062656c6f772070726f706f73616c2074687265736860208201527f6f6c640000000000000000000000000000000000000000000000000000000000604082015250565b60006143e8604383612d60565b91506143f382614366565b606082019050919050565b60006020820190508181036000830152614417816143db565b9050919050565b7f476f7665726e6f723a20696e76616c69642070726f706f73616c206c656e677460008201527f6800000000000000000000000000000000000000000000000000000000000000602082015250565b600061447a602183612d60565b91506144858261441e565b604082019050919050565b600060208201905081810360008301526144a98161446d565b9050919050565b7f476f7665726e6f723a20656d7074792070726f706f73616c0000000000000000600082015250565b60006144e6601883612d60565b91506144f1826144b0565b602082019050919050565b60006020820190508181036000830152614515816144d9565b9050919050565b7f476f7665726e6f723a2070726f706f73616c20616c726561647920657869737460008201527f7300000000000000000000000000000000000000000000000000000000000000602082015250565b6000614578602183612d60565b91506145838261451c565b604082019050919050565b600060208201905081810360008301526145a78161456b565b9050919050565b600067ffffffffffffffff82169050919050565b60006145cd826145ae565b91506145d8836145ae565b92508267ffffffffffffffff038211156145f5576145f4613fac565b5b828201905092915050565b600081519050919050565b600082825260208201905092915050565b6000819050602082019050919050565b600082825260208201905092915050565b600061464882612d55565b614652818561462c565b9350614662818560208601612d71565b61466b81612da4565b840191505092915050565b6000614682838361463d565b905092915050565b6000602082019050919050565b60006146a282614600565b6146ac818561460b565b9350836020820285016146be8561461c565b8060005b858110156146fa57848403895281516146db8582614676565b94506146e68361468a565b925060208a019950506001810190506146c2565b50829750879550505050505092915050565b600061472761472261471d846145ae565b613996565b612ce3565b9050919050565b6147378161470c565b82525050565b600061012082019050614753600083018c612d46565b614760602083018b612e20565b8181036040830152614772818a613c11565b905081810360608301526147868189613ccf565b9050818103608083015261479a8188614697565b905081810360a08301526147ae8187613dcf565b90506147bd60c083018661472e565b6147ca60e083018561472e565b8181036101008301526147dd8184612db5565b90509a9950505050505050505050565b60006040820190506148026000830185612e20565b61480f6020830184612e20565b9392505050565b600060408201905061482b6000830185612e20565b6148386020830184612d46565b9392505050565b600061484a82612ce3565b915061485583612ce3565b9250817fffffffffffffffffffffffffffffffffffffffffffffffffffffffffffffffff048311821515161561488e5761488d613fac565b5b828202905092915050565b7f4e487b7100000000000000000000000000000000000000000000000000000000600052601260045260246000fd5b60006148d382612ce3565b91506148de83612ce3565b9250826148ee576148ed614899565b5b828204905092915050565b600081905092915050565b7f1901000000000000000000000000000000000000000000000000000000000000600082015250565b600061493a6002836148f9565b915061494582614904565b600282019050919050565b6000819050919050565b61496b61496682613332565b614950565b82525050565b600061497c8261492d565b9150614988828561495a565b602082019150614998828461495a565b6020820191508190509392505050565b60006080820190506149bd600083018761392c565b6149ca60208301866140a3565b6149d7604083018561392c565b6149e4606083018461392c565b95945050505050565b7f45434453413a20696e76616c6964207369676e61747572650000000000000000600082015250565b6000614a23601883612d60565b9150614a2e826149ed565b602082019050919050565b60006020820190508181036000830152614a5281614a16565b9050919050565b7f45434453413a20696e76616c6964207369676e6174757265206c656e67746800600082015250565b6000614a8f601f83612d60565b9150614a9a82614a59565b602082019050919050565b60006020820190508181036000830152614abe81614a82565b9050919050565b7f45434453413a20696e76616c6964207369676e6174757265202773272076616c60008201527f7565000000000000000000000000000000000000000000000000000000000000602082015250565b6000614b21602283612d60565b9150614b2c82614ac5565b604082019050919050565b60006020820190508181036000830152614b5081614b14565b9050919050565b7f45434453413a20696e76616c6964207369676e6174757265202776272076616c60008201527f7565000000000000000000000000000000000000000000000000000000000000602082015250565b6000614bb3602283612d60565b9150614bbe82614b57565b604082019050919050565b60006020820190508181036000830152614be281614ba6565b9050919050565b7f476f7665726e6f72566f74696e6753696d706c653a20766f746520616c72656160008201527f6479206361737400000000000000000000000000000000000000000000000000602082015250565b6000614c45602783612d60565b9150614c5082614be9565b604082019050919050565b60006020820190508181036000830152614c7481614c38565b9050919050565b7f476f7665726e6f72566f74696e6753696d706c653a20696e76616c696420766160008201527f6c756520666f7220656e756d20566f7465547970650000000000000000000000602082015250565b6000614cd7603583612d60565b9150614ce282614c7b565b604082019050919050565b60006020820190508181036000830152614d0681614cca565b9050919050565b7f476f7665726e6f723a20756e6b6e6f776e2070726f706f73616c206964000000600082015250565b6000614d43601d83612d60565b9150614d4e82614d0d565b602082019050919050565b60006020820190508181036000830152614d7281614d36565b9050919050565b7f53616665436173743a2076616c756520646f65736e27742066697420696e203660008201527f3420626974730000000000000000000000000000000000000000000000000000602082015250565b6000614dd5602683612d60565b9150614de082614d79565b604082019050919050565b60006020820190508181036000830152614e0481614dc8565b9050919050565b600060a082019050614e20600083018861392c565b614e2d602083018761392c565b614e3a604083018661392c565b614e476060830185612d46565b614e546080830184612e20565b969550505050505056fea2646970667358221220c6fa89a507757afd3354681b71a93225b7cd7ba4288deac1aa190034c8c44bec64736f6c63430008090033",
  "immutableReferences": {
    "2826": [
      {
        "length": 32,
        "start": 6023
      },
      {
        "length": 32,
        "start": 8063
      },
      {
        "length": 32,
        "start": 8260
      }
    ],
    "5704": [
      {
        "length": 32,
        "start": 8865
      }
    ],
    "5706": [
      {
        "length": 32,
        "start": 8824
      }
    ],
    "5708": [
      {
        "length": 32,
        "start": 8738
      }
    ],
    "5710": [
      {
        "length": 32,
        "start": 8941
      }
    ],
    "5712": [
      {
        "length": 32,
        "start": 8974
      }
    ],
    "5714": [
      {
        "length": 32,
        "start": 8908
      }
    ]
  },
  "source": "// SPDX-License-Identifier: MIT\r\npragma solidity ^0.8.0;\r\n\r\nimport \"@openzeppelin/contracts/governance/Governor.sol\";\r\nimport \"@openzeppelin/contracts/governance/extensions/GovernorCountingSimple.sol\";\r\nimport \"@openzeppelin/contracts/governance/extensions/GovernorVotes.sol\";\r\nimport \"@openzeppelin/contracts/governance/extensions/GovernorVotesQuorumFraction.sol\";\r\nimport \"@openzeppelin/contracts/governance/extensions/GovernorTimelockControl.sol\";\r\n\r\n// NOTE: Contract created with the help of --> https://wizard.openzeppelin.com/#governor\r\n\r\ncontract Governance is\r\n    Governor,\r\n    GovernorCountingSimple,\r\n    GovernorVotes,\r\n    GovernorVotesQuorumFraction,\r\n    GovernorTimelockControl\r\n{\r\n    address owner;\r\n    uint256 public votingDelay_;\r\n    uint256 public votingPeriod_;\r\n\r\n    uint256 public totalMembers = 0;\r\n    uint256 public totalProposals = 0;\r\n    mapping(uint => address) public members;\r\n\r\n    struct Proposal {\r\n        uint256 id;\r\n        string description;\r\n        address creatorAddress;\r\n    }\r\n\r\n    mapping(uint => Proposal) public proposals;\r\n\r\n    modifier onlyOwner {\r\n        require(owner == msg.sender);\r\n        _;\r\n    }\r\n\r\n    constructor(\r\n        ERC20Votes _token,\r\n        TimelockController _timelock,\r\n        uint256 _quorum,\r\n        uint256 _votingDelay,\r\n        uint256 _votingPeriod\r\n    )\r\n        Governor(\"Builder DAO\")\r\n        GovernorVotes(_token)\r\n        GovernorVotesQuorumFraction(_quorum)\r\n        GovernorTimelockControl(_timelock)\r\n    {\r\n        votingDelay_ = _votingDelay;\r\n        votingPeriod_ = _votingPeriod;\r\n        owner = msg.sender;\r\n        addMember(msg.sender);\r\n    }\r\n\r\n    function votingDelay() public view override returns (uint256) {\r\n        return votingDelay_;\r\n    }\r\n\r\n    function votingPeriod() public view override returns (uint256) {\r\n        return votingPeriod_;\r\n    }\r\n\r\n    // The following functions are overrides required by Solidity.\r\n\r\n    function quorum(uint256 blockNumber)\r\n        public\r\n        view\r\n        override(IGovernor, GovernorVotesQuorumFraction)\r\n        returns (uint256)\r\n    {\r\n        return super.quorum(blockNumber);\r\n    }\r\n\r\n    function getVotes(address account, uint256 blockNumber)\r\n        public\r\n        view\r\n        override(IGovernor, GovernorVotes)\r\n        returns (uint256)\r\n    {\r\n        return super.getVotes(account, blockNumber);\r\n    }\r\n\r\n    function state(uint256 proposalId)\r\n        public\r\n        view\r\n        override(Governor, GovernorTimelockControl)\r\n        returns (ProposalState)\r\n    {\r\n        return super.state(proposalId);\r\n    }\r\n\r\n    function propose(\r\n        address[] memory targets,\r\n        uint256[] memory values,\r\n        bytes[] memory calldatas,\r\n        string memory description\r\n    ) public override(Governor, IGovernor) returns (uint256) {\r\n        return super.propose(targets, values, calldatas, description);\r\n    }\r\n\r\n    function createProposal(\r\n        address[] memory targets,\r\n        uint256[] memory values,\r\n        bytes[] memory calldatas,\r\n        string memory description\r\n    ) public returns (uint256) {\r\n        uint256 proposalId;\r\n        proposalId = propose(targets, values, calldatas, description);\r\n        totalProposals++;\r\n        proposals[totalProposals] = Proposal(proposalId, description, msg.sender);\r\n        return proposalId;\r\n    }\r\n\r\n    function _execute(\r\n        uint256 proposalId,\r\n        address[] memory targets,\r\n        uint256[] memory values,\r\n        bytes[] memory calldatas,\r\n        bytes32 descriptionHash\r\n    ) internal override(Governor, GovernorTimelockControl) {\r\n        super._execute(proposalId, targets, values, calldatas, descriptionHash);\r\n    }\r\n\r\n    function _cancel(\r\n        address[] memory targets,\r\n        uint256[] memory values,\r\n        bytes[] memory calldatas,\r\n        bytes32 descriptionHash\r\n    ) internal override(Governor, GovernorTimelockControl) returns (uint256) {\r\n        return super._cancel(targets, values, calldatas, descriptionHash);\r\n    }\r\n\r\n    function _executor()\r\n        internal\r\n        view\r\n        override(Governor, GovernorTimelockControl)\r\n        returns (address)\r\n    {\r\n        return super._executor();\r\n    }\r\n\r\n    function supportsInterface(bytes4 interfaceId)\r\n        public\r\n        view\r\n        override(Governor, GovernorTimelockControl)\r\n        returns (bool)\r\n    {\r\n        return super.supportsInterface(interfaceId);\r\n    }\r\n\r\n    function addMember(address _member) public onlyOwner {\r\n        totalMembers++;\r\n        members[totalMembers] = _member;\r\n    }\r\n}\r\n",
  "sourcePath": "D:\\Dev\\Elintegro\\Blockchain_Development\\Ethereum\\DAO\\governance\\contracts\\Governance.sol",
  "compiler": {
    "name": "solc",
    "version": "0.8.9+commit.e5eed63a.Emscripten.clang"
  },
  "schemaVersion": "3.4.9",
  "updatedAt": "2022-09-08T04:21:51.710Z",
  "networkType": "ethereum",
  "devdoc": {
    "kind": "dev",
    "methods": {
      "COUNTING_MODE()": {
        "details": "See {IGovernor-COUNTING_MODE}."
      },
      "castVote(uint256,uint8)": {
        "details": "See {IGovernor-castVote}."
      },
      "castVoteBySig(uint256,uint8,uint8,bytes32,bytes32)": {
        "details": "See {IGovernor-castVoteBySig}."
      },
      "castVoteWithReason(uint256,uint8,string)": {
        "details": "See {IGovernor-castVoteWithReason}."
      },
      "execute(address[],uint256[],bytes[],bytes32)": {
        "details": "See {IGovernor-execute}."
      },
      "hasVoted(uint256,address)": {
        "details": "See {IGovernor-hasVoted}."
      },
      "hashProposal(address[],uint256[],bytes[],bytes32)": {
        "details": "See {IGovernor-hashProposal}. The proposal id is produced by hashing the RLC encoded `targets` array, the `values` array, the `calldatas` array and the descriptionHash (bytes32 which itself is the keccak256 hash of the description string). This proposal id can be produced from the proposal data which is part of the {ProposalCreated} event. It can even be computed in advance, before the proposal is submitted. Note that the chainId and the governor address are not part of the proposal id computation. Consequently, the same proposal (with same operation and same description) will have the same id if submitted on multiple governors accross multiple networks. This also means that in order to execute the same operation twice (on the same governor) the proposer will have to change the description in order to avoid proposal id conflicts."
      },
      "name()": {
        "details": "See {IGovernor-name}."
      },
      "proposalDeadline(uint256)": {
        "details": "See {IGovernor-proposalDeadline}."
      },
      "proposalEta(uint256)": {
        "details": "Public accessor to check the eta of a queued proposal"
      },
      "proposalSnapshot(uint256)": {
        "details": "See {IGovernor-proposalSnapshot}."
      },
      "proposalThreshold()": {
        "details": "Part of the Governor Bravo's interface: _\"The number of votes required in order for a voter to become a proposer\"_."
      },
      "proposalVotes(uint256)": {
        "details": "Accessor to the internal vote counts."
      },
      "queue(address[],uint256[],bytes[],bytes32)": {
        "details": "Function to queue a proposal to the timelock."
      },
      "timelock()": {
        "details": "Public accessor to check the address of the timelock"
      },
      "updateTimelock(address)": {
        "details": "Public endpoint to update the underlying timelock instance. Restricted to the timelock itself, so updates must be proposed, scheduled and executed using the {Governor} workflow."
      },
      "version()": {
        "details": "See {IGovernor-version}."
      },
      "votingDelay()": {
        "details": "Delay, in number of block, between the proposal is created and the vote starts. This can be increassed to leave time for users to buy voting power, of delegate it, before the voting of a proposal starts."
      },
      "votingPeriod()": {
        "details": "Delay, in number of blocks, between the vote start and vote ends. NOTE: The {votingDelay} can delay the start of the vote. This must be considered when setting the voting duration compared to the voting delay."
      }
    },
    "version": 1
  },
  "userdoc": {
    "kind": "user",
    "methods": {
      "votingDelay()": {
        "notice": "module:user-config"
      },
      "votingPeriod()": {
        "notice": "module:user-config"
      }
    },
    "version": 1
  }
}