{
  "contractName": "Governance",
  "abi": [
    {
      "inputs": [
        {
          "internalType": "contract ERC20Votes",
          "name": "_token",
          "type": "address"
        },
        {
          "internalType": "contract TimelockController",
          "name": "_timelock",
          "type": "address"
        },
        {
          "internalType": "uint256",
          "name": "_quorum",
          "type": "uint256"
        },
        {
          "internalType": "uint256",
          "name": "_votingDelay",
          "type": "uint256"
        },
        {
          "internalType": "uint256",
          "name": "_votingPeriod",
          "type": "uint256"
        }
      ],
      "stateMutability": "nonpayable",
      "type": "constructor"
    },
    {
      "anonymous": false,
      "inputs": [
        {
          "indexed": false,
          "internalType": "uint256",
          "name": "proposalId",
          "type": "uint256"
        }
      ],
      "name": "ProposalCanceled",
      "type": "event"
    },
    {
      "anonymous": false,
      "inputs": [
        {
          "indexed": false,
          "internalType": "uint256",
          "name": "proposalId",
          "type": "uint256"
        },
        {
          "indexed": false,
          "internalType": "address",
          "name": "proposer",
          "type": "address"
        },
        {
          "indexed": false,
          "internalType": "address[]",
          "name": "targets",
          "type": "address[]"
        },
        {
          "indexed": false,
          "internalType": "uint256[]",
          "name": "values",
          "type": "uint256[]"
        },
        {
          "indexed": false,
          "internalType": "string[]",
          "name": "signatures",
          "type": "string[]"
        },
        {
          "indexed": false,
          "internalType": "bytes[]",
          "name": "calldatas",
          "type": "bytes[]"
        },
        {
          "indexed": false,
          "internalType": "uint256",
          "name": "startBlock",
          "type": "uint256"
        },
        {
          "indexed": false,
          "internalType": "uint256",
          "name": "endBlock",
          "type": "uint256"
        },
        {
          "indexed": false,
          "internalType": "string",
          "name": "description",
          "type": "string"
        }
      ],
      "name": "ProposalCreated",
      "type": "event"
    },
    {
      "anonymous": false,
      "inputs": [
        {
          "indexed": false,
          "internalType": "uint256",
          "name": "proposalId",
          "type": "uint256"
        }
      ],
      "name": "ProposalExecuted",
      "type": "event"
    },
    {
      "anonymous": false,
      "inputs": [
        {
          "indexed": false,
          "internalType": "uint256",
          "name": "proposalId",
          "type": "uint256"
        },
        {
          "indexed": false,
          "internalType": "uint256",
          "name": "eta",
          "type": "uint256"
        }
      ],
      "name": "ProposalQueued",
      "type": "event"
    },
    {
      "anonymous": false,
      "inputs": [
        {
          "indexed": false,
          "internalType": "uint256",
          "name": "oldQuorumNumerator",
          "type": "uint256"
        },
        {
          "indexed": false,
          "internalType": "uint256",
          "name": "newQuorumNumerator",
          "type": "uint256"
        }
      ],
      "name": "QuorumNumeratorUpdated",
      "type": "event"
    },
    {
      "anonymous": false,
      "inputs": [
        {
          "indexed": false,
          "internalType": "address",
          "name": "oldTimelock",
          "type": "address"
        },
        {
          "indexed": false,
          "internalType": "address",
          "name": "newTimelock",
          "type": "address"
        }
      ],
      "name": "TimelockChange",
      "type": "event"
    },
    {
      "anonymous": false,
      "inputs": [
        {
          "indexed": true,
          "internalType": "address",
          "name": "voter",
          "type": "address"
        },
        {
          "indexed": false,
          "internalType": "uint256",
          "name": "proposalId",
          "type": "uint256"
        },
        {
          "indexed": false,
          "internalType": "uint8",
          "name": "support",
          "type": "uint8"
        },
        {
          "indexed": false,
          "internalType": "uint256",
          "name": "weight",
          "type": "uint256"
        },
        {
          "indexed": false,
          "internalType": "string",
          "name": "reason",
          "type": "string"
        }
      ],
      "name": "VoteCast",
      "type": "event"
    },
    {
      "inputs": [],
      "name": "BALLOT_TYPEHASH",
      "outputs": [
        {
          "internalType": "bytes32",
          "name": "",
          "type": "bytes32"
        }
      ],
      "stateMutability": "view",
      "type": "function",
      "constant": true
    },
    {
      "inputs": [],
      "name": "COUNTING_MODE",
      "outputs": [
        {
          "internalType": "string",
          "name": "",
          "type": "string"
        }
      ],
      "stateMutability": "pure",
      "type": "function",
      "constant": true
    },
    {
      "inputs": [
        {
          "internalType": "uint256",
          "name": "proposalId",
          "type": "uint256"
        },
        {
          "internalType": "uint8",
          "name": "support",
          "type": "uint8"
        }
      ],
      "name": "castVote",
      "outputs": [
        {
          "internalType": "uint256",
          "name": "",
          "type": "uint256"
        }
      ],
      "stateMutability": "nonpayable",
      "type": "function"
    },
    {
      "inputs": [
        {
          "internalType": "uint256",
          "name": "proposalId",
          "type": "uint256"
        },
        {
          "internalType": "uint8",
          "name": "support",
          "type": "uint8"
        },
        {
          "internalType": "uint8",
          "name": "v",
          "type": "uint8"
        },
        {
          "internalType": "bytes32",
          "name": "r",
          "type": "bytes32"
        },
        {
          "internalType": "bytes32",
          "name": "s",
          "type": "bytes32"
        }
      ],
      "name": "castVoteBySig",
      "outputs": [
        {
          "internalType": "uint256",
          "name": "",
          "type": "uint256"
        }
      ],
      "stateMutability": "nonpayable",
      "type": "function"
    },
    {
      "inputs": [
        {
          "internalType": "uint256",
          "name": "proposalId",
          "type": "uint256"
        },
        {
          "internalType": "uint8",
          "name": "support",
          "type": "uint8"
        },
        {
          "internalType": "string",
          "name": "reason",
          "type": "string"
        }
      ],
      "name": "castVoteWithReason",
      "outputs": [
        {
          "internalType": "uint256",
          "name": "",
          "type": "uint256"
        }
      ],
      "stateMutability": "nonpayable",
      "type": "function"
    },
    {
      "inputs": [
        {
          "internalType": "address[]",
          "name": "targets",
          "type": "address[]"
        },
        {
          "internalType": "uint256[]",
          "name": "values",
          "type": "uint256[]"
        },
        {
          "internalType": "bytes[]",
          "name": "calldatas",
          "type": "bytes[]"
        },
        {
          "internalType": "bytes32",
          "name": "descriptionHash",
          "type": "bytes32"
        }
      ],
      "name": "execute",
      "outputs": [
        {
          "internalType": "uint256",
          "name": "",
          "type": "uint256"
        }
      ],
      "stateMutability": "payable",
      "type": "function",
      "payable": true
    },
    {
      "inputs": [
        {
          "internalType": "uint256",
          "name": "proposalId",
          "type": "uint256"
        },
        {
          "internalType": "address",
          "name": "account",
          "type": "address"
        }
      ],
      "name": "hasVoted",
      "outputs": [
        {
          "internalType": "bool",
          "name": "",
          "type": "bool"
        }
      ],
      "stateMutability": "view",
      "type": "function",
      "constant": true
    },
    {
      "inputs": [
        {
          "internalType": "address[]",
          "name": "targets",
          "type": "address[]"
        },
        {
          "internalType": "uint256[]",
          "name": "values",
          "type": "uint256[]"
        },
        {
          "internalType": "bytes[]",
          "name": "calldatas",
          "type": "bytes[]"
        },
        {
          "internalType": "bytes32",
          "name": "descriptionHash",
          "type": "bytes32"
        }
      ],
      "name": "hashProposal",
      "outputs": [
        {
          "internalType": "uint256",
          "name": "",
          "type": "uint256"
        }
      ],
      "stateMutability": "pure",
      "type": "function",
      "constant": true
    },
    {
      "inputs": [
        {
          "internalType": "uint256",
          "name": "",
          "type": "uint256"
        }
      ],
      "name": "members",
      "outputs": [
        {
          "internalType": "address",
          "name": "",
          "type": "address"
        }
      ],
      "stateMutability": "view",
      "type": "function",
      "constant": true
    },
    {
      "inputs": [],
      "name": "name",
      "outputs": [
        {
          "internalType": "string",
          "name": "",
          "type": "string"
        }
      ],
      "stateMutability": "view",
      "type": "function",
      "constant": true
    },
    {
      "inputs": [
        {
          "internalType": "uint256",
          "name": "proposalId",
          "type": "uint256"
        }
      ],
      "name": "proposalDeadline",
      "outputs": [
        {
          "internalType": "uint256",
          "name": "",
          "type": "uint256"
        }
      ],
      "stateMutability": "view",
      "type": "function",
      "constant": true
    },
    {
      "inputs": [
        {
          "internalType": "uint256",
          "name": "proposalId",
          "type": "uint256"
        }
      ],
      "name": "proposalEta",
      "outputs": [
        {
          "internalType": "uint256",
          "name": "",
          "type": "uint256"
        }
      ],
      "stateMutability": "view",
      "type": "function",
      "constant": true
    },
    {
      "inputs": [
        {
          "internalType": "uint256",
          "name": "proposalId",
          "type": "uint256"
        }
      ],
      "name": "proposalSnapshot",
      "outputs": [
        {
          "internalType": "uint256",
          "name": "",
          "type": "uint256"
        }
      ],
      "stateMutability": "view",
      "type": "function",
      "constant": true
    },
    {
      "inputs": [],
      "name": "proposalThreshold",
      "outputs": [
        {
          "internalType": "uint256",
          "name": "",
          "type": "uint256"
        }
      ],
      "stateMutability": "view",
      "type": "function",
      "constant": true
    },
    {
      "inputs": [
        {
          "internalType": "uint256",
          "name": "proposalId",
          "type": "uint256"
        }
      ],
      "name": "proposalVotes",
      "outputs": [
        {
          "internalType": "uint256",
          "name": "againstVotes",
          "type": "uint256"
        },
        {
          "internalType": "uint256",
          "name": "forVotes",
          "type": "uint256"
        },
        {
          "internalType": "uint256",
          "name": "abstainVotes",
          "type": "uint256"
        }
      ],
      "stateMutability": "view",
      "type": "function",
      "constant": true
    },
    {
      "inputs": [
        {
          "internalType": "uint256",
          "name": "",
          "type": "uint256"
        }
      ],
      "name": "proposals",
      "outputs": [
        {
          "internalType": "uint256",
          "name": "id",
          "type": "uint256"
        },
        {
          "internalType": "string",
          "name": "description",
          "type": "string"
        },
        {
          "internalType": "address",
          "name": "creatorAddress",
          "type": "address"
        },
        {
          "internalType": "address",
          "name": "receiptAddress",
          "type": "address"
        },
        {
          "internalType": "uint256",
          "name": "amount",
          "type": "uint256"
        }
      ],
      "stateMutability": "view",
      "type": "function",
      "constant": true
    },
    {
      "inputs": [
        {
          "internalType": "address[]",
          "name": "targets",
          "type": "address[]"
        },
        {
          "internalType": "uint256[]",
          "name": "values",
          "type": "uint256[]"
        },
        {
          "internalType": "bytes[]",
          "name": "calldatas",
          "type": "bytes[]"
        },
        {
          "internalType": "bytes32",
          "name": "descriptionHash",
          "type": "bytes32"
        }
      ],
      "name": "queue",
      "outputs": [
        {
          "internalType": "uint256",
          "name": "",
          "type": "uint256"
        }
      ],
      "stateMutability": "nonpayable",
      "type": "function"
    },
    {
      "inputs": [],
      "name": "quorumDenominator",
      "outputs": [
        {
          "internalType": "uint256",
          "name": "",
          "type": "uint256"
        }
      ],
      "stateMutability": "view",
      "type": "function",
      "constant": true
    },
    {
      "inputs": [],
      "name": "quorumNumerator",
      "outputs": [
        {
          "internalType": "uint256",
          "name": "",
          "type": "uint256"
        }
      ],
      "stateMutability": "view",
      "type": "function",
      "constant": true
    },
    {
      "inputs": [],
      "name": "timelock",
      "outputs": [
        {
          "internalType": "address",
          "name": "",
          "type": "address"
        }
      ],
      "stateMutability": "view",
      "type": "function",
      "constant": true
    },
    {
      "inputs": [],
      "name": "token",
      "outputs": [
        {
          "internalType": "contract ERC20Votes",
          "name": "",
          "type": "address"
        }
      ],
      "stateMutability": "view",
      "type": "function",
      "constant": true
    },
    {
      "inputs": [],
      "name": "totalMembers",
      "outputs": [
        {
          "internalType": "uint256",
          "name": "",
          "type": "uint256"
        }
      ],
      "stateMutability": "view",
      "type": "function",
      "constant": true
    },
    {
      "inputs": [],
      "name": "totalProposals",
      "outputs": [
        {
          "internalType": "uint256",
          "name": "",
          "type": "uint256"
        }
      ],
      "stateMutability": "view",
      "type": "function",
      "constant": true
    },
    {
      "inputs": [
        {
          "internalType": "uint256",
          "name": "newQuorumNumerator",
          "type": "uint256"
        }
      ],
      "name": "updateQuorumNumerator",
      "outputs": [],
      "stateMutability": "nonpayable",
      "type": "function"
    },
    {
      "inputs": [
        {
          "internalType": "contract TimelockController",
          "name": "newTimelock",
          "type": "address"
        }
      ],
      "name": "updateTimelock",
      "outputs": [],
      "stateMutability": "nonpayable",
      "type": "function"
    },
    {
      "inputs": [],
      "name": "version",
      "outputs": [
        {
          "internalType": "string",
          "name": "",
          "type": "string"
        }
      ],
      "stateMutability": "view",
      "type": "function",
      "constant": true
    },
    {
      "inputs": [],
      "name": "votingDelay_",
      "outputs": [
        {
          "internalType": "uint256",
          "name": "",
          "type": "uint256"
        }
      ],
      "stateMutability": "view",
      "type": "function",
      "constant": true
    },
    {
      "inputs": [],
      "name": "votingPeriod_",
      "outputs": [
        {
          "internalType": "uint256",
          "name": "",
          "type": "uint256"
        }
      ],
      "stateMutability": "view",
      "type": "function",
      "constant": true
    },
    {
      "stateMutability": "payable",
      "type": "receive",
      "payable": true
    },
    {
      "inputs": [],
      "name": "votingDelay",
      "outputs": [
        {
          "internalType": "uint256",
          "name": "",
          "type": "uint256"
        }
      ],
      "stateMutability": "view",
      "type": "function",
      "constant": true
    },
    {
      "inputs": [],
      "name": "votingPeriod",
      "outputs": [
        {
          "internalType": "uint256",
          "name": "",
          "type": "uint256"
        }
      ],
      "stateMutability": "view",
      "type": "function",
      "constant": true
    },
    {
      "inputs": [
        {
          "internalType": "uint256",
          "name": "blockNumber",
          "type": "uint256"
        }
      ],
      "name": "quorum",
      "outputs": [
        {
          "internalType": "uint256",
          "name": "",
          "type": "uint256"
        }
      ],
      "stateMutability": "view",
      "type": "function",
      "constant": true
    },
    {
      "inputs": [
        {
          "internalType": "address",
          "name": "account",
          "type": "address"
        },
        {
          "internalType": "uint256",
          "name": "blockNumber",
          "type": "uint256"
        }
      ],
      "name": "getVotes",
      "outputs": [
        {
          "internalType": "uint256",
          "name": "",
          "type": "uint256"
        }
      ],
      "stateMutability": "view",
      "type": "function",
      "constant": true
    },
    {
      "inputs": [
        {
          "internalType": "uint256",
          "name": "proposalId",
          "type": "uint256"
        }
      ],
      "name": "state",
      "outputs": [
        {
          "internalType": "enum IGovernor.ProposalState",
          "name": "",
          "type": "uint8"
        }
      ],
      "stateMutability": "view",
      "type": "function",
      "constant": true
    },
    {
      "inputs": [
        {
          "internalType": "address[]",
          "name": "targets",
          "type": "address[]"
        },
        {
          "internalType": "uint256[]",
          "name": "values",
          "type": "uint256[]"
        },
        {
          "internalType": "bytes[]",
          "name": "calldatas",
          "type": "bytes[]"
        },
        {
          "internalType": "string",
          "name": "description",
          "type": "string"
        }
      ],
      "name": "propose",
      "outputs": [
        {
          "internalType": "uint256",
          "name": "",
          "type": "uint256"
        }
      ],
      "stateMutability": "nonpayable",
      "type": "function"
    },
    {
      "inputs": [
        {
          "internalType": "address[]",
          "name": "targets",
          "type": "address[]"
        },
        {
          "internalType": "uint256[]",
          "name": "values",
          "type": "uint256[]"
        },
        {
          "internalType": "bytes[]",
          "name": "calldatas",
          "type": "bytes[]"
        },
        {
          "internalType": "string",
          "name": "description",
          "type": "string"
        },
        {
          "internalType": "address",
          "name": "receiptAddress",
          "type": "address"
        },
        {
          "internalType": "uint256",
          "name": "amount",
          "type": "uint256"
        }
      ],
      "name": "createProposal",
      "outputs": [
        {
          "internalType": "uint256",
          "name": "",
          "type": "uint256"
        }
      ],
      "stateMutability": "nonpayable",
      "type": "function"
    },
    {
      "inputs": [
        {
          "internalType": "bytes4",
          "name": "interfaceId",
          "type": "bytes4"
        }
      ],
      "name": "supportsInterface",
      "outputs": [
        {
          "internalType": "bool",
          "name": "",
          "type": "bool"
        }
      ],
      "stateMutability": "view",
      "type": "function",
      "constant": true
    },
    {
      "inputs": [
        {
          "internalType": "address",
          "name": "_member",
          "type": "address"
        }
      ],
      "name": "addMember",
      "outputs": [],
      "stateMutability": "nonpayable",
      "type": "function"
    }
  ],
  "bytecode": "0x61016060405260006009556000600a553480156200001c57600080fd5b5060405162005a5638038062005a56833981810160405281019062000042919062000670565b8383866040518060400160405280600b81526020017f4275696c6465722044414f000000000000000000000000000000000000000000815250806200008c6200021d60201b60201c565b60008280519060200120905060008280519060200120905060007f8b73c3c69bb8fe3d512ecc4cf759cc79239f7b179b0ffacaa9a75d522b39400f90508260e081815250508161010081815250504660a08181525050620000f58184846200025a60201b60201c565b608081815250503073ffffffffffffffffffffffffffffffffffffffff1660c08173ffffffffffffffffffffffffffffffffffffffff16815250508061012081815250505050505050806000908051906020019062000156929190620004ae565b50508073ffffffffffffffffffffffffffffffffffffffff166101408173ffffffffffffffffffffffffffffffffffffffff1681525050506200019f816200029660201b60201c565b50620001b1816200033860201b60201c565b50816007819055508060088190555033600660006101000a81548173ffffffffffffffffffffffffffffffffffffffff021916908373ffffffffffffffffffffffffffffffffffffffff1602179055506200021233620003d960201b60201c565b50505050506200099d565b60606040518060400160405280600181526020017f3100000000000000000000000000000000000000000000000000000000000000815250905090565b600083838346306040516020016200027795949392919062000735565b6040516020818303038152906040528051906020012090509392505050565b620002a6620004a560201b60201c565b811115620002eb576040517f08c379a0000000000000000000000000000000000000000000000000000000008152600401620002e2906200083f565b60405180910390fd5b60006003549050816003819055507f0553476bf02ef2726e8ce5ced78d63e26e602e4a2257b1f559418e24b463399781836040516200032c92919062000861565b60405180910390a15050565b7f08f74ea46ef7894f65eabfb5e6e695de773a000b47c529ab559178069b226401600460009054906101000a900473ffffffffffffffffffffffffffffffffffffffff16826040516200038d9291906200088e565b60405180910390a180600460006101000a81548173ffffffffffffffffffffffffffffffffffffffff021916908373ffffffffffffffffffffffffffffffffffffffff16021790555050565b3373ffffffffffffffffffffffffffffffffffffffff16600660009054906101000a900473ffffffffffffffffffffffffffffffffffffffff1673ffffffffffffffffffffffffffffffffffffffff16146200043457600080fd5b600960008154809291906200044990620008ea565b919050555080600b6000600954815260200190815260200160002060006101000a81548173ffffffffffffffffffffffffffffffffffffffff021916908373ffffffffffffffffffffffffffffffffffffffff16021790555050565b60006064905090565b828054620004bc9062000967565b90600052602060002090601f016020900481019282620004e057600085556200052c565b82601f10620004fb57805160ff19168380011785556200052c565b828001600101855582156200052c579182015b828111156200052b5782518255916020019190600101906200050e565b5b5090506200053b91906200053f565b5090565b5b808211156200055a57600081600090555060010162000540565b5090565b600080fd5b600073ffffffffffffffffffffffffffffffffffffffff82169050919050565b6000620005908262000563565b9050919050565b6000620005a48262000583565b9050919050565b620005b68162000597565b8114620005c257600080fd5b50565b600081519050620005d681620005ab565b92915050565b6000620005e98262000563565b9050919050565b6000620005fd82620005dc565b9050919050565b6200060f81620005f0565b81146200061b57600080fd5b50565b6000815190506200062f8162000604565b92915050565b6000819050919050565b6200064a8162000635565b81146200065657600080fd5b50565b6000815190506200066a816200063f565b92915050565b600080600080600060a086880312156200068f576200068e6200055e565b5b60006200069f88828901620005c5565b9550506020620006b2888289016200061e565b9450506040620006c58882890162000659565b9350506060620006d88882890162000659565b9250506080620006eb8882890162000659565b9150509295509295909350565b6000819050919050565b6200070d81620006f8565b82525050565b6200071e8162000635565b82525050565b6200072f8162000583565b82525050565b600060a0820190506200074c600083018862000702565b6200075b602083018762000702565b6200076a604083018662000702565b62000779606083018562000713565b62000788608083018462000724565b9695505050505050565b600082825260208201905092915050565b7f476f7665726e6f72566f74657351756f72756d4672616374696f6e3a2071756f60008201527f72756d4e756d657261746f72206f7665722071756f72756d44656e6f6d696e6160208201527f746f720000000000000000000000000000000000000000000000000000000000604082015250565b60006200082760438362000792565b91506200083482620007a3565b606082019050919050565b600060208201905081810360008301526200085a8162000818565b9050919050565b600060408201905062000878600083018562000713565b62000887602083018462000713565b9392505050565b6000604082019050620008a5600083018562000724565b620008b4602083018462000724565b9392505050565b7f4e487b7100000000000000000000000000000000000000000000000000000000600052601160045260246000fd5b6000620008f78262000635565b91507fffffffffffffffffffffffffffffffffffffffffffffffffffffffffffffffff8214156200092d576200092c620008bb565b5b600182019050919050565b7f4e487b7100000000000000000000000000000000000000000000000000000000600052602260045260246000fd5b600060028204905060018216806200098057607f821691505b6020821081141562000997576200099662000938565b5b50919050565b60805160a05160c05160e05161010051610120516101405161505062000a066000396000818161182a0152818161202201526120e70152600061236f015260006123b101526000612390015260006122c50152600061231b0152600061234401526150506000f3fe60806040526004361061021e5760003560e01c80637b3c71d311610123578063c01f9e37116100ab578063deaaa7cc1161006f578063deaaa7cc146108dc578063eb9019d414610907578063ee1c363c14610944578063f8ce560a14610981578063fc0c546a146109be57610264565b8063c01f9e37146107e3578063c59057e414610820578063ca6d56dc1461085d578063d33219b414610886578063dd4e2ba5146108b157610264565b8063a7713a70116100f2578063a7713a70146106fc578063a78d80fc14610727578063a890c91014610752578063ab58fb8e1461077b578063b58131b0146107b857610264565b80637b3c71d31461062c5780637d5e81e2146106695780638b02dbde146106a657806397c3d334146106d157610264565b80633bccf4fd116101a6578063544ffc9c11610175578063544ffc9c1461051d57806354fd4d501461055c57806356781388146105875780635daf08ca146105c457806376e925591461060157610264565b80633bccf4fd1461043b5780633e4f49e61461047857806342024c2b146104b557806343859632146104e057610264565b806306fdde03116101ed57806306fdde031461033b578063160cbed7146103665780632656227d146103a35780632d63f693146103d35780633932abb11461041057610264565b8063013cf08b1461026957806301ffc9a7146102aa57806302a251a3146102e757806306f3f9e61461031257610264565b36610264573073ffffffffffffffffffffffffffffffffffffffff166102426109e9565b73ffffffffffffffffffffffffffffffffffffffff161461026257600080fd5b005b600080fd5b34801561027557600080fd5b50610290600480360381019061028b9190612dbc565b6109f8565b6040516102a1959493929190612ed2565b60405180910390f35b3480156102b657600080fd5b506102d160048036038101906102cc9190612f84565b610af6565b6040516102de9190612fcc565b60405180910390f35b3480156102f357600080fd5b506102fc610b08565b6040516103099190612fe7565b60405180910390f35b34801561031e57600080fd5b5061033960048036038101906103349190612dbc565b610b12565b005b34801561034757600080fd5b50610350610b9a565b60405161035d9190613002565b60405180910390f35b34801561037257600080fd5b5061038d60048036038101906103889190613427565b610c2c565b60405161039a9190612fe7565b60405180910390f35b6103bd60048036038101906103b89190613427565b610f04565b6040516103ca9190612fe7565b60405180910390f35b3480156103df57600080fd5b506103fa60048036038101906103f59190612dbc565b611037565b6040516104079190612fe7565b60405180910390f35b34801561041c57600080fd5b506104256110a5565b6040516104329190612fe7565b60405180910390f35b34801561044757600080fd5b50610462600480360381019061045d919061351b565b6110af565b60405161046f9190612fe7565b60405180910390f35b34801561048457600080fd5b5061049f600480360381019061049a9190612dbc565b611139565b6040516104ac919061360d565b60405180910390f35b3480156104c157600080fd5b506104ca61114b565b6040516104d79190612fe7565b60405180910390f35b3480156104ec57600080fd5b5061050760048036038101906105029190613628565b611151565b6040516105149190612fcc565b60405180910390f35b34801561052957600080fd5b50610544600480360381019061053f9190612dbc565b6111bc565b60405161055393929190613668565b60405180910390f35b34801561056857600080fd5b506105716111f4565b60405161057e9190613002565b60405180910390f35b34801561059357600080fd5b506105ae60048036038101906105a9919061369f565b611231565b6040516105bb9190612fe7565b60405180910390f35b3480156105d057600080fd5b506105eb60048036038101906105e69190612dbc565b611262565b6040516105f891906136df565b60405180910390f35b34801561060d57600080fd5b50610616611295565b6040516106239190612fe7565b60405180910390f35b34801561063857600080fd5b50610653600480360381019061064e9190613755565b61129b565b6040516106609190612fe7565b60405180910390f35b34801561067557600080fd5b50610690600480360381019061068b919061386a565b611303565b60405161069d9190612fe7565b60405180910390f35b3480156106b257600080fd5b506106bb61131b565b6040516106c89190612fe7565b60405180910390f35b3480156106dd57600080fd5b506106e6611321565b6040516106f39190612fe7565b60405180910390f35b34801561070857600080fd5b5061071161132a565b60405161071e9190612fe7565b60405180910390f35b34801561073357600080fd5b5061073c611334565b6040516107499190612fe7565b60405180910390f35b34801561075e57600080fd5b5061077960048036038101906107749190613991565b61133a565b005b34801561078757600080fd5b506107a2600480360381019061079d9190612dbc565b6113c2565b6040516107af9190612fe7565b60405180910390f35b3480156107c457600080fd5b506107cd61149e565b6040516107da9190612fe7565b60405180910390f35b3480156107ef57600080fd5b5061080a60048036038101906108059190612dbc565b6114a3565b6040516108179190612fe7565b60405180910390f35b34801561082c57600080fd5b5061084760048036038101906108429190613427565b611511565b6040516108549190612fe7565b60405180910390f35b34801561086957600080fd5b50610884600480360381019061087f91906139be565b61154d565b005b34801561089257600080fd5b5061089b611616565b6040516108a891906136df565b60405180910390f35b3480156108bd57600080fd5b506108c6611640565b6040516108d39190613002565b60405180910390f35b3480156108e857600080fd5b506108f161167d565b6040516108fe91906139fa565b60405180910390f35b34801561091357600080fd5b5061092e60048036038101906109299190613a15565b6116a1565b60405161093b9190612fe7565b60405180910390f35b34801561095057600080fd5b5061096b60048036038101906109669190613a55565b6116b5565b6040516109789190612fe7565b60405180910390f35b34801561098d57600080fd5b506109a860048036038101906109a39190612dbc565b611816565b6040516109b59190612fe7565b60405180910390f35b3480156109ca57600080fd5b506109d3611828565b6040516109e09190613bb1565b60405180910390f35b60006109f361184c565b905090565b600c602052806000526040600020600091509050806000015490806001018054610a2190613bfb565b80601f0160208091040260200160405190810160405280929190818152602001828054610a4d90613bfb565b8015610a9a5780601f10610a6f57610100808354040283529160200191610a9a565b820191906000526020600020905b815481529060010190602001808311610a7d57829003601f168201915b5050505050908060020160009054906101000a900473ffffffffffffffffffffffffffffffffffffffff16908060030160009054906101000a900473ffffffffffffffffffffffffffffffffffffffff16908060040154905085565b6000610b0182611876565b9050919050565b6000600854905090565b610b1a6109e9565b73ffffffffffffffffffffffffffffffffffffffff16610b386118f0565b73ffffffffffffffffffffffffffffffffffffffff1614610b8e576040517f08c379a0000000000000000000000000000000000000000000000000000000008152600401610b8590613c79565b60405180910390fd5b610b97816118f8565b50565b606060008054610ba990613bfb565b80601f0160208091040260200160405190810160405280929190818152602001828054610bd590613bfb565b8015610c225780601f10610bf757610100808354040283529160200191610c22565b820191906000526020600020905b815481529060010190602001808311610c0557829003601f168201915b5050505050905090565b600080610c3b86868686611511565b905060046007811115610c5157610c50613596565b5b610c5a82611139565b6007811115610c6c57610c6b613596565b5b14610cac576040517f08c379a0000000000000000000000000000000000000000000000000000000008152600401610ca390613d0b565b60405180910390fd5b6000600460009054906101000a900473ffffffffffffffffffffffffffffffffffffffff1673ffffffffffffffffffffffffffffffffffffffff1663f27a0c926040518163ffffffff1660e01b815260040160206040518083038186803b158015610d1657600080fd5b505afa158015610d2a573d6000803e3d6000fd5b505050506040513d601f19601f82011682018060405250810190610d4e9190613d40565b9050600460009054906101000a900473ffffffffffffffffffffffffffffffffffffffff1673ffffffffffffffffffffffffffffffffffffffff1663b1c5f4278888886000896040518663ffffffff1660e01b8152600401610db4959493929190614048565b60206040518083038186803b158015610dcc57600080fd5b505afa158015610de0573d6000803e3d6000fd5b505050506040513d601f19601f82011682018060405250810190610e0491906140c5565b6005600084815260200190815260200160002081905550600460009054906101000a900473ffffffffffffffffffffffffffffffffffffffff1673ffffffffffffffffffffffffffffffffffffffff16638f2a0bb0888888600089876040518763ffffffff1660e01b8152600401610e81969594939291906140f2565b600060405180830381600087803b158015610e9b57600080fd5b505af1158015610eaf573d6000803e3d6000fd5b505050507f9a2e42fd6722813d69113e7d0079d3d940171428df7373df9c7f7617cfda2892828242610ee19190614197565b604051610eef9291906141ed565b60405180910390a18192505050949350505050565b600080610f1386868686611511565b90506000610f2082611139565b905060046007811115610f3657610f35613596565b5b816007811115610f4957610f48613596565b5b1480610f79575060056007811115610f6457610f63613596565b5b816007811115610f7757610f76613596565b5b145b610fb8576040517f08c379a0000000000000000000000000000000000000000000000000000000008152600401610faf90613d0b565b60405180910390fd5b600180600084815260200190815260200160002060020160006101000a81548160ff0219169083151502179055507f712ae1383f79ac853f8d882153778e0260ef8f03b504e2866e0593e04d2b291f826040516110159190612fe7565b60405180910390a161102a828888888861198d565b8192505050949350505050565b6000611094600160008481526020019081526020016000206000016040518060200160405290816000820160009054906101000a900467ffffffffffffffff1667ffffffffffffffff1667ffffffffffffffff16815250506119a1565b67ffffffffffffffff169050919050565b6000600754905090565b6000806111106111087f150214d74d59b7d1e90c73fc22ef3d991dd0a76b046543d4d80ab92d2a50328f89896040516020016110ed93929190614225565b604051602081830303815290604052805190602001206119af565b8686866119c9565b905061112d878288604051806020016040528060008152506119f4565b91505095945050505050565b600061114482611b48565b9050919050565b60085481565b60006002600084815260200190815260200160002060030160008373ffffffffffffffffffffffffffffffffffffffff1673ffffffffffffffffffffffffffffffffffffffff16815260200190815260200160002060009054906101000a900460ff16905092915050565b600080600080600260008681526020019081526020016000209050806000015481600101548260020154935093509350509193909250565b60606040518060400160405280600181526020017f3100000000000000000000000000000000000000000000000000000000000000815250905090565b60008061123c6118f0565b9050611259848285604051806020016040528060008152506119f4565b91505092915050565b600b6020528060005260406000206000915054906101000a900473ffffffffffffffffffffffffffffffffffffffff1681565b60095481565b6000806112a66118f0565b90506112f886828787878080601f016020809104026020016040519081016040528093929190818152602001838380828437600081840152601f19601f820116905080830192505050505050506119f4565b915050949350505050565b600061131185858585611c7f565b9050949350505050565b60075481565b60006064905090565b6000600354905090565b600a5481565b6113426109e9565b73ffffffffffffffffffffffffffffffffffffffff166113606118f0565b73ffffffffffffffffffffffffffffffffffffffff16146113b6576040517f08c379a00000000000000000000000000000000000000000000000000000000081526004016113ad90613c79565b60405180910390fd5b6113bf81611f7f565b50565b600080600460009054906101000a900473ffffffffffffffffffffffffffffffffffffffff1673ffffffffffffffffffffffffffffffffffffffff1663d45c443560056000868152602001908152602001600020546040518263ffffffff1660e01b815260040161143391906139fa565b60206040518083038186803b15801561144b57600080fd5b505afa15801561145f573d6000803e3d6000fd5b505050506040513d601f19601f820116820180604052508101906114839190613d40565b9050600181146114935780611496565b60005b915050919050565b600090565b6000611500600160008481526020019081526020016000206001016040518060200160405290816000820160009054906101000a900467ffffffffffffffff1667ffffffffffffffff1667ffffffffffffffff16815250506119a1565b67ffffffffffffffff169050919050565b60008484848460405160200161152a949392919061425c565b6040516020818303038152906040528051906020012060001c9050949350505050565b3373ffffffffffffffffffffffffffffffffffffffff16600660009054906101000a900473ffffffffffffffffffffffffffffffffffffffff1673ffffffffffffffffffffffffffffffffffffffff16146115a757600080fd5b600960008154809291906115ba906142b6565b919050555080600b6000600954815260200190815260200160002060006101000a81548173ffffffffffffffffffffffffffffffffffffffff021916908373ffffffffffffffffffffffffffffffffffffffff16021790555050565b6000600460009054906101000a900473ffffffffffffffffffffffffffffffffffffffff16905090565b60606040518060400160405280602081526020017f737570706f72743d627261766f2671756f72756d3d666f722c6162737461696e815250905090565b7f150214d74d59b7d1e90c73fc22ef3d991dd0a76b046543d4d80ab92d2a50328f81565b60006116ad838361201e565b905092915050565b6000806116c488888888611303565b9050600a60008154809291906116d9906142b6565b91905055506040518060a001604052808281526020018681526020013373ffffffffffffffffffffffffffffffffffffffff1681526020018573ffffffffffffffffffffffffffffffffffffffff16815260200184815250600c6000600a54815260200190815260200160002060008201518160000155602082015181600101908051906020019061176c929190612ccf565b5060408201518160020160006101000a81548173ffffffffffffffffffffffffffffffffffffffff021916908373ffffffffffffffffffffffffffffffffffffffff16021790555060608201518160030160006101000a81548173ffffffffffffffffffffffffffffffffffffffff021916908373ffffffffffffffffffffffffffffffffffffffff16021790555060808201518160040155905050809150509695505050505050565b6000611821826120d3565b9050919050565b7f000000000000000000000000000000000000000000000000000000000000000081565b6000600460009054906101000a900473ffffffffffffffffffffffffffffffffffffffff16905090565b60007f6e665ced000000000000000000000000000000000000000000000000000000007bffffffffffffffffffffffffffffffffffffffffffffffffffffffff1916827bffffffffffffffffffffffffffffffffffffffffffffffffffffffff191614806118e957506118e8826121a9565b5b9050919050565b600033905090565b611900611321565b811115611942576040517f08c379a000000000000000000000000000000000000000000000000000000000815260040161193990614397565b60405180910390fd5b60006003549050816003819055507f0553476bf02ef2726e8ce5ced78d63e26e602e4a2257b1f559418e24b463399781836040516119819291906141ed565b60405180910390a15050565b61199a8585858585612223565b5050505050565b600081600001519050919050565b60006119c26119bc6122c1565b836123db565b9050919050565b60008060006119da8787878761240e565b915091506119e78161251b565b8192505050949350505050565b60008060016000878152602001908152602001600020905060016007811115611a2057611a1f613596565b5b611a2987611139565b6007811115611a3b57611a3a613596565b5b14611a7b576040517f08c379a0000000000000000000000000000000000000000000000000000000008152600401611a7290614429565b60405180910390fd5b6000611ad986611aca846000016040518060200160405290816000820160009054906101000a900467ffffffffffffffff1667ffffffffffffffff1667ffffffffffffffff16815250506119a1565b67ffffffffffffffff166116a1565b9050611ae7878787846126f0565b8573ffffffffffffffffffffffffffffffffffffffff167fb8e138887d0aa13bab447e82de9d5c1777041ecd21ca36ba824ff1e6c07ddda488878488604051611b339493929190614449565b60405180910390a28092505050949350505050565b600080611b54836128f6565b905060046007811115611b6a57611b69613596565b5b816007811115611b7d57611b7c613596565b5b14611b8b5780915050611c7a565b6000600560008581526020019081526020016000205490506000801b811415611bb8578192505050611c7a565b600460009054906101000a900473ffffffffffffffffffffffffffffffffffffffff1673ffffffffffffffffffffffffffffffffffffffff16632ab0f529826040518263ffffffff1660e01b8152600401611c1391906139fa565b60206040518083038186803b158015611c2b57600080fd5b505afa158015611c3f573d6000803e3d6000fd5b505050506040513d601f19601f82011682018060405250810190611c6391906144c1565b15611c7357600792505050611c7a565b6005925050505b919050565b6000611c8961149e565b611c9f33600143611c9a91906144ee565b6116a1565b1015611ce0576040517f08c379a0000000000000000000000000000000000000000000000000000000008152600401611cd7906145ba565b60405180910390fd5b6000611cf58686868680519060200120611511565b90508451865114611d3b576040517f08c379a0000000000000000000000000000000000000000000000000000000008152600401611d329061464c565b60405180910390fd5b8351865114611d7f576040517f08c379a0000000000000000000000000000000000000000000000000000000008152600401611d769061464c565b60405180910390fd5b6000865111611dc3576040517f08c379a0000000000000000000000000000000000000000000000000000000008152600401611dba906146b8565b60405180910390fd5b6000600160008381526020019081526020016000209050611e23816000016040518060200160405290816000820160009054906101000a900467ffffffffffffffff1667ffffffffffffffff1667ffffffffffffffff1681525050612ad3565b611e62576040517f08c379a0000000000000000000000000000000000000000000000000000000008152600401611e599061474a565b60405180910390fd5b6000611e74611e6f6110a5565b612aed565b611e7d43612aed565b611e87919061477e565b90506000611e9b611e96610b08565b612aed565b82611ea6919061477e565b9050611ebe8284600001612b4490919063ffffffff16565b611ed48184600101612b4490919063ffffffff16565b7f7d84a6263ae0d98d3329bd7b46bb4e8d6f98cd35a7adb45c274c8b7fd5ebd5e084611efe6118f0565b8b8b8d5167ffffffffffffffff811115611f1b57611f1a613029565b5b604051908082528060200260200182016040528015611f4e57816020015b6060815260200190600190039081611f395790505b508c88888e604051611f68999897969594939291906148f9565b60405180910390a183945050505050949350505050565b7f08f74ea46ef7894f65eabfb5e6e695de773a000b47c529ab559178069b226401600460009054906101000a900473ffffffffffffffffffffffffffffffffffffffff1682604051611fd29291906149a9565b60405180910390a180600460006101000a81548173ffffffffffffffffffffffffffffffffffffffff021916908373ffffffffffffffffffffffffffffffffffffffff16021790555050565b60007f000000000000000000000000000000000000000000000000000000000000000073ffffffffffffffffffffffffffffffffffffffff16633a46b1a884846040518363ffffffff1660e01b815260040161207b9291906149d2565b60206040518083038186803b15801561209357600080fd5b505afa1580156120a7573d6000803e3d6000fd5b505050506040513d601f19601f820116820180604052508101906120cb9190613d40565b905092915050565b60006120dd611321565b6120e561132a565b7f000000000000000000000000000000000000000000000000000000000000000073ffffffffffffffffffffffffffffffffffffffff16638e539e8c856040518263ffffffff1660e01b815260040161213e9190612fe7565b60206040518083038186803b15801561215657600080fd5b505afa15801561216a573d6000803e3d6000fd5b505050506040513d601f19601f8201168201806040525081019061218e9190613d40565b61219891906149fb565b6121a29190614a84565b9050919050565b60007fbf26d897000000000000000000000000000000000000000000000000000000007bffffffffffffffffffffffffffffffffffffffffffffffffffffffff1916827bffffffffffffffffffffffffffffffffffffffffffffffffffffffff1916148061221c575061221b82612b73565b5b9050919050565b600460009054906101000a900473ffffffffffffffffffffffffffffffffffffffff1673ffffffffffffffffffffffffffffffffffffffff1663e38335e5348686866000876040518763ffffffff1660e01b8152600401612288959493929190614048565b6000604051808303818588803b1580156122a157600080fd5b505af11580156122b5573d6000803e3d6000fd5b50505050505050505050565b60007f000000000000000000000000000000000000000000000000000000000000000073ffffffffffffffffffffffffffffffffffffffff163073ffffffffffffffffffffffffffffffffffffffff1614801561233d57507f000000000000000000000000000000000000000000000000000000000000000046145b1561236a577f000000000000000000000000000000000000000000000000000000000000000090506123d8565b6123d57f00000000000000000000000000000000000000000000000000000000000000007f00000000000000000000000000000000000000000000000000000000000000007f0000000000000000000000000000000000000000000000000000000000000000612bdd565b90505b90565b600082826040516020016123f0929190614b2d565b60405160208183030381529060405280519060200120905092915050565b6000807f7fffffffffffffffffffffffffffffff5d576e7357a4501ddfe92f46681b20a08360001c1115612449576000600391509150612512565b601b8560ff16141580156124615750601c8560ff1614155b15612473576000600491509150612512565b6000600187878787604051600081526020016040526040516124989493929190614b64565b6020604051602081039080840390855afa1580156124ba573d6000803e3d6000fd5b505050602060405103519050600073ffffffffffffffffffffffffffffffffffffffff168173ffffffffffffffffffffffffffffffffffffffff16141561250957600060019250925050612512565b80600092509250505b94509492505050565b6000600481111561252f5761252e613596565b5b81600481111561254257612541613596565b5b141561254d576126ed565b6001600481111561256157612560613596565b5b81600481111561257457612573613596565b5b14156125b5576040517f08c379a00000000000000000000000000000000000000000000000000000000081526004016125ac90614bf5565b60405180910390fd5b600260048111156125c9576125c8613596565b5b8160048111156125dc576125db613596565b5b141561261d576040517f08c379a000000000000000000000000000000000000000000000000000000000815260040161261490614c61565b60405180910390fd5b6003600481111561263157612630613596565b5b81600481111561264457612643613596565b5b1415612685576040517f08c379a000000000000000000000000000000000000000000000000000000000815260040161267c90614cf3565b60405180910390fd5b60048081111561269857612697613596565b5b8160048111156126ab576126aa613596565b5b14156126ec576040517f08c379a00000000000000000000000000000000000000000000000000000000081526004016126e390614d85565b60405180910390fd5b5b50565b60006002600086815260200190815260200160002090508060030160008573ffffffffffffffffffffffffffffffffffffffff1673ffffffffffffffffffffffffffffffffffffffff16815260200190815260200160002060009054906101000a900460ff1615612796576040517f08c379a000000000000000000000000000000000000000000000000000000000815260040161278d90614e17565b60405180910390fd5b60018160030160008673ffffffffffffffffffffffffffffffffffffffff1673ffffffffffffffffffffffffffffffffffffffff16815260200190815260200160002060006101000a81548160ff0219169083151502179055506000600281111561280457612803613596565b5b60ff168360ff16141561283157818160000160008282546128259190614197565b925050819055506128ef565b6001600281111561284557612844613596565b5b60ff168360ff16141561287257818160010160008282546128669190614197565b925050819055506128ee565b60028081111561288557612884613596565b5b60ff168360ff1614156128b257818160020160008282546128a69190614197565b925050819055506128ed565b6040517f08c379a00000000000000000000000000000000000000000000000000000000081526004016128e490614ea9565b60405180910390fd5b5b5b5050505050565b60008060016000848152602001908152602001600020604051806080016040529081600082016040518060200160405290816000820160009054906101000a900467ffffffffffffffff1667ffffffffffffffff1667ffffffffffffffff16815250508152602001600182016040518060200160405290816000820160009054906101000a900467ffffffffffffffff1667ffffffffffffffff1667ffffffffffffffff168152505081526020016002820160009054906101000a900460ff161515151581526020016002820160019054906101000a900460ff16151515158152505090508060400151156129ef576007915050612ace565b806060015115612a03576002915050612ace565b43612a1182600001516119a1565b67ffffffffffffffff1610612a2a576000915050612ace565b43612a3882602001516119a1565b67ffffffffffffffff1610612a51576001915050612ace565b612a5e8160200151612c17565b15612a9357612a6c83612c43565b8015612a7d5750612a7c83612c8a565b5b612a88576003612a8b565b60045b915050612ace565b6040517f08c379a0000000000000000000000000000000000000000000000000000000008152600401612ac590614f15565b60405180910390fd5b919050565b600080826000015167ffffffffffffffff16149050919050565b600067ffffffffffffffff8016821115612b3c576040517f08c379a0000000000000000000000000000000000000000000000000000000008152600401612b3390614fa7565b60405180910390fd5b819050919050565b808260000160006101000a81548167ffffffffffffffff021916908367ffffffffffffffff1602179055505050565b60007f01ffc9a7000000000000000000000000000000000000000000000000000000007bffffffffffffffffffffffffffffffffffffffffffffffffffffffff1916827bffffffffffffffffffffffffffffffffffffffffffffffffffffffff1916149050919050565b60008383834630604051602001612bf8959493929190614fc7565b6040516020818303038152906040528051906020012090509392505050565b6000612c2282612cb5565b8015612c3c575043826000015167ffffffffffffffff1611155b9050919050565b60008060026000848152602001908152602001600020905080600201548160010154612c6f9190614197565b612c80612c7b85611037565b611816565b1115915050919050565b6000806002600084815260200190815260200160002090508060000154816001015411915050919050565b600080826000015167ffffffffffffffff16119050919050565b828054612cdb90613bfb565b90600052602060002090601f016020900481019282612cfd5760008555612d44565b82601f10612d1657805160ff1916838001178555612d44565b82800160010185558215612d44579182015b82811115612d43578251825591602001919060010190612d28565b5b509050612d519190612d55565b5090565b5b80821115612d6e576000816000905550600101612d56565b5090565b6000604051905090565b600080fd5b600080fd5b6000819050919050565b612d9981612d86565b8114612da457600080fd5b50565b600081359050612db681612d90565b92915050565b600060208284031215612dd257612dd1612d7c565b5b6000612de084828501612da7565b91505092915050565b612df281612d86565b82525050565b600081519050919050565b600082825260208201905092915050565b60005b83811015612e32578082015181840152602081019050612e17565b83811115612e41576000848401525b50505050565b6000601f19601f8301169050919050565b6000612e6382612df8565b612e6d8185612e03565b9350612e7d818560208601612e14565b612e8681612e47565b840191505092915050565b600073ffffffffffffffffffffffffffffffffffffffff82169050919050565b6000612ebc82612e91565b9050919050565b612ecc81612eb1565b82525050565b600060a082019050612ee76000830188612de9565b8181036020830152612ef98187612e58565b9050612f086040830186612ec3565b612f156060830185612ec3565b612f226080830184612de9565b9695505050505050565b60007fffffffff0000000000000000000000000000000000000000000000000000000082169050919050565b612f6181612f2c565b8114612f6c57600080fd5b50565b600081359050612f7e81612f58565b92915050565b600060208284031215612f9a57612f99612d7c565b5b6000612fa884828501612f6f565b91505092915050565b60008115159050919050565b612fc681612fb1565b82525050565b6000602082019050612fe16000830184612fbd565b92915050565b6000602082019050612ffc6000830184612de9565b92915050565b6000602082019050818103600083015261301c8184612e58565b905092915050565b600080fd5b7f4e487b7100000000000000000000000000000000000000000000000000000000600052604160045260246000fd5b61306182612e47565b810181811067ffffffffffffffff821117156130805761307f613029565b5b80604052505050565b6000613093612d72565b905061309f8282613058565b919050565b600067ffffffffffffffff8211156130bf576130be613029565b5b602082029050602081019050919050565b600080fd5b6130de81612eb1565b81146130e957600080fd5b50565b6000813590506130fb816130d5565b92915050565b600061311461310f846130a4565b613089565b90508083825260208201905060208402830185811115613137576131366130d0565b5b835b81811015613160578061314c88826130ec565b845260208401935050602081019050613139565b5050509392505050565b600082601f83011261317f5761317e613024565b5b813561318f848260208601613101565b91505092915050565b600067ffffffffffffffff8211156131b3576131b2613029565b5b602082029050602081019050919050565b60006131d76131d284613198565b613089565b905080838252602082019050602084028301858111156131fa576131f96130d0565b5b835b81811015613223578061320f8882612da7565b8452602084019350506020810190506131fc565b5050509392505050565b600082601f83011261324257613241613024565b5b81356132528482602086016131c4565b91505092915050565b600067ffffffffffffffff82111561327657613275613029565b5b602082029050602081019050919050565b600080fd5b600067ffffffffffffffff8211156132a7576132a6613029565b5b6132b082612e47565b9050602081019050919050565b82818337600083830152505050565b60006132df6132da8461328c565b613089565b9050828152602081018484840111156132fb576132fa613287565b5b6133068482856132bd565b509392505050565b600082601f83011261332357613322613024565b5b81356133338482602086016132cc565b91505092915050565b600061334f61334a8461325b565b613089565b90508083825260208201905060208402830185811115613372576133716130d0565b5b835b818110156133b957803567ffffffffffffffff81111561339757613396613024565b5b8086016133a4898261330e565b85526020850194505050602081019050613374565b5050509392505050565b600082601f8301126133d8576133d7613024565b5b81356133e884826020860161333c565b91505092915050565b6000819050919050565b613404816133f1565b811461340f57600080fd5b50565b600081359050613421816133fb565b92915050565b6000806000806080858703121561344157613440612d7c565b5b600085013567ffffffffffffffff81111561345f5761345e612d81565b5b61346b8782880161316a565b945050602085013567ffffffffffffffff81111561348c5761348b612d81565b5b6134988782880161322d565b935050604085013567ffffffffffffffff8111156134b9576134b8612d81565b5b6134c5878288016133c3565b92505060606134d687828801613412565b91505092959194509250565b600060ff82169050919050565b6134f8816134e2565b811461350357600080fd5b50565b600081359050613515816134ef565b92915050565b600080600080600060a0868803121561353757613536612d7c565b5b600061354588828901612da7565b955050602061355688828901613506565b945050604061356788828901613506565b935050606061357888828901613412565b925050608061358988828901613412565b9150509295509295909350565b7f4e487b7100000000000000000000000000000000000000000000000000000000600052602160045260246000fd5b600881106135d6576135d5613596565b5b50565b60008190506135e7826135c5565b919050565b60006135f7826135d9565b9050919050565b613607816135ec565b82525050565b600060208201905061362260008301846135fe565b92915050565b6000806040838503121561363f5761363e612d7c565b5b600061364d85828601612da7565b925050602061365e858286016130ec565b9150509250929050565b600060608201905061367d6000830186612de9565b61368a6020830185612de9565b6136976040830184612de9565b949350505050565b600080604083850312156136b6576136b5612d7c565b5b60006136c485828601612da7565b92505060206136d585828601613506565b9150509250929050565b60006020820190506136f46000830184612ec3565b92915050565b600080fd5b60008083601f84011261371557613714613024565b5b8235905067ffffffffffffffff811115613732576137316136fa565b5b60208301915083600182028301111561374e5761374d6130d0565b5b9250929050565b6000806000806060858703121561376f5761376e612d7c565b5b600061377d87828801612da7565b945050602061378e87828801613506565b935050604085013567ffffffffffffffff8111156137af576137ae612d81565b5b6137bb878288016136ff565b925092505092959194509250565b600067ffffffffffffffff8211156137e4576137e3613029565b5b6137ed82612e47565b9050602081019050919050565b600061380d613808846137c9565b613089565b90508281526020810184848401111561382957613828613287565b5b6138348482856132bd565b509392505050565b600082601f83011261385157613850613024565b5b81356138618482602086016137fa565b91505092915050565b6000806000806080858703121561388457613883612d7c565b5b600085013567ffffffffffffffff8111156138a2576138a1612d81565b5b6138ae8782880161316a565b945050602085013567ffffffffffffffff8111156138cf576138ce612d81565b5b6138db8782880161322d565b935050604085013567ffffffffffffffff8111156138fc576138fb612d81565b5b613908878288016133c3565b925050606085013567ffffffffffffffff81111561392957613928612d81565b5b6139358782880161383c565b91505092959194509250565b600061394c82612e91565b9050919050565b600061395e82613941565b9050919050565b61396e81613953565b811461397957600080fd5b50565b60008135905061398b81613965565b92915050565b6000602082840312156139a7576139a6612d7c565b5b60006139b58482850161397c565b91505092915050565b6000602082840312156139d4576139d3612d7c565b5b60006139e2848285016130ec565b91505092915050565b6139f4816133f1565b82525050565b6000602082019050613a0f60008301846139eb565b92915050565b60008060408385031215613a2c57613a2b612d7c565b5b6000613a3a858286016130ec565b9250506020613a4b85828601612da7565b9150509250929050565b60008060008060008060c08789031215613a7257613a71612d7c565b5b600087013567ffffffffffffffff811115613a9057613a8f612d81565b5b613a9c89828a0161316a565b965050602087013567ffffffffffffffff811115613abd57613abc612d81565b5b613ac989828a0161322d565b955050604087013567ffffffffffffffff811115613aea57613ae9612d81565b5b613af689828a016133c3565b945050606087013567ffffffffffffffff811115613b1757613b16612d81565b5b613b2389828a0161383c565b9350506080613b3489828a016130ec565b92505060a0613b4589828a01612da7565b9150509295509295509295565b6000819050919050565b6000613b77613b72613b6d84612e91565b613b52565b612e91565b9050919050565b6000613b8982613b5c565b9050919050565b6000613b9b82613b7e565b9050919050565b613bab81613b90565b82525050565b6000602082019050613bc66000830184613ba2565b92915050565b7f4e487b7100000000000000000000000000000000000000000000000000000000600052602260045260246000fd5b60006002820490506001821680613c1357607f821691505b60208210811415613c2757613c26613bcc565b5b50919050565b7f476f7665726e6f723a206f6e6c79476f7665726e616e63650000000000000000600082015250565b6000613c63601883612e03565b9150613c6e82613c2d565b602082019050919050565b60006020820190508181036000830152613c9281613c56565b9050919050565b7f476f7665726e6f723a2070726f706f73616c206e6f742073756363657373667560008201527f6c00000000000000000000000000000000000000000000000000000000000000602082015250565b6000613cf5602183612e03565b9150613d0082613c99565b604082019050919050565b60006020820190508181036000830152613d2481613ce8565b9050919050565b600081519050613d3a81612d90565b92915050565b600060208284031215613d5657613d55612d7c565b5b6000613d6484828501613d2b565b91505092915050565b600081519050919050565b600082825260208201905092915050565b6000819050602082019050919050565b613da281612eb1565b82525050565b6000613db48383613d99565b60208301905092915050565b6000602082019050919050565b6000613dd882613d6d565b613de28185613d78565b9350613ded83613d89565b8060005b83811015613e1e578151613e058882613da8565b9750613e1083613dc0565b925050600181019050613df1565b5085935050505092915050565b600081519050919050565b600082825260208201905092915050565b6000819050602082019050919050565b613e6081612d86565b82525050565b6000613e728383613e57565b60208301905092915050565b6000602082019050919050565b6000613e9682613e2b565b613ea08185613e36565b9350613eab83613e47565b8060005b83811015613edc578151613ec38882613e66565b9750613ece83613e7e565b925050600181019050613eaf565b5085935050505092915050565b600081519050919050565b600082825260208201905092915050565b6000819050602082019050919050565b600081519050919050565b600082825260208201905092915050565b6000613f3c82613f15565b613f468185613f20565b9350613f56818560208601612e14565b613f5f81612e47565b840191505092915050565b6000613f768383613f31565b905092915050565b6000602082019050919050565b6000613f9682613ee9565b613fa08185613ef4565b935083602082028501613fb285613f05565b8060005b85811015613fee5784840389528151613fcf8582613f6a565b9450613fda83613f7e565b925060208a01995050600181019050613fb6565b50829750879550505050505092915050565b6000819050919050565b60008160001b9050919050565b600061403261402d61402884614000565b61400a565b6133f1565b9050919050565b61404281614017565b82525050565b600060a08201905081810360008301526140628188613dcd565b905081810360208301526140768187613e8b565b9050818103604083015261408a8186613f8b565b90506140996060830185614039565b6140a660808301846139eb565b9695505050505050565b6000815190506140bf816133fb565b92915050565b6000602082840312156140db576140da612d7c565b5b60006140e9848285016140b0565b91505092915050565b600060c082019050818103600083015261410c8189613dcd565b905081810360208301526141208188613e8b565b905081810360408301526141348187613f8b565b90506141436060830186614039565b61415060808301856139eb565b61415d60a0830184612de9565b979650505050505050565b7f4e487b7100000000000000000000000000000000000000000000000000000000600052601160045260246000fd5b60006141a282612d86565b91506141ad83612d86565b9250827fffffffffffffffffffffffffffffffffffffffffffffffffffffffffffffffff038211156141e2576141e1614168565b5b828201905092915050565b60006040820190506142026000830185612de9565b61420f6020830184612de9565b9392505050565b61421f816134e2565b82525050565b600060608201905061423a60008301866139eb565b6142476020830185612de9565b6142546040830184614216565b949350505050565b600060808201905081810360008301526142768187613dcd565b9050818103602083015261428a8186613e8b565b9050818103604083015261429e8185613f8b565b90506142ad60608301846139eb565b95945050505050565b60006142c182612d86565b91507fffffffffffffffffffffffffffffffffffffffffffffffffffffffffffffffff8214156142f4576142f3614168565b5b600182019050919050565b7f476f7665726e6f72566f74657351756f72756d4672616374696f6e3a2071756f60008201527f72756d4e756d657261746f72206f7665722071756f72756d44656e6f6d696e6160208201527f746f720000000000000000000000000000000000000000000000000000000000604082015250565b6000614381604383612e03565b915061438c826142ff565b606082019050919050565b600060208201905081810360008301526143b081614374565b9050919050565b7f476f7665726e6f723a20766f7465206e6f742063757272656e746c792061637460008201527f6976650000000000000000000000000000000000000000000000000000000000602082015250565b6000614413602383612e03565b915061441e826143b7565b604082019050919050565b6000602082019050818103600083015261444281614406565b9050919050565b600060808201905061445e6000830187612de9565b61446b6020830186614216565b6144786040830185612de9565b818103606083015261448a8184612e58565b905095945050505050565b61449e81612fb1565b81146144a957600080fd5b50565b6000815190506144bb81614495565b92915050565b6000602082840312156144d7576144d6612d7c565b5b60006144e5848285016144ac565b91505092915050565b60006144f982612d86565b915061450483612d86565b92508282101561451757614516614168565b5b828203905092915050565b7f476f7665726e6f72436f6d7061746962696c697479427261766f3a2070726f7060008201527f6f73657220766f7465732062656c6f772070726f706f73616c2074687265736860208201527f6f6c640000000000000000000000000000000000000000000000000000000000604082015250565b60006145a4604383612e03565b91506145af82614522565b606082019050919050565b600060208201905081810360008301526145d381614597565b9050919050565b7f476f7665726e6f723a20696e76616c69642070726f706f73616c206c656e677460008201527f6800000000000000000000000000000000000000000000000000000000000000602082015250565b6000614636602183612e03565b9150614641826145da565b604082019050919050565b6000602082019050818103600083015261466581614629565b9050919050565b7f476f7665726e6f723a20656d7074792070726f706f73616c0000000000000000600082015250565b60006146a2601883612e03565b91506146ad8261466c565b602082019050919050565b600060208201905081810360008301526146d181614695565b9050919050565b7f476f7665726e6f723a2070726f706f73616c20616c726561647920657869737460008201527f7300000000000000000000000000000000000000000000000000000000000000602082015250565b6000614734602183612e03565b915061473f826146d8565b604082019050919050565b6000602082019050818103600083015261476381614727565b9050919050565b600067ffffffffffffffff82169050919050565b60006147898261476a565b91506147948361476a565b92508267ffffffffffffffff038211156147b1576147b0614168565b5b828201905092915050565b600081519050919050565b600082825260208201905092915050565b6000819050602082019050919050565b600082825260208201905092915050565b600061480482612df8565b61480e81856147e8565b935061481e818560208601612e14565b61482781612e47565b840191505092915050565b600061483e83836147f9565b905092915050565b6000602082019050919050565b600061485e826147bc565b61486881856147c7565b93508360208202850161487a856147d8565b8060005b858110156148b657848403895281516148978582614832565b94506148a283614846565b925060208a0199505060018101905061487e565b50829750879550505050505092915050565b60006148e36148de6148d98461476a565b613b52565b612d86565b9050919050565b6148f3816148c8565b82525050565b60006101208201905061490f600083018c612de9565b61491c602083018b612ec3565b818103604083015261492e818a613dcd565b905081810360608301526149428189613e8b565b905081810360808301526149568188614853565b905081810360a083015261496a8187613f8b565b905061497960c08301866148ea565b61498660e08301856148ea565b8181036101008301526149998184612e58565b90509a9950505050505050505050565b60006040820190506149be6000830185612ec3565b6149cb6020830184612ec3565b9392505050565b60006040820190506149e76000830185612ec3565b6149f46020830184612de9565b9392505050565b6000614a0682612d86565b9150614a1183612d86565b9250817fffffffffffffffffffffffffffffffffffffffffffffffffffffffffffffffff0483118215151615614a4a57614a49614168565b5b828202905092915050565b7f4e487b7100000000000000000000000000000000000000000000000000000000600052601260045260246000fd5b6000614a8f82612d86565b9150614a9a83612d86565b925082614aaa57614aa9614a55565b5b828204905092915050565b600081905092915050565b7f1901000000000000000000000000000000000000000000000000000000000000600082015250565b6000614af6600283614ab5565b9150614b0182614ac0565b600282019050919050565b6000819050919050565b614b27614b22826133f1565b614b0c565b82525050565b6000614b3882614ae9565b9150614b448285614b16565b602082019150614b548284614b16565b6020820191508190509392505050565b6000608082019050614b7960008301876139eb565b614b866020830186614216565b614b9360408301856139eb565b614ba060608301846139eb565b95945050505050565b7f45434453413a20696e76616c6964207369676e61747572650000000000000000600082015250565b6000614bdf601883612e03565b9150614bea82614ba9565b602082019050919050565b60006020820190508181036000830152614c0e81614bd2565b9050919050565b7f45434453413a20696e76616c6964207369676e6174757265206c656e67746800600082015250565b6000614c4b601f83612e03565b9150614c5682614c15565b602082019050919050565b60006020820190508181036000830152614c7a81614c3e565b9050919050565b7f45434453413a20696e76616c6964207369676e6174757265202773272076616c60008201527f7565000000000000000000000000000000000000000000000000000000000000602082015250565b6000614cdd602283612e03565b9150614ce882614c81565b604082019050919050565b60006020820190508181036000830152614d0c81614cd0565b9050919050565b7f45434453413a20696e76616c6964207369676e6174757265202776272076616c60008201527f7565000000000000000000000000000000000000000000000000000000000000602082015250565b6000614d6f602283612e03565b9150614d7a82614d13565b604082019050919050565b60006020820190508181036000830152614d9e81614d62565b9050919050565b7f476f7665726e6f72566f74696e6753696d706c653a20766f746520616c72656160008201527f6479206361737400000000000000000000000000000000000000000000000000602082015250565b6000614e01602783612e03565b9150614e0c82614da5565b604082019050919050565b60006020820190508181036000830152614e3081614df4565b9050919050565b7f476f7665726e6f72566f74696e6753696d706c653a20696e76616c696420766160008201527f6c756520666f7220656e756d20566f7465547970650000000000000000000000602082015250565b6000614e93603583612e03565b9150614e9e82614e37565b604082019050919050565b60006020820190508181036000830152614ec281614e86565b9050919050565b7f476f7665726e6f723a20756e6b6e6f776e2070726f706f73616c206964000000600082015250565b6000614eff601d83612e03565b9150614f0a82614ec9565b602082019050919050565b60006020820190508181036000830152614f2e81614ef2565b9050919050565b7f53616665436173743a2076616c756520646f65736e27742066697420696e203660008201527f3420626974730000000000000000000000000000000000000000000000000000602082015250565b6000614f91602683612e03565b9150614f9c82614f35565b604082019050919050565b60006020820190508181036000830152614fc081614f84565b9050919050565b600060a082019050614fdc60008301886139eb565b614fe960208301876139eb565b614ff660408301866139eb565b6150036060830185612de9565b6150106080830184612ec3565b969550505050505056fea2646970667358221220a7b0ab59b7bc6e18aee4a63c6c1e50a69787328d7b4d52b065b0a2d4d4300d5464736f6c63430008090033",
  "immutableReferences": {
    "2826": [
      {
        "length": 32,
        "start": 6186
      },
      {
        "length": 32,
        "start": 8226
      },
      {
        "length": 32,
        "start": 8423
      }
    ],
    "5704": [
      {
        "length": 32,
        "start": 9028
      }
    ],
    "5706": [
      {
        "length": 32,
        "start": 8987
      }
    ],
    "5708": [
      {
        "length": 32,
        "start": 8901
      }
    ],
    "5710": [
      {
        "length": 32,
        "start": 9104
      }
    ],
    "5712": [
      {
        "length": 32,
        "start": 9137
      }
    ],
    "5714": [
      {
        "length": 32,
        "start": 9071
      }
    ]
  },
  "source": "// SPDX-License-Identifier: MIT\r\npragma solidity ^0.8.0;\r\n\r\nimport \"@openzeppelin/contracts/governance/Governor.sol\";\r\nimport \"@openzeppelin/contracts/governance/extensions/GovernorCountingSimple.sol\";\r\nimport \"@openzeppelin/contracts/governance/extensions/GovernorVotes.sol\";\r\nimport \"@openzeppelin/contracts/governance/extensions/GovernorVotesQuorumFraction.sol\";\r\nimport \"@openzeppelin/contracts/governance/extensions/GovernorTimelockControl.sol\";\r\n\r\n// NOTE: Contract created with the help of --> https://wizard.openzeppelin.com/#governor\r\n\r\ncontract Governance is\r\n    Governor,\r\n    GovernorCountingSimple,\r\n    GovernorVotes,\r\n    GovernorVotesQuorumFraction,\r\n    GovernorTimelockControl\r\n{\r\n    address owner;\r\n    uint256 public votingDelay_;\r\n    uint256 public votingPeriod_;\r\n\r\n    uint256 public totalMembers = 0;\r\n    uint256 public totalProposals = 0;\r\n    mapping(uint => address) public members;\r\n\r\n    struct Proposal {\r\n        uint256 id;\r\n        string description;\r\n        address creatorAddress;\r\n        address receiptAddress;\r\n        uint256 amount;\r\n    }\r\n\r\n    mapping(uint => Proposal) public proposals;\r\n\r\n    modifier onlyOwner {\r\n        require(owner == msg.sender);\r\n        _;\r\n    }\r\n\r\n    constructor(\r\n        ERC20Votes _token,\r\n        TimelockController _timelock,\r\n        uint256 _quorum,\r\n        uint256 _votingDelay,\r\n        uint256 _votingPeriod\r\n    )\r\n        Governor(\"Builder DAO\")\r\n        GovernorVotes(_token)\r\n        GovernorVotesQuorumFraction(_quorum)\r\n        GovernorTimelockControl(_timelock)\r\n    {\r\n        votingDelay_ = _votingDelay;\r\n        votingPeriod_ = _votingPeriod;\r\n        owner = msg.sender;\r\n        addMember(msg.sender);\r\n    }\r\n\r\n    function votingDelay() public view override returns (uint256) {\r\n        return votingDelay_;\r\n    }\r\n\r\n    function votingPeriod() public view override returns (uint256) {\r\n        return votingPeriod_;\r\n    }\r\n\r\n    // The following functions are overrides required by Solidity.\r\n\r\n    function quorum(uint256 blockNumber)\r\n        public\r\n        view\r\n        override(IGovernor, GovernorVotesQuorumFraction)\r\n        returns (uint256)\r\n    {\r\n        return super.quorum(blockNumber);\r\n    }\r\n\r\n    function getVotes(address account, uint256 blockNumber)\r\n        public\r\n        view\r\n        override(IGovernor, GovernorVotes)\r\n        returns (uint256)\r\n    {\r\n        return super.getVotes(account, blockNumber);\r\n    }\r\n\r\n    function state(uint256 proposalId)\r\n        public\r\n        view\r\n        override(Governor, GovernorTimelockControl)\r\n        returns (ProposalState)\r\n    {\r\n        return super.state(proposalId);\r\n    }\r\n\r\n    function propose(\r\n        address[] memory targets,\r\n        uint256[] memory values,\r\n        bytes[] memory calldatas,\r\n        string memory description\r\n    ) public override(Governor, IGovernor) returns (uint256) {\r\n        return super.propose(targets, values, calldatas, description);\r\n    }\r\n\r\n    function createProposal(\r\n        address[] memory targets,\r\n        uint256[] memory values,\r\n        bytes[] memory calldatas,\r\n        string memory description,\r\n        address receiptAddress,\r\n        uint256 amount\r\n    ) public returns (uint256) {\r\n        uint256 proposalId;\r\n        proposalId = propose(targets, values, calldatas, description);\r\n        totalProposals++;\r\n        proposals[totalProposals] = Proposal(proposalId, description, msg.sender, receiptAddress, amount);\r\n        return proposalId;\r\n    }\r\n\r\n    function _execute(\r\n        uint256 proposalId,\r\n        address[] memory targets,\r\n        uint256[] memory values,\r\n        bytes[] memory calldatas,\r\n        bytes32 descriptionHash\r\n    ) internal override(Governor, GovernorTimelockControl) {\r\n        super._execute(proposalId, targets, values, calldatas, descriptionHash);\r\n    }\r\n\r\n    function _cancel(\r\n        address[] memory targets,\r\n        uint256[] memory values,\r\n        bytes[] memory calldatas,\r\n        bytes32 descriptionHash\r\n    ) internal override(Governor, GovernorTimelockControl) returns (uint256) {\r\n        return super._cancel(targets, values, calldatas, descriptionHash);\r\n    }\r\n\r\n    function _executor()\r\n        internal\r\n        view\r\n        override(Governor, GovernorTimelockControl)\r\n        returns (address)\r\n    {\r\n        return super._executor();\r\n    }\r\n\r\n    function supportsInterface(bytes4 interfaceId)\r\n        public\r\n        view\r\n        override(Governor, GovernorTimelockControl)\r\n        returns (bool)\r\n    {\r\n        return super.supportsInterface(interfaceId);\r\n    }\r\n\r\n    function addMember(address _member) public onlyOwner {\r\n        totalMembers++;\r\n        members[totalMembers] = _member;\r\n    }\r\n}\r\n",
  "sourcePath": "D:\\rajesh-muskan\\governance\\contracts\\Governance.sol",
  "compiler": {
    "name": "solc",
    "version": "0.8.9+commit.e5eed63a.Emscripten.clang"
  },
  "schemaVersion": "3.4.9",
  "updatedAt": "2022-09-12T09:46:54.246Z",
  "networkType": "ethereum",
  "devdoc": {
    "kind": "dev",
    "methods": {
      "COUNTING_MODE()": {
        "details": "See {IGovernor-COUNTING_MODE}."
      },
      "castVote(uint256,uint8)": {
        "details": "See {IGovernor-castVote}."
      },
      "castVoteBySig(uint256,uint8,uint8,bytes32,bytes32)": {
        "details": "See {IGovernor-castVoteBySig}."
      },
      "castVoteWithReason(uint256,uint8,string)": {
        "details": "See {IGovernor-castVoteWithReason}."
      },
      "execute(address[],uint256[],bytes[],bytes32)": {
        "details": "See {IGovernor-execute}."
      },
      "hasVoted(uint256,address)": {
        "details": "See {IGovernor-hasVoted}."
      },
      "hashProposal(address[],uint256[],bytes[],bytes32)": {
        "details": "See {IGovernor-hashProposal}. The proposal id is produced by hashing the RLC encoded `targets` array, the `values` array, the `calldatas` array and the descriptionHash (bytes32 which itself is the keccak256 hash of the description string). This proposal id can be produced from the proposal data which is part of the {ProposalCreated} event. It can even be computed in advance, before the proposal is submitted. Note that the chainId and the governor address are not part of the proposal id computation. Consequently, the same proposal (with same operation and same description) will have the same id if submitted on multiple governors accross multiple networks. This also means that in order to execute the same operation twice (on the same governor) the proposer will have to change the description in order to avoid proposal id conflicts."
      },
      "name()": {
        "details": "See {IGovernor-name}."
      },
      "proposalDeadline(uint256)": {
        "details": "See {IGovernor-proposalDeadline}."
      },
      "proposalEta(uint256)": {
        "details": "Public accessor to check the eta of a queued proposal"
      },
      "proposalSnapshot(uint256)": {
        "details": "See {IGovernor-proposalSnapshot}."
      },
      "proposalThreshold()": {
        "details": "Part of the Governor Bravo's interface: _\"The number of votes required in order for a voter to become a proposer\"_."
      },
      "proposalVotes(uint256)": {
        "details": "Accessor to the internal vote counts."
      },
      "queue(address[],uint256[],bytes[],bytes32)": {
        "details": "Function to queue a proposal to the timelock."
      },
      "timelock()": {
        "details": "Public accessor to check the address of the timelock"
      },
      "updateTimelock(address)": {
        "details": "Public endpoint to update the underlying timelock instance. Restricted to the timelock itself, so updates must be proposed, scheduled and executed using the {Governor} workflow."
      },
      "version()": {
        "details": "See {IGovernor-version}."
      },
      "votingDelay()": {
        "details": "Delay, in number of block, between the proposal is created and the vote starts. This can be increassed to leave time for users to buy voting power, of delegate it, before the voting of a proposal starts."
      },
      "votingPeriod()": {
        "details": "Delay, in number of blocks, between the vote start and vote ends. NOTE: The {votingDelay} can delay the start of the vote. This must be considered when setting the voting duration compared to the voting delay."
      }
    },
    "version": 1
  },
  "userdoc": {
    "kind": "user",
    "methods": {
      "votingDelay()": {
        "notice": "module:user-config"
      },
      "votingPeriod()": {
        "notice": "module:user-config"
      }
    },
    "version": 1
  }
}