{
  "contractName": "TimeLock",
  "abi": [
    {
      "inputs": [
        {
          "internalType": "uint256",
          "name": "_minDelay",
          "type": "uint256"
        },
        {
          "internalType": "address[]",
          "name": "_proposers",
          "type": "address[]"
        },
        {
          "internalType": "address[]",
          "name": "_executors",
          "type": "address[]"
        }
      ],
      "stateMutability": "nonpayable",
      "type": "constructor"
    },
    {
      "anonymous": false,
      "inputs": [
        {
          "indexed": true,
          "internalType": "bytes32",
          "name": "id",
          "type": "bytes32"
        },
        {
          "indexed": true,
          "internalType": "uint256",
          "name": "index",
          "type": "uint256"
        },
        {
          "indexed": false,
          "internalType": "address",
          "name": "target",
          "type": "address"
        },
        {
          "indexed": false,
          "internalType": "uint256",
          "name": "value",
          "type": "uint256"
        },
        {
          "indexed": false,
          "internalType": "bytes",
          "name": "data",
          "type": "bytes"
        }
      ],
      "name": "CallExecuted",
      "type": "event"
    },
    {
      "anonymous": false,
      "inputs": [
        {
          "indexed": true,
          "internalType": "bytes32",
          "name": "id",
          "type": "bytes32"
        },
        {
          "indexed": true,
          "internalType": "uint256",
          "name": "index",
          "type": "uint256"
        },
        {
          "indexed": false,
          "internalType": "address",
          "name": "target",
          "type": "address"
        },
        {
          "indexed": false,
          "internalType": "uint256",
          "name": "value",
          "type": "uint256"
        },
        {
          "indexed": false,
          "internalType": "bytes",
          "name": "data",
          "type": "bytes"
        },
        {
          "indexed": false,
          "internalType": "bytes32",
          "name": "predecessor",
          "type": "bytes32"
        },
        {
          "indexed": false,
          "internalType": "uint256",
          "name": "delay",
          "type": "uint256"
        }
      ],
      "name": "CallScheduled",
      "type": "event"
    },
    {
      "anonymous": false,
      "inputs": [
        {
          "indexed": true,
          "internalType": "bytes32",
          "name": "id",
          "type": "bytes32"
        }
      ],
      "name": "Cancelled",
      "type": "event"
    },
    {
      "anonymous": false,
      "inputs": [
        {
          "indexed": false,
          "internalType": "uint256",
          "name": "oldDuration",
          "type": "uint256"
        },
        {
          "indexed": false,
          "internalType": "uint256",
          "name": "newDuration",
          "type": "uint256"
        }
      ],
      "name": "MinDelayChange",
      "type": "event"
    },
    {
      "anonymous": false,
      "inputs": [
        {
          "indexed": true,
          "internalType": "bytes32",
          "name": "role",
          "type": "bytes32"
        },
        {
          "indexed": true,
          "internalType": "bytes32",
          "name": "previousAdminRole",
          "type": "bytes32"
        },
        {
          "indexed": true,
          "internalType": "bytes32",
          "name": "newAdminRole",
          "type": "bytes32"
        }
      ],
      "name": "RoleAdminChanged",
      "type": "event"
    },
    {
      "anonymous": false,
      "inputs": [
        {
          "indexed": true,
          "internalType": "bytes32",
          "name": "role",
          "type": "bytes32"
        },
        {
          "indexed": true,
          "internalType": "address",
          "name": "account",
          "type": "address"
        },
        {
          "indexed": true,
          "internalType": "address",
          "name": "sender",
          "type": "address"
        }
      ],
      "name": "RoleGranted",
      "type": "event"
    },
    {
      "anonymous": false,
      "inputs": [
        {
          "indexed": true,
          "internalType": "bytes32",
          "name": "role",
          "type": "bytes32"
        },
        {
          "indexed": true,
          "internalType": "address",
          "name": "account",
          "type": "address"
        },
        {
          "indexed": true,
          "internalType": "address",
          "name": "sender",
          "type": "address"
        }
      ],
      "name": "RoleRevoked",
      "type": "event"
    },
    {
      "inputs": [],
      "name": "DEFAULT_ADMIN_ROLE",
      "outputs": [
        {
          "internalType": "bytes32",
          "name": "",
          "type": "bytes32"
        }
      ],
      "stateMutability": "view",
      "type": "function",
      "constant": true
    },
    {
      "inputs": [],
      "name": "EXECUTOR_ROLE",
      "outputs": [
        {
          "internalType": "bytes32",
          "name": "",
          "type": "bytes32"
        }
      ],
      "stateMutability": "view",
      "type": "function",
      "constant": true
    },
    {
      "inputs": [],
      "name": "PROPOSER_ROLE",
      "outputs": [
        {
          "internalType": "bytes32",
          "name": "",
          "type": "bytes32"
        }
      ],
      "stateMutability": "view",
      "type": "function",
      "constant": true
    },
    {
      "inputs": [],
      "name": "TIMELOCK_ADMIN_ROLE",
      "outputs": [
        {
          "internalType": "bytes32",
          "name": "",
          "type": "bytes32"
        }
      ],
      "stateMutability": "view",
      "type": "function",
      "constant": true
    },
    {
      "inputs": [
        {
          "internalType": "bytes32",
          "name": "id",
          "type": "bytes32"
        }
      ],
      "name": "cancel",
      "outputs": [],
      "stateMutability": "nonpayable",
      "type": "function"
    },
    {
      "inputs": [
        {
          "internalType": "address",
          "name": "target",
          "type": "address"
        },
        {
          "internalType": "uint256",
          "name": "value",
          "type": "uint256"
        },
        {
          "internalType": "bytes",
          "name": "data",
          "type": "bytes"
        },
        {
          "internalType": "bytes32",
          "name": "predecessor",
          "type": "bytes32"
        },
        {
          "internalType": "bytes32",
          "name": "salt",
          "type": "bytes32"
        }
      ],
      "name": "execute",
      "outputs": [],
      "stateMutability": "payable",
      "type": "function",
      "payable": true
    },
    {
      "inputs": [
        {
          "internalType": "address[]",
          "name": "targets",
          "type": "address[]"
        },
        {
          "internalType": "uint256[]",
          "name": "values",
          "type": "uint256[]"
        },
        {
          "internalType": "bytes[]",
          "name": "datas",
          "type": "bytes[]"
        },
        {
          "internalType": "bytes32",
          "name": "predecessor",
          "type": "bytes32"
        },
        {
          "internalType": "bytes32",
          "name": "salt",
          "type": "bytes32"
        }
      ],
      "name": "executeBatch",
      "outputs": [],
      "stateMutability": "payable",
      "type": "function",
      "payable": true
    },
    {
      "inputs": [],
      "name": "getMinDelay",
      "outputs": [
        {
          "internalType": "uint256",
          "name": "duration",
          "type": "uint256"
        }
      ],
      "stateMutability": "view",
      "type": "function",
      "constant": true
    },
    {
      "inputs": [
        {
          "internalType": "bytes32",
          "name": "role",
          "type": "bytes32"
        }
      ],
      "name": "getRoleAdmin",
      "outputs": [
        {
          "internalType": "bytes32",
          "name": "",
          "type": "bytes32"
        }
      ],
      "stateMutability": "view",
      "type": "function",
      "constant": true
    },
    {
      "inputs": [
        {
          "internalType": "bytes32",
          "name": "id",
          "type": "bytes32"
        }
      ],
      "name": "getTimestamp",
      "outputs": [
        {
          "internalType": "uint256",
          "name": "timestamp",
          "type": "uint256"
        }
      ],
      "stateMutability": "view",
      "type": "function",
      "constant": true
    },
    {
      "inputs": [
        {
          "internalType": "bytes32",
          "name": "role",
          "type": "bytes32"
        },
        {
          "internalType": "address",
          "name": "account",
          "type": "address"
        }
      ],
      "name": "grantRole",
      "outputs": [],
      "stateMutability": "nonpayable",
      "type": "function"
    },
    {
      "inputs": [
        {
          "internalType": "bytes32",
          "name": "role",
          "type": "bytes32"
        },
        {
          "internalType": "address",
          "name": "account",
          "type": "address"
        }
      ],
      "name": "hasRole",
      "outputs": [
        {
          "internalType": "bool",
          "name": "",
          "type": "bool"
        }
      ],
      "stateMutability": "view",
      "type": "function",
      "constant": true
    },
    {
      "inputs": [
        {
          "internalType": "address",
          "name": "target",
          "type": "address"
        },
        {
          "internalType": "uint256",
          "name": "value",
          "type": "uint256"
        },
        {
          "internalType": "bytes",
          "name": "data",
          "type": "bytes"
        },
        {
          "internalType": "bytes32",
          "name": "predecessor",
          "type": "bytes32"
        },
        {
          "internalType": "bytes32",
          "name": "salt",
          "type": "bytes32"
        }
      ],
      "name": "hashOperation",
      "outputs": [
        {
          "internalType": "bytes32",
          "name": "hash",
          "type": "bytes32"
        }
      ],
      "stateMutability": "pure",
      "type": "function",
      "constant": true
    },
    {
      "inputs": [
        {
          "internalType": "address[]",
          "name": "targets",
          "type": "address[]"
        },
        {
          "internalType": "uint256[]",
          "name": "values",
          "type": "uint256[]"
        },
        {
          "internalType": "bytes[]",
          "name": "datas",
          "type": "bytes[]"
        },
        {
          "internalType": "bytes32",
          "name": "predecessor",
          "type": "bytes32"
        },
        {
          "internalType": "bytes32",
          "name": "salt",
          "type": "bytes32"
        }
      ],
      "name": "hashOperationBatch",
      "outputs": [
        {
          "internalType": "bytes32",
          "name": "hash",
          "type": "bytes32"
        }
      ],
      "stateMutability": "pure",
      "type": "function",
      "constant": true
    },
    {
      "inputs": [
        {
          "internalType": "bytes32",
          "name": "id",
          "type": "bytes32"
        }
      ],
      "name": "isOperation",
      "outputs": [
        {
          "internalType": "bool",
          "name": "pending",
          "type": "bool"
        }
      ],
      "stateMutability": "view",
      "type": "function",
      "constant": true
    },
    {
      "inputs": [
        {
          "internalType": "bytes32",
          "name": "id",
          "type": "bytes32"
        }
      ],
      "name": "isOperationDone",
      "outputs": [
        {
          "internalType": "bool",
          "name": "done",
          "type": "bool"
        }
      ],
      "stateMutability": "view",
      "type": "function",
      "constant": true
    },
    {
      "inputs": [
        {
          "internalType": "bytes32",
          "name": "id",
          "type": "bytes32"
        }
      ],
      "name": "isOperationPending",
      "outputs": [
        {
          "internalType": "bool",
          "name": "pending",
          "type": "bool"
        }
      ],
      "stateMutability": "view",
      "type": "function",
      "constant": true
    },
    {
      "inputs": [
        {
          "internalType": "bytes32",
          "name": "id",
          "type": "bytes32"
        }
      ],
      "name": "isOperationReady",
      "outputs": [
        {
          "internalType": "bool",
          "name": "ready",
          "type": "bool"
        }
      ],
      "stateMutability": "view",
      "type": "function",
      "constant": true
    },
    {
      "inputs": [
        {
          "internalType": "bytes32",
          "name": "role",
          "type": "bytes32"
        },
        {
          "internalType": "address",
          "name": "account",
          "type": "address"
        }
      ],
      "name": "renounceRole",
      "outputs": [],
      "stateMutability": "nonpayable",
      "type": "function"
    },
    {
      "inputs": [
        {
          "internalType": "bytes32",
          "name": "role",
          "type": "bytes32"
        },
        {
          "internalType": "address",
          "name": "account",
          "type": "address"
        }
      ],
      "name": "revokeRole",
      "outputs": [],
      "stateMutability": "nonpayable",
      "type": "function"
    },
    {
      "inputs": [
        {
          "internalType": "address",
          "name": "target",
          "type": "address"
        },
        {
          "internalType": "uint256",
          "name": "value",
          "type": "uint256"
        },
        {
          "internalType": "bytes",
          "name": "data",
          "type": "bytes"
        },
        {
          "internalType": "bytes32",
          "name": "predecessor",
          "type": "bytes32"
        },
        {
          "internalType": "bytes32",
          "name": "salt",
          "type": "bytes32"
        },
        {
          "internalType": "uint256",
          "name": "delay",
          "type": "uint256"
        }
      ],
      "name": "schedule",
      "outputs": [],
      "stateMutability": "nonpayable",
      "type": "function"
    },
    {
      "inputs": [
        {
          "internalType": "address[]",
          "name": "targets",
          "type": "address[]"
        },
        {
          "internalType": "uint256[]",
          "name": "values",
          "type": "uint256[]"
        },
        {
          "internalType": "bytes[]",
          "name": "datas",
          "type": "bytes[]"
        },
        {
          "internalType": "bytes32",
          "name": "predecessor",
          "type": "bytes32"
        },
        {
          "internalType": "bytes32",
          "name": "salt",
          "type": "bytes32"
        },
        {
          "internalType": "uint256",
          "name": "delay",
          "type": "uint256"
        }
      ],
      "name": "scheduleBatch",
      "outputs": [],
      "stateMutability": "nonpayable",
      "type": "function"
    },
    {
      "inputs": [
        {
          "internalType": "bytes4",
          "name": "interfaceId",
          "type": "bytes4"
        }
      ],
      "name": "supportsInterface",
      "outputs": [
        {
          "internalType": "bool",
          "name": "",
          "type": "bool"
        }
      ],
      "stateMutability": "view",
      "type": "function",
      "constant": true
    },
    {
      "inputs": [
        {
          "internalType": "uint256",
          "name": "newDelay",
          "type": "uint256"
        }
      ],
      "name": "updateDelay",
      "outputs": [],
      "stateMutability": "nonpayable",
      "type": "function"
    },
    {
      "stateMutability": "payable",
      "type": "receive",
      "payable": true
    },
    {
      "inputs": [
        {
          "internalType": "address",
          "name": "payee",
          "type": "address"
        },
        {
          "internalType": "uint256",
          "name": "amount",
          "type": "uint256"
        }
      ],
      "name": "releaseFunds",
      "outputs": [],
      "stateMutability": "nonpayable",
      "type": "function"
    }
  ],
  "bytecode": "0x60806040523480156200001157600080fd5b50604051620036f2380380620036f28339818101604052810190620000379190620006d8565b8282826200006c7f5f58e3a2316349923ce3780f8d587db2d72378aed66a8261c916544fa6846ca580620002b460201b60201c565b620000be7fb09aa5aeb3702cfd50b6b62bc4532604938f21248a27a1d5ca736082b6819cc17f5f58e3a2316349923ce3780f8d587db2d72378aed66a8261c916544fa6846ca5620002b460201b60201c565b620001107fd8aa0f3194971a2a116679f7c2090f6939c8d4e01a2a8d7e41d55e5351469e637f5f58e3a2316349923ce3780f8d587db2d72378aed66a8261c916544fa6846ca5620002b460201b60201c565b620001517f5f58e3a2316349923ce3780f8d587db2d72378aed66a8261c916544fa6846ca5620001456200031760201b60201c565b6200031f60201b60201c565b620001837f5f58e3a2316349923ce3780f8d587db2d72378aed66a8261c916544fa6846ca5306200031f60201b60201c565b60005b8251811015620001f357620001df7fb09aa5aeb3702cfd50b6b62bc4532604938f21248a27a1d5ca736082b6819cc1848381518110620001cb57620001ca62000772565b5b60200260200101516200031f60201b60201c565b80620001eb90620007d0565b905062000186565b5060005b81518110156200026457620002507fd8aa0f3194971a2a116679f7c2090f6939c8d4e01a2a8d7e41d55e5351469e638383815181106200023c576200023b62000772565b5b60200260200101516200031f60201b60201c565b806200025c90620007d0565b9050620001f7565b50826002819055507f11c24f4ead16507c69ac467fbd5e4eed5fb5c699626d2cc6d66421df253886d5600084604051620002a09291906200087c565b60405180910390a1505050505050620008a9565b6000620002c7836200033560201b60201c565b905081600080858152602001908152602001600020600101819055508181847fbd79b86ffe0ab8e8776151514217cd7cacd52c909f66475c3af44e129f0b00ff60405160405180910390a4505050565b600033905090565b6200033182826200035460201b60201c565b5050565b6000806000838152602001908152602001600020600101549050919050565b6200036682826200044560201b60201c565b6200044157600160008084815260200190815260200160002060000160008373ffffffffffffffffffffffffffffffffffffffff1673ffffffffffffffffffffffffffffffffffffffff16815260200190815260200160002060006101000a81548160ff021916908315150217905550620003e66200031760201b60201c565b73ffffffffffffffffffffffffffffffffffffffff168173ffffffffffffffffffffffffffffffffffffffff16837f2f8788117e7eff1d82e926ec794901d17c78024a50270940304540a733656f0d60405160405180910390a45b5050565b600080600084815260200190815260200160002060000160008373ffffffffffffffffffffffffffffffffffffffff1673ffffffffffffffffffffffffffffffffffffffff16815260200190815260200160002060009054906101000a900460ff16905092915050565b6000604051905090565b600080fd5b600080fd5b6000819050919050565b620004d881620004c3565b8114620004e457600080fd5b50565b600081519050620004f881620004cd565b92915050565b600080fd5b6000601f19601f8301169050919050565b7f4e487b7100000000000000000000000000000000000000000000000000000000600052604160045260246000fd5b6200054e8262000503565b810181811067ffffffffffffffff8211171562000570576200056f62000514565b5b80604052505050565b600062000585620004af565b905062000593828262000543565b919050565b600067ffffffffffffffff821115620005b657620005b562000514565b5b602082029050602081019050919050565b600080fd5b600073ffffffffffffffffffffffffffffffffffffffff82169050919050565b6000620005f982620005cc565b9050919050565b6200060b81620005ec565b81146200061757600080fd5b50565b6000815190506200062b8162000600565b92915050565b600062000648620006428462000598565b62000579565b905080838252602082019050602084028301858111156200066e576200066d620005c7565b5b835b818110156200069b57806200068688826200061a565b84526020840193505060208101905062000670565b5050509392505050565b600082601f830112620006bd57620006bc620004fe565b5b8151620006cf84826020860162000631565b91505092915050565b600080600060608486031215620006f457620006f3620004b9565b5b60006200070486828701620004e7565b935050602084015167ffffffffffffffff811115620007285762000727620004be565b5b6200073686828701620006a5565b925050604084015167ffffffffffffffff8111156200075a5762000759620004be565b5b6200076886828701620006a5565b9150509250925092565b7f4e487b7100000000000000000000000000000000000000000000000000000000600052603260045260246000fd5b7f4e487b7100000000000000000000000000000000000000000000000000000000600052601160045260246000fd5b6000620007dd82620004c3565b91507fffffffffffffffffffffffffffffffffffffffffffffffffffffffffffffffff821415620008135762000812620007a1565b5b600182019050919050565b6000819050919050565b6000819050919050565b6000620008536200084d62000847846200081e565b62000828565b620004c3565b9050919050565b620008658162000832565b82525050565b6200087681620004c3565b82525050565b60006040820190506200089360008301856200085a565b620008a260208301846200086b565b9392505050565b612e3980620008b96000396000f3fe60806040526004361061016a5760003560e01c806364d62353116100d1578063b1c5f4271161008a578063d547741f11610064578063d547741f14610596578063d6e982e5146105bf578063e38335e5146105e8578063f27a0c921461060457610171565b8063b1c5f427146104f3578063c4d252f514610530578063d45c44351461055957610171565b806364d62353146103d15780638065657f146103fa5780638f2a0bb0146104375780638f61f4f51461046057806391d148541461048b578063a217fddf146104c857610171565b8063248a9ca311610123578063248a9ca31461028b5780632ab0f529146102c85780632f2ff15d1461030557806331d507501461032e57806336568abe1461036b578063584b153e1461039457610171565b806301d5062a1461017657806301ffc9a71461019f57806307bd0265146101dc5780630d3cf6fc14610207578063134008d31461023257806313bc9f201461024e57610171565b3661017157005b600080fd5b34801561018257600080fd5b5061019d60048036038101906101989190611925565b61062f565b005b3480156101ab57600080fd5b506101c660048036038101906101c19190611a2c565b6106cc565b6040516101d39190611a74565b60405180910390f35b3480156101e857600080fd5b506101f1610746565b6040516101fe9190611a9e565b60405180910390f35b34801561021357600080fd5b5061021c61076a565b6040516102299190611a9e565b60405180910390f35b61024c60048036038101906102479190611ab9565b61078e565b005b34801561025a57600080fd5b5061027560048036038101906102709190611b53565b61080e565b6040516102829190611a74565b60405180910390f35b34801561029757600080fd5b506102b260048036038101906102ad9190611b53565b610834565b6040516102bf9190611a9e565b60405180910390f35b3480156102d457600080fd5b506102ef60048036038101906102ea9190611b53565b610853565b6040516102fc9190611a74565b60405180910390f35b34801561031157600080fd5b5061032c60048036038101906103279190611b80565b610868565b005b34801561033a57600080fd5b5061035560048036038101906103509190611b53565b610891565b6040516103629190611a74565b60405180910390f35b34801561037757600080fd5b50610392600480360381019061038d9190611b80565b6108a5565b005b3480156103a057600080fd5b506103bb60048036038101906103b69190611b53565b610928565b6040516103c89190611a74565b60405180910390f35b3480156103dd57600080fd5b506103f860048036038101906103f39190611bc0565b61093d565b005b34801561040657600080fd5b50610421600480360381019061041c9190611ab9565b6109f0565b60405161042e9190611a9e565b60405180910390f35b34801561044357600080fd5b5061045e60048036038101906104599190611cef565b610a2f565b005b34801561046c57600080fd5b50610475610be2565b6040516104829190611a9e565b60405180910390f35b34801561049757600080fd5b506104b260048036038101906104ad9190611b80565b610c06565b6040516104bf9190611a74565b60405180910390f35b3480156104d457600080fd5b506104dd610c70565b6040516104ea9190611a9e565b60405180910390f35b3480156104ff57600080fd5b5061051a60048036038101906105159190611dde565b610c77565b6040516105279190611a9e565b60405180910390f35b34801561053c57600080fd5b5061055760048036038101906105529190611b53565b610cbc565b005b34801561056557600080fd5b50610580600480360381019061057b9190611b53565b610d7e565b60405161058d9190611ec9565b60405180910390f35b3480156105a257600080fd5b506105bd60048036038101906105b89190611b80565b610d9b565b005b3480156105cb57600080fd5b506105e660048036038101906105e19190611ee4565b610dc4565b005b61060260048036038101906105fd9190611dde565b610e8a565b005b34801561061057600080fd5b50610619611020565b6040516106269190611ec9565b60405180910390f35b7fb09aa5aeb3702cfd50b6b62bc4532604938f21248a27a1d5ca736082b6819cc16106618161065c61102a565b611032565b60006106718989898989896109f0565b905061067d81846110cf565b6000817f4cf4410cc57040e44862ef0f45f3dd5a5e02db8eb8add648d4b0e236f1d07dca8b8b8b8b8b8a6040516106b996959493929190611f91565b60405180910390a3505050505050505050565b60007f7965db0b000000000000000000000000000000000000000000000000000000007bffffffffffffffffffffffffffffffffffffffffffffffffffffffff1916827bffffffffffffffffffffffffffffffffffffffffffffffffffffffff1916148061073f575061073e82611189565b5b9050919050565b7fd8aa0f3194971a2a116679f7c2090f6939c8d4e01a2a8d7e41d55e5351469e6381565b7f5f58e3a2316349923ce3780f8d587db2d72378aed66a8261c916544fa6846ca581565b7fd8aa0f3194971a2a116679f7c2090f6939c8d4e01a2a8d7e41d55e5351469e636107ba816000610c06565b6107d0576107cf816107ca61102a565b611032565b5b60006107e08888888888886109f0565b90506107ec81856111f3565b6107fb8160008a8a8a8a611294565b6108048161138c565b5050505050505050565b60008061081a83610d7e565b905060018111801561082c5750428111155b915050919050565b6000806000838152602001908152602001600020600101549050919050565b6000600161086083610d7e565b149050919050565b61087182610834565b6108828161087d61102a565b611032565b61088c83836113ef565b505050565b60008061089d83610d7e565b119050919050565b6108ad61102a565b73ffffffffffffffffffffffffffffffffffffffff168173ffffffffffffffffffffffffffffffffffffffff161461091a576040517f08c379a000000000000000000000000000000000000000000000000000000000815260040161091190612070565b60405180910390fd5b61092482826114cf565b5050565b6000600161093583610d7e565b119050919050565b3073ffffffffffffffffffffffffffffffffffffffff163373ffffffffffffffffffffffffffffffffffffffff16146109ab576040517f08c379a00000000000000000000000000000000000000000000000000000000081526004016109a290612102565b60405180910390fd5b7f11c24f4ead16507c69ac467fbd5e4eed5fb5c699626d2cc6d66421df253886d5600254826040516109de929190612122565b60405180910390a18060028190555050565b6000868686868686604051602001610a0d9695949392919061214b565b6040516020818303038152906040528051906020012090509695505050505050565b7fb09aa5aeb3702cfd50b6b62bc4532604938f21248a27a1d5ca736082b6819cc1610a6181610a5c61102a565b611032565b878790508a8a905014610aa9576040517f08c379a0000000000000000000000000000000000000000000000000000000008152600401610aa090612219565b60405180910390fd5b858590508a8a905014610af1576040517f08c379a0000000000000000000000000000000000000000000000000000000008152600401610ae890612219565b60405180910390fd5b6000610b038b8b8b8b8b8b8b8b610c77565b9050610b0f81846110cf565b60005b8b8b9050811015610bd45780827f4cf4410cc57040e44862ef0f45f3dd5a5e02db8eb8add648d4b0e236f1d07dca8e8e85818110610b5357610b52612239565b5b9050602002016020810190610b689190612268565b8d8d86818110610b7b57610b7a612239565b5b905060200201358c8c87818110610b9557610b94612239565b5b9050602002810190610ba791906122a4565b8c8b604051610bbb96959493929190611f91565b60405180910390a380610bcd90612336565b9050610b12565b505050505050505050505050565b7fb09aa5aeb3702cfd50b6b62bc4532604938f21248a27a1d5ca736082b6819cc181565b600080600084815260200190815260200160002060000160008373ffffffffffffffffffffffffffffffffffffffff1673ffffffffffffffffffffffffffffffffffffffff16815260200190815260200160002060009054906101000a900460ff16905092915050565b6000801b81565b60008888888888888888604051602001610c98989796959493929190612618565b60405160208183030381529060405280519060200120905098975050505050505050565b7fb09aa5aeb3702cfd50b6b62bc4532604938f21248a27a1d5ca736082b6819cc1610cee81610ce961102a565b611032565b610cf782610928565b610d36576040517f08c379a0000000000000000000000000000000000000000000000000000000008152600401610d2d906126f8565b60405180910390fd5b6001600083815260200190815260200160002060009055817fbaa1eb22f2a492ba1a5fea61b8df4d27c6c8b5f3971e63bb58fa14ff72eedb7060405160405180910390a25050565b600060016000838152602001908152602001600020549050919050565b610da482610834565b610db581610db061102a565b611032565b610dbf83836114cf565b505050565b3073ffffffffffffffffffffffffffffffffffffffff163373ffffffffffffffffffffffffffffffffffffffff1614610dfc57600080fd5b47811115610e3f576040517f08c379a0000000000000000000000000000000000000000000000000000000008152600401610e3690612764565b60405180910390fd5b8173ffffffffffffffffffffffffffffffffffffffff166108fc829081150290604051600060405180830381858888f19350505050158015610e85573d6000803e3d6000fd5b505050565b7fd8aa0f3194971a2a116679f7c2090f6939c8d4e01a2a8d7e41d55e5351469e63610eb6816000610c06565b610ecc57610ecb81610ec661102a565b611032565b5b868690508989905014610f14576040517f08c379a0000000000000000000000000000000000000000000000000000000008152600401610f0b90612219565b60405180910390fd5b848490508989905014610f5c576040517f08c379a0000000000000000000000000000000000000000000000000000000008152600401610f5390612219565b60405180910390fd5b6000610f6e8a8a8a8a8a8a8a8a610c77565b9050610f7a81856111f3565b60005b8a8a905081101561100a57610ff982828d8d85818110610fa057610f9f612239565b5b9050602002016020810190610fb59190612268565b8c8c86818110610fc857610fc7612239565b5b905060200201358b8b87818110610fe257610fe1612239565b5b9050602002810190610ff491906122a4565b611294565b8061100390612336565b9050610f7d565b506110148161138c565b50505050505050505050565b6000600254905090565b600033905090565b61103c8282610c06565b6110cb576110618173ffffffffffffffffffffffffffffffffffffffff1660146115b0565b61106f8360001c60206115b0565b604051602001611080929190612896565b6040516020818303038152906040526040517f08c379a00000000000000000000000000000000000000000000000000000000081526004016110c29190612909565b60405180910390fd5b5050565b6110d882610891565b15611118576040517f08c379a000000000000000000000000000000000000000000000000000000000815260040161110f9061299d565b60405180910390fd5b611120611020565b811015611162576040517f08c379a000000000000000000000000000000000000000000000000000000000815260040161115990612a2f565b60405180910390fd5b804261116e9190612a4f565b60016000848152602001908152602001600020819055505050565b60007f01ffc9a7000000000000000000000000000000000000000000000000000000007bffffffffffffffffffffffffffffffffffffffffffffffffffffffff1916827bffffffffffffffffffffffffffffffffffffffffffffffffffffffff1916149050919050565b6111fc8261080e565b61123b576040517f08c379a000000000000000000000000000000000000000000000000000000000815260040161123290612b17565b60405180910390fd5b6000801b811480611251575061125081610853565b5b611290576040517f08c379a000000000000000000000000000000000000000000000000000000000815260040161128790612ba9565b60405180910390fd5b5050565b60008473ffffffffffffffffffffffffffffffffffffffff168484846040516112be929190612bf9565b60006040518083038185875af1925050503d80600081146112fb576040519150601f19603f3d011682016040523d82523d6000602084013e611300565b606091505b5050905080611344576040517f08c379a000000000000000000000000000000000000000000000000000000000815260040161133b90612c84565b60405180910390fd5b85877fc2617efa69bab66782fa219543714338489c4e9e178271560a91b82c3f612b588787878760405161137b9493929190612ca4565b60405180910390a350505050505050565b6113958161080e565b6113d4576040517f08c379a00000000000000000000000000000000000000000000000000000000081526004016113cb90612b17565b60405180910390fd5b60018060008381526020019081526020016000208190555050565b6113f98282610c06565b6114cb57600160008084815260200190815260200160002060000160008373ffffffffffffffffffffffffffffffffffffffff1673ffffffffffffffffffffffffffffffffffffffff16815260200190815260200160002060006101000a81548160ff02191690831515021790555061147061102a565b73ffffffffffffffffffffffffffffffffffffffff168173ffffffffffffffffffffffffffffffffffffffff16837f2f8788117e7eff1d82e926ec794901d17c78024a50270940304540a733656f0d60405160405180910390a45b5050565b6114d98282610c06565b156115ac57600080600084815260200190815260200160002060000160008373ffffffffffffffffffffffffffffffffffffffff1673ffffffffffffffffffffffffffffffffffffffff16815260200190815260200160002060006101000a81548160ff02191690831515021790555061155161102a565b73ffffffffffffffffffffffffffffffffffffffff168173ffffffffffffffffffffffffffffffffffffffff16837ff6391f5c32d9c69d2a47ea670b442974b53935d1edc7fd64eb21e047a839171b60405160405180910390a45b5050565b6060600060028360026115c39190612ce4565b6115cd9190612a4f565b67ffffffffffffffff8111156115e6576115e5612d3e565b5b6040519080825280601f01601f1916602001820160405280156116185781602001600182028036833780820191505090505b5090507f3000000000000000000000000000000000000000000000000000000000000000816000815181106116505761164f612239565b5b60200101907effffffffffffffffffffffffffffffffffffffffffffffffffffffffffffff1916908160001a9053507f7800000000000000000000000000000000000000000000000000000000000000816001815181106116b4576116b3612239565b5b60200101907effffffffffffffffffffffffffffffffffffffffffffffffffffffffffffff1916908160001a905350600060018460026116f49190612ce4565b6116fe9190612a4f565b90505b600181111561179e577f3031323334353637383961626364656600000000000000000000000000000000600f8616601081106117405761173f612239565b5b1a60f81b82828151811061175757611756612239565b5b60200101907effffffffffffffffffffffffffffffffffffffffffffffffffffffffffffff1916908160001a905350600485901c94508061179790612d6d565b9050611701565b50600084146117e2576040517f08c379a00000000000000000000000000000000000000000000000000000000081526004016117d990612de3565b60405180910390fd5b8091505092915050565b600080fd5b600080fd5b600073ffffffffffffffffffffffffffffffffffffffff82169050919050565b6000611821826117f6565b9050919050565b61183181611816565b811461183c57600080fd5b50565b60008135905061184e81611828565b92915050565b6000819050919050565b61186781611854565b811461187257600080fd5b50565b6000813590506118848161185e565b92915050565b600080fd5b600080fd5b600080fd5b60008083601f8401126118af576118ae61188a565b5b8235905067ffffffffffffffff8111156118cc576118cb61188f565b5b6020830191508360018202830111156118e8576118e7611894565b5b9250929050565b6000819050919050565b611902816118ef565b811461190d57600080fd5b50565b60008135905061191f816118f9565b92915050565b600080600080600080600060c0888a031215611944576119436117ec565b5b60006119528a828b0161183f565b97505060206119638a828b01611875565b965050604088013567ffffffffffffffff811115611984576119836117f1565b5b6119908a828b01611899565b955095505060606119a38a828b01611910565b93505060806119b48a828b01611910565b92505060a06119c58a828b01611875565b91505092959891949750929550565b60007fffffffff0000000000000000000000000000000000000000000000000000000082169050919050565b611a09816119d4565b8114611a1457600080fd5b50565b600081359050611a2681611a00565b92915050565b600060208284031215611a4257611a416117ec565b5b6000611a5084828501611a17565b91505092915050565b60008115159050919050565b611a6e81611a59565b82525050565b6000602082019050611a896000830184611a65565b92915050565b611a98816118ef565b82525050565b6000602082019050611ab36000830184611a8f565b92915050565b60008060008060008060a08789031215611ad657611ad56117ec565b5b6000611ae489828a0161183f565b9650506020611af589828a01611875565b955050604087013567ffffffffffffffff811115611b1657611b156117f1565b5b611b2289828a01611899565b94509450506060611b3589828a01611910565b9250506080611b4689828a01611910565b9150509295509295509295565b600060208284031215611b6957611b686117ec565b5b6000611b7784828501611910565b91505092915050565b60008060408385031215611b9757611b966117ec565b5b6000611ba585828601611910565b9250506020611bb68582860161183f565b9150509250929050565b600060208284031215611bd657611bd56117ec565b5b6000611be484828501611875565b91505092915050565b60008083601f840112611c0357611c0261188a565b5b8235905067ffffffffffffffff811115611c2057611c1f61188f565b5b602083019150836020820283011115611c3c57611c3b611894565b5b9250929050565b60008083601f840112611c5957611c5861188a565b5b8235905067ffffffffffffffff811115611c7657611c7561188f565b5b602083019150836020820283011115611c9257611c91611894565b5b9250929050565b60008083601f840112611caf57611cae61188a565b5b8235905067ffffffffffffffff811115611ccc57611ccb61188f565b5b602083019150836020820283011115611ce857611ce7611894565b5b9250929050565b600080600080600080600080600060c08a8c031215611d1157611d106117ec565b5b60008a013567ffffffffffffffff811115611d2f57611d2e6117f1565b5b611d3b8c828d01611bed565b995099505060208a013567ffffffffffffffff811115611d5e57611d5d6117f1565b5b611d6a8c828d01611c43565b975097505060408a013567ffffffffffffffff811115611d8d57611d8c6117f1565b5b611d998c828d01611c99565b95509550506060611dac8c828d01611910565b9350506080611dbd8c828d01611910565b92505060a0611dce8c828d01611875565b9150509295985092959850929598565b60008060008060008060008060a0898b031215611dfe57611dfd6117ec565b5b600089013567ffffffffffffffff811115611e1c57611e1b6117f1565b5b611e288b828c01611bed565b9850985050602089013567ffffffffffffffff811115611e4b57611e4a6117f1565b5b611e578b828c01611c43565b9650965050604089013567ffffffffffffffff811115611e7a57611e796117f1565b5b611e868b828c01611c99565b94509450506060611e998b828c01611910565b9250506080611eaa8b828c01611910565b9150509295985092959890939650565b611ec381611854565b82525050565b6000602082019050611ede6000830184611eba565b92915050565b60008060408385031215611efb57611efa6117ec565b5b6000611f098582860161183f565b9250506020611f1a85828601611875565b9150509250929050565b611f2d81611816565b82525050565b600082825260208201905092915050565b82818337600083830152505050565b6000601f19601f8301169050919050565b6000611f708385611f33565b9350611f7d838584611f44565b611f8683611f53565b840190509392505050565b600060a082019050611fa66000830189611f24565b611fb36020830188611eba565b8181036040830152611fc6818688611f64565b9050611fd56060830185611a8f565b611fe26080830184611eba565b979650505050505050565b600082825260208201905092915050565b7f416363657373436f6e74726f6c3a2063616e206f6e6c792072656e6f756e636560008201527f20726f6c657320666f722073656c660000000000000000000000000000000000602082015250565b600061205a602f83611fed565b915061206582611ffe565b604082019050919050565b600060208201905081810360008301526120898161204d565b9050919050565b7f54696d656c6f636b436f6e74726f6c6c65723a2063616c6c6572206d7573742060008201527f62652074696d656c6f636b000000000000000000000000000000000000000000602082015250565b60006120ec602b83611fed565b91506120f782612090565b604082019050919050565b6000602082019050818103600083015261211b816120df565b9050919050565b60006040820190506121376000830185611eba565b6121446020830184611eba565b9392505050565b600060a0820190506121606000830189611f24565b61216d6020830188611eba565b8181036040830152612180818688611f64565b905061218f6060830185611a8f565b61219c6080830184611a8f565b979650505050505050565b7f54696d656c6f636b436f6e74726f6c6c65723a206c656e677468206d69736d6160008201527f7463680000000000000000000000000000000000000000000000000000000000602082015250565b6000612203602383611fed565b915061220e826121a7565b604082019050919050565b60006020820190508181036000830152612232816121f6565b9050919050565b7f4e487b7100000000000000000000000000000000000000000000000000000000600052603260045260246000fd5b60006020828403121561227e5761227d6117ec565b5b600061228c8482850161183f565b91505092915050565b600080fd5b600080fd5b600080fd5b600080833560016020038436030381126122c1576122c0612295565b5b80840192508235915067ffffffffffffffff8211156122e3576122e261229a565b5b6020830192506001820236038313156122ff576122fe61229f565b5b509250929050565b7f4e487b7100000000000000000000000000000000000000000000000000000000600052601160045260246000fd5b600061234182611854565b91507fffffffffffffffffffffffffffffffffffffffffffffffffffffffffffffffff82141561237457612373612307565b5b600182019050919050565b600082825260208201905092915050565b6000819050919050565b6123a381611816565b82525050565b60006123b5838361239a565b60208301905092915050565b60006123d0602084018461183f565b905092915050565b6000602082019050919050565b60006123f1838561237f565b93506123fc82612390565b8060005b858110156124355761241282846123c1565b61241c88826123a9565b9750612427836123d8565b925050600181019050612400565b5085925050509392505050565b600082825260208201905092915050565b600080fd5b60006124648385612442565b93507f07ffffffffffffffffffffffffffffffffffffffffffffffffffffffffffffff83111561249757612496612453565b5b6020830292506124a8838584611f44565b82840190509392505050565b600082825260208201905092915050565b6000819050919050565b600082825260208201905092915050565b60006124ec83856124cf565b93506124f9838584611f44565b61250283611f53565b840190509392505050565b600061251a8484846124e0565b90509392505050565b600080fd5b600080fd5b600080fd5b6000808335600160200384360303811261254f5761254e61252d565b5b83810192508235915060208301925067ffffffffffffffff82111561257757612576612523565b5b60018202360384131561258d5761258c612528565b5b509250929050565b6000602082019050919050565b60006125ae83856124b4565b9350836020840285016125c0846124c5565b8060005b878110156126065784840389526125db8284612532565b6125e686828461250d565b95506125f184612595565b935060208b019a5050506001810190506125c4565b50829750879450505050509392505050565b600060a0820190508181036000830152612633818a8c6123e5565b9050818103602083015261264881888a612458565b9050818103604083015261265d8186886125a2565b905061266c6060830185611a8f565b6126796080830184611a8f565b9998505050505050505050565b7f54696d656c6f636b436f6e74726f6c6c65723a206f7065726174696f6e20636160008201527f6e6e6f742062652063616e63656c6c6564000000000000000000000000000000602082015250565b60006126e2603183611fed565b91506126ed82612686565b604082019050919050565b60006020820190508181036000830152612711816126d5565b9050919050565b7f4e6f742073756666696369656e742066756e6473000000000000000000000000600082015250565b600061274e601483611fed565b915061275982612718565b602082019050919050565b6000602082019050818103600083015261277d81612741565b9050919050565b600081905092915050565b7f416363657373436f6e74726f6c3a206163636f756e7420000000000000000000600082015250565b60006127c5601783612784565b91506127d08261278f565b601782019050919050565b600081519050919050565b60005b838110156128045780820151818401526020810190506127e9565b83811115612813576000848401525b50505050565b6000612824826127db565b61282e8185612784565b935061283e8185602086016127e6565b80840191505092915050565b7f206973206d697373696e6720726f6c6520000000000000000000000000000000600082015250565b6000612880601183612784565b915061288b8261284a565b601182019050919050565b60006128a1826127b8565b91506128ad8285612819565b91506128b882612873565b91506128c48284612819565b91508190509392505050565b60006128db826127db565b6128e58185611fed565b93506128f58185602086016127e6565b6128fe81611f53565b840191505092915050565b6000602082019050818103600083015261292381846128d0565b905092915050565b7f54696d656c6f636b436f6e74726f6c6c65723a206f7065726174696f6e20616c60008201527f7265616479207363686564756c65640000000000000000000000000000000000602082015250565b6000612987602f83611fed565b91506129928261292b565b604082019050919050565b600060208201905081810360008301526129b68161297a565b9050919050565b7f54696d656c6f636b436f6e74726f6c6c65723a20696e73756666696369656e7460008201527f2064656c61790000000000000000000000000000000000000000000000000000602082015250565b6000612a19602683611fed565b9150612a24826129bd565b604082019050919050565b60006020820190508181036000830152612a4881612a0c565b9050919050565b6000612a5a82611854565b9150612a6583611854565b9250827fffffffffffffffffffffffffffffffffffffffffffffffffffffffffffffffff03821115612a9a57612a99612307565b5b828201905092915050565b7f54696d656c6f636b436f6e74726f6c6c65723a206f7065726174696f6e20697360008201527f206e6f7420726561647900000000000000000000000000000000000000000000602082015250565b6000612b01602a83611fed565b9150612b0c82612aa5565b604082019050919050565b60006020820190508181036000830152612b3081612af4565b9050919050565b7f54696d656c6f636b436f6e74726f6c6c65723a206d697373696e67206465706560008201527f6e64656e63790000000000000000000000000000000000000000000000000000602082015250565b6000612b93602683611fed565b9150612b9e82612b37565b604082019050919050565b60006020820190508181036000830152612bc281612b86565b9050919050565b600081905092915050565b6000612be08385612bc9565b9350612bed838584611f44565b82840190509392505050565b6000612c06828486612bd4565b91508190509392505050565b7f54696d656c6f636b436f6e74726f6c6c65723a20756e6465726c79696e67207460008201527f72616e73616374696f6e20726576657274656400000000000000000000000000602082015250565b6000612c6e603383611fed565b9150612c7982612c12565b604082019050919050565b60006020820190508181036000830152612c9d81612c61565b9050919050565b6000606082019050612cb96000830187611f24565b612cc66020830186611eba565b8181036040830152612cd9818486611f64565b905095945050505050565b6000612cef82611854565b9150612cfa83611854565b9250817fffffffffffffffffffffffffffffffffffffffffffffffffffffffffffffffff0483118215151615612d3357612d32612307565b5b828202905092915050565b7f4e487b7100000000000000000000000000000000000000000000000000000000600052604160045260246000fd5b6000612d7882611854565b91506000821415612d8c57612d8b612307565b5b600182039050919050565b7f537472696e67733a20686578206c656e67746820696e73756666696369656e74600082015250565b6000612dcd602083611fed565b9150612dd882612d97565b602082019050919050565b60006020820190508181036000830152612dfc81612dc0565b905091905056fea26469706673582212205ec0b37922e07f9c70c3b7e75fd58039cf2a825678745596b638e8de1b6ab75564736f6c63430008090033",
  "immutableReferences": {},
  "source": "// SPDX-License-Identifier: MIT\r\npragma solidity ^0.8.0;\r\n\r\nimport \"@openzeppelin/contracts/governance/TimelockController.sol\";\r\n\r\ncontract TimeLock is TimelockController {\r\n    modifier onlyTimeLock {\r\n        require(msg.sender == address(this));\r\n        _;\r\n    }\r\n    \r\n    constructor(\r\n        uint256 _minDelay,\r\n        address[] memory _proposers,\r\n        address[] memory _executors\r\n    ) TimelockController(_minDelay, _proposers, _executors) {}\r\n\r\n    function releaseFunds(address payee, uint256 amount) public onlyTimeLock {\r\n        require(amount <= address(this).balance, \"Not sufficient funds\");\r\n        payable(payee).transfer(amount);\r\n    }\r\n}\r\n",
  "sourcePath": "D:\\Dev\\Elintegro\\Blockchain_Development\\Ethereum\\DAO\\governance\\contracts\\Timelock.sol",
  "compiler": {
    "name": "solc",
    "version": "0.8.9+commit.e5eed63a.Emscripten.clang"
  },
  "schemaVersion": "3.4.9",
  "updatedAt": "2022-09-12T08:56:59.179Z",
  "networkType": "ethereum",
  "devdoc": {
    "kind": "dev",
    "methods": {
      "cancel(bytes32)": {
        "details": "Cancel an operation. Requirements: - the caller must have the 'proposer' role."
      },
      "execute(address,uint256,bytes,bytes32,bytes32)": {
        "details": "Execute an (ready) operation containing a single transaction. Emits a {CallExecuted} event. Requirements: - the caller must have the 'executor' role."
      },
      "executeBatch(address[],uint256[],bytes[],bytes32,bytes32)": {
        "details": "Execute an (ready) operation containing a batch of transactions. Emits one {CallExecuted} event per transaction in the batch. Requirements: - the caller must have the 'executor' role."
      },
      "getMinDelay()": {
        "details": "Returns the minimum delay for an operation to become valid. This value can be changed by executing an operation that calls `updateDelay`."
      },
      "getRoleAdmin(bytes32)": {
        "details": "Returns the admin role that controls `role`. See {grantRole} and {revokeRole}. To change a role's admin, use {_setRoleAdmin}."
      },
      "getTimestamp(bytes32)": {
        "details": "Returns the timestamp at with an operation becomes ready (0 for unset operations, 1 for done operations)."
      },
      "grantRole(bytes32,address)": {
        "details": "Grants `role` to `account`. If `account` had not been already granted `role`, emits a {RoleGranted} event. Requirements: - the caller must have ``role``'s admin role."
      },
      "hasRole(bytes32,address)": {
        "details": "Returns `true` if `account` has been granted `role`."
      },
      "hashOperation(address,uint256,bytes,bytes32,bytes32)": {
        "details": "Returns the identifier of an operation containing a single transaction."
      },
      "hashOperationBatch(address[],uint256[],bytes[],bytes32,bytes32)": {
        "details": "Returns the identifier of an operation containing a batch of transactions."
      },
      "isOperation(bytes32)": {
        "details": "Returns whether an id correspond to a registered operation. This includes both Pending, Ready and Done operations."
      },
      "isOperationDone(bytes32)": {
        "details": "Returns whether an operation is done or not."
      },
      "isOperationPending(bytes32)": {
        "details": "Returns whether an operation is pending or not."
      },
      "isOperationReady(bytes32)": {
        "details": "Returns whether an operation is ready or not."
      },
      "renounceRole(bytes32,address)": {
        "details": "Revokes `role` from the calling account. Roles are often managed via {grantRole} and {revokeRole}: this function's purpose is to provide a mechanism for accounts to lose their privileges if they are compromised (such as when a trusted device is misplaced). If the calling account had been revoked `role`, emits a {RoleRevoked} event. Requirements: - the caller must be `account`."
      },
      "revokeRole(bytes32,address)": {
        "details": "Revokes `role` from `account`. If `account` had been granted `role`, emits a {RoleRevoked} event. Requirements: - the caller must have ``role``'s admin role."
      },
      "schedule(address,uint256,bytes,bytes32,bytes32,uint256)": {
        "details": "Schedule an operation containing a single transaction. Emits a {CallScheduled} event. Requirements: - the caller must have the 'proposer' role."
      },
      "scheduleBatch(address[],uint256[],bytes[],bytes32,bytes32,uint256)": {
        "details": "Schedule an operation containing a batch of transactions. Emits one {CallScheduled} event per transaction in the batch. Requirements: - the caller must have the 'proposer' role."
      },
      "supportsInterface(bytes4)": {
        "details": "See {IERC165-supportsInterface}."
      },
      "updateDelay(uint256)": {
        "details": "Changes the minimum timelock duration for future operations. Emits a {MinDelayChange} event. Requirements: - the caller must be the timelock itself. This can only be achieved by scheduling and later executing an operation where the timelock is the target and the data is the ABI-encoded call to this function."
      }
    },
    "version": 1
  },
  "userdoc": {
    "kind": "user",
    "methods": {},
    "version": 1
  }
}