{
  "contractName": "Treasury",
  "abi": [
    {
      "inputs": [
        {
          "internalType": "address",
          "name": "_payee",
          "type": "address"
        }
      ],
      "stateMutability": "payable",
      "type": "constructor",
      "payable": true
    },
    {
      "anonymous": false,
      "inputs": [
        {
          "indexed": true,
          "internalType": "address",
          "name": "previousOwner",
          "type": "address"
        },
        {
          "indexed": true,
          "internalType": "address",
          "name": "newOwner",
          "type": "address"
        }
      ],
      "name": "OwnershipTransferred",
      "type": "event"
    },
    {
      "inputs": [],
      "name": "isReleased",
      "outputs": [
        {
          "internalType": "bool",
          "name": "",
          "type": "bool"
        }
      ],
      "stateMutability": "view",
      "type": "function",
      "constant": true
    },
    {
      "inputs": [],
      "name": "owner",
      "outputs": [
        {
          "internalType": "address",
          "name": "",
          "type": "address"
        }
      ],
      "stateMutability": "view",
      "type": "function",
      "constant": true
    },
    {
      "inputs": [],
      "name": "payee",
      "outputs": [
        {
          "internalType": "address",
          "name": "",
          "type": "address"
        }
      ],
      "stateMutability": "view",
      "type": "function",
      "constant": true
    },
    {
      "inputs": [],
      "name": "renounceOwnership",
      "outputs": [],
      "stateMutability": "nonpayable",
      "type": "function"
    },
    {
      "inputs": [],
      "name": "totalFunds",
      "outputs": [
        {
          "internalType": "uint256",
          "name": "",
          "type": "uint256"
        }
      ],
      "stateMutability": "view",
      "type": "function",
      "constant": true
    },
    {
      "inputs": [
        {
          "internalType": "address",
          "name": "newOwner",
          "type": "address"
        }
      ],
      "name": "transferOwnership",
      "outputs": [],
      "stateMutability": "nonpayable",
      "type": "function"
    },
    {
      "inputs": [],
      "name": "releaseFunds",
      "outputs": [],
      "stateMutability": "nonpayable",
      "type": "function"
    }
  ],
  "bytecode": "0x608060405260405161095e38038061095e833981810160405281019061002591906101d9565b6100416100366100aa60201b60201c565b6100b260201b60201c565b3460018190555080600260006101000a81548173ffffffffffffffffffffffffffffffffffffffff021916908373ffffffffffffffffffffffffffffffffffffffff1602179055506000600260146101000a81548160ff02191690831515021790555050610206565b600033905090565b60008060009054906101000a900473ffffffffffffffffffffffffffffffffffffffff169050816000806101000a81548173ffffffffffffffffffffffffffffffffffffffff021916908373ffffffffffffffffffffffffffffffffffffffff1602179055508173ffffffffffffffffffffffffffffffffffffffff168173ffffffffffffffffffffffffffffffffffffffff167f8be0079c531659141344cd1fd0a4f28419497f9722a3daafe3b4186f6b6457e060405160405180910390a35050565b600080fd5b600073ffffffffffffffffffffffffffffffffffffffff82169050919050565b60006101a68261017b565b9050919050565b6101b68161019b565b81146101c157600080fd5b50565b6000815190506101d3816101ad565b92915050565b6000602082840312156101ef576101ee610176565b5b60006101fd848285016101c4565b91505092915050565b610749806102156000396000f3fe608060405234801561001057600080fd5b506004361061007d5760003560e01c8063968ed6001161005b578063968ed600146100b4578063ae90b213146100d2578063f2fde38b146100f0578063fa2a89971461010c5761007d565b806369d8957514610082578063715018a61461008c5780638da5cb5b14610096575b600080fd5b61008a61012a565b005b61009461022c565b005b61009e6102b4565b6040516100ab9190610521565b60405180910390f35b6100bc6102dd565b6040516100c99190610555565b60405180910390f35b6100da6102e3565b6040516100e79190610521565b60405180910390f35b61010a600480360381019061010591906105a1565b610309565b005b610114610401565b60405161012191906105e9565b60405180910390f35b610132610414565b73ffffffffffffffffffffffffffffffffffffffff166101506102b4565b73ffffffffffffffffffffffffffffffffffffffff16146101a6576040517f08c379a000000000000000000000000000000000000000000000000000000000815260040161019d90610661565b60405180910390fd5b6001600260146101000a81548160ff021916908315150217905550600260009054906101000a900473ffffffffffffffffffffffffffffffffffffffff1673ffffffffffffffffffffffffffffffffffffffff166108fc479081150290604051600060405180830381858888f19350505050158015610229573d6000803e3d6000fd5b50565b610234610414565b73ffffffffffffffffffffffffffffffffffffffff166102526102b4565b73ffffffffffffffffffffffffffffffffffffffff16146102a8576040517f08c379a000000000000000000000000000000000000000000000000000000000815260040161029f90610661565b60405180910390fd5b6102b2600061041c565b565b60008060009054906101000a900473ffffffffffffffffffffffffffffffffffffffff16905090565b60015481565b600260009054906101000a900473ffffffffffffffffffffffffffffffffffffffff1681565b610311610414565b73ffffffffffffffffffffffffffffffffffffffff1661032f6102b4565b73ffffffffffffffffffffffffffffffffffffffff1614610385576040517f08c379a000000000000000000000000000000000000000000000000000000000815260040161037c90610661565b60405180910390fd5b600073ffffffffffffffffffffffffffffffffffffffff168173ffffffffffffffffffffffffffffffffffffffff1614156103f5576040517f08c379a00000000000000000000000000000000000000000000000000000000081526004016103ec906106f3565b60405180910390fd5b6103fe8161041c565b50565b600260149054906101000a900460ff1681565b600033905090565b60008060009054906101000a900473ffffffffffffffffffffffffffffffffffffffff169050816000806101000a81548173ffffffffffffffffffffffffffffffffffffffff021916908373ffffffffffffffffffffffffffffffffffffffff1602179055508173ffffffffffffffffffffffffffffffffffffffff168173ffffffffffffffffffffffffffffffffffffffff167f8be0079c531659141344cd1fd0a4f28419497f9722a3daafe3b4186f6b6457e060405160405180910390a35050565b600073ffffffffffffffffffffffffffffffffffffffff82169050919050565b600061050b826104e0565b9050919050565b61051b81610500565b82525050565b60006020820190506105366000830184610512565b92915050565b6000819050919050565b61054f8161053c565b82525050565b600060208201905061056a6000830184610546565b92915050565b600080fd5b61057e81610500565b811461058957600080fd5b50565b60008135905061059b81610575565b92915050565b6000602082840312156105b7576105b6610570565b5b60006105c58482850161058c565b91505092915050565b60008115159050919050565b6105e3816105ce565b82525050565b60006020820190506105fe60008301846105da565b92915050565b600082825260208201905092915050565b7f4f776e61626c653a2063616c6c6572206973206e6f7420746865206f776e6572600082015250565b600061064b602083610604565b915061065682610615565b602082019050919050565b6000602082019050818103600083015261067a8161063e565b9050919050565b7f4f776e61626c653a206e6577206f776e657220697320746865207a65726f206160008201527f6464726573730000000000000000000000000000000000000000000000000000602082015250565b60006106dd602683610604565b91506106e882610681565b604082019050919050565b6000602082019050818103600083015261070c816106d0565b905091905056fea26469706673582212209895bdb4cb3f6be9856dc9565f88062215abe1686e53b47590866dfa7ce3a4c864736f6c63430008090033",
  "immutableReferences": {},
  "source": "// SPDX-License-Identifier: MIT\r\npragma solidity ^0.8.0;\r\n\r\nimport \"@openzeppelin/contracts/access/Ownable.sol\";\r\n\r\ncontract Treasury is Ownable {\r\n    uint256 public totalFunds;\r\n    address public payee;\r\n    bool public isReleased;\r\n\r\n    constructor(address _payee) payable {\r\n        totalFunds = msg.value;\r\n        payee = _payee;\r\n        isReleased = false;\r\n    }\r\n\r\n    function releaseFunds() public onlyOwner {\r\n        isReleased = true;\r\n        payable(payee).transfer(address(this).balance);\r\n    }\r\n}\r\n",
  "sourcePath": "D:\\Dev\\Elintegro\\Blockchain_Development\\Ethereum\\DAO\\governance\\contracts\\Treasury.sol",
  "compiler": {
    "name": "solc",
    "version": "0.8.9+commit.e5eed63a.Emscripten.clang"
  },
  "schemaVersion": "3.4.9",
  "updatedAt": "2022-09-12T08:56:59.218Z",
  "networkType": "ethereum",
  "devdoc": {
    "kind": "dev",
    "methods": {
      "owner()": {
        "details": "Returns the address of the current owner."
      },
      "renounceOwnership()": {
        "details": "Leaves the contract without owner. It will not be possible to call `onlyOwner` functions anymore. Can only be called by the current owner. NOTE: Renouncing ownership will leave the contract without an owner, thereby removing any functionality that is only available to the owner."
      },
      "transferOwnership(address)": {
        "details": "Transfers ownership of the contract to a new account (`newOwner`). Can only be called by the current owner."
      }
    },
    "version": 1
  },
  "userdoc": {
    "kind": "user",
    "methods": {},
    "version": 1
  }
}